{
	"RaffleBase.sol": {
		"RaffleBase": {
			"abi": [
				{
					"inputs": [
						{
							"internalType": "address",
							"name": "_usdcAddress",
							"type": "address"
						},
						{
							"internalType": "address",
							"name": "initialOwner",
							"type": "address"
						}
					],
					"stateMutability": "nonpayable",
					"type": "constructor"
				},
				{
					"inputs": [
						{
							"internalType": "address",
							"name": "owner",
							"type": "address"
						}
					],
					"name": "OwnableInvalidOwner",
					"type": "error"
				},
				{
					"inputs": [
						{
							"internalType": "address",
							"name": "account",
							"type": "address"
						}
					],
					"name": "OwnableUnauthorizedAccount",
					"type": "error"
				},
				{
					"anonymous": false,
					"inputs": [
						{
							"indexed": true,
							"internalType": "address",
							"name": "user",
							"type": "address"
						},
						{
							"indexed": false,
							"internalType": "uint256",
							"name": "amount",
							"type": "uint256"
						}
					],
					"name": "Deposit",
					"type": "event"
				},
				{
					"anonymous": false,
					"inputs": [
						{
							"indexed": true,
							"internalType": "address[3]",
							"name": "winners",
							"type": "address[3]"
						},
						{
							"indexed": false,
							"internalType": "uint256[3]",
							"name": "amounts",
							"type": "uint256[3]"
						}
					],
					"name": "LotteryDrawn",
					"type": "event"
				},
				{
					"anonymous": false,
					"inputs": [],
					"name": "LotteryStarted",
					"type": "event"
				},
				{
					"anonymous": false,
					"inputs": [
						{
							"indexed": true,
							"internalType": "address",
							"name": "previousOwner",
							"type": "address"
						},
						{
							"indexed": true,
							"internalType": "address",
							"name": "newOwner",
							"type": "address"
						}
					],
					"name": "OwnershipTransferred",
					"type": "event"
				},
				{
					"anonymous": false,
					"inputs": [
						{
							"indexed": true,
							"internalType": "address",
							"name": "user",
							"type": "address"
						},
						{
							"indexed": false,
							"internalType": "uint256",
							"name": "amount",
							"type": "uint256"
						}
					],
					"name": "Withdrawal",
					"type": "event"
				},
				{
					"inputs": [
						{
							"internalType": "uint256",
							"name": "numberOfTickets",
							"type": "uint256"
						}
					],
					"name": "DEPOSIT",
					"outputs": [],
					"stateMutability": "nonpayable",
					"type": "function"
				},
				{
					"inputs": [],
					"name": "DRAW",
					"outputs": [],
					"stateMutability": "nonpayable",
					"type": "function"
				},
				{
					"inputs": [],
					"name": "NEW",
					"outputs": [],
					"stateMutability": "nonpayable",
					"type": "function"
				},
				{
					"inputs": [],
					"name": "WITHDRAW",
					"outputs": [],
					"stateMutability": "nonpayable",
					"type": "function"
				},
				{
					"inputs": [],
					"name": "checkIfWinner",
					"outputs": [
						{
							"internalType": "bool",
							"name": "",
							"type": "bool"
						}
					],
					"stateMutability": "view",
					"type": "function"
				},
				{
					"inputs": [],
					"name": "controller",
					"outputs": [
						{
							"internalType": "address",
							"name": "",
							"type": "address"
						}
					],
					"stateMutability": "view",
					"type": "function"
				},
				{
					"inputs": [
						{
							"internalType": "address",
							"name": "user",
							"type": "address"
						}
					],
					"name": "getOdds",
					"outputs": [
						{
							"internalType": "string",
							"name": "",
							"type": "string"
						}
					],
					"stateMutability": "view",
					"type": "function"
				},
				{
					"inputs": [],
					"name": "isLotteryActive",
					"outputs": [
						{
							"internalType": "bool",
							"name": "",
							"type": "bool"
						}
					],
					"stateMutability": "view",
					"type": "function"
				},
				{
					"inputs": [],
					"name": "owner",
					"outputs": [
						{
							"internalType": "address",
							"name": "",
							"type": "address"
						}
					],
					"stateMutability": "view",
					"type": "function"
				},
				{
					"inputs": [
						{
							"internalType": "uint256",
							"name": "",
							"type": "uint256"
						}
					],
					"name": "participants",
					"outputs": [
						{
							"internalType": "address",
							"name": "",
							"type": "address"
						}
					],
					"stateMutability": "view",
					"type": "function"
				},
				{
					"inputs": [],
					"name": "renounceOwnership",
					"outputs": [],
					"stateMutability": "nonpayable",
					"type": "function"
				},
				{
					"inputs": [],
					"name": "retainer",
					"outputs": [
						{
							"internalType": "uint256",
							"name": "",
							"type": "uint256"
						}
					],
					"stateMutability": "view",
					"type": "function"
				},
				{
					"inputs": [],
					"name": "ticketPrice",
					"outputs": [
						{
							"internalType": "uint256",
							"name": "",
							"type": "uint256"
						}
					],
					"stateMutability": "view",
					"type": "function"
				},
				{
					"inputs": [
						{
							"internalType": "address",
							"name": "",
							"type": "address"
						}
					],
					"name": "tickets",
					"outputs": [
						{
							"internalType": "uint256",
							"name": "",
							"type": "uint256"
						}
					],
					"stateMutability": "view",
					"type": "function"
				},
				{
					"inputs": [],
					"name": "totalPot",
					"outputs": [
						{
							"internalType": "uint256",
							"name": "",
							"type": "uint256"
						}
					],
					"stateMutability": "view",
					"type": "function"
				},
				{
					"inputs": [
						{
							"internalType": "address",
							"name": "newOwner",
							"type": "address"
						}
					],
					"name": "transferOwnership",
					"outputs": [],
					"stateMutability": "nonpayable",
					"type": "function"
				},
				{
					"inputs": [],
					"name": "usdc",
					"outputs": [
						{
							"internalType": "contract IERC20",
							"name": "",
							"type": "address"
						}
					],
					"stateMutability": "view",
					"type": "function"
				},
				{
					"inputs": [
						{
							"internalType": "uint256",
							"name": "",
							"type": "uint256"
						}
					],
					"name": "winners",
					"outputs": [
						{
							"internalType": "address",
							"name": "",
							"type": "address"
						}
					],
					"stateMutability": "view",
					"type": "function"
				}
			],
			"devdoc": {
				"errors": {
					"OwnableInvalidOwner(address)": [
						{
							"details": "The owner is not a valid owner account. (eg. `address(0)`)"
						}
					],
					"OwnableUnauthorizedAccount(address)": [
						{
							"details": "The caller account is not authorized to perform an operation."
						}
					]
				},
				"kind": "dev",
				"methods": {
					"owner()": {
						"details": "Returns the address of the current owner."
					},
					"renounceOwnership()": {
						"details": "Leaves the contract without owner. It will not be possible to call `onlyOwner` functions. Can only be called by the current owner. NOTE: Renouncing ownership will leave the contract without an owner, thereby disabling any functionality that is only available to the owner."
					},
					"transferOwnership(address)": {
						"details": "Transfers ownership of the contract to a new account (`newOwner`). Can only be called by the current owner."
					}
				},
				"version": 1
			},
			"evm": {
				"assembly": "    /* \"RaffleBase.sol\":168:4577  contract RaffleBase is Ownable {... */\n  mstore(0x40, 0x80)\n    /* \"RaffleBase.sol\":344:358  9.99 * 10 ** 6 */\n  0x986f70\n    /* \"RaffleBase.sol\":315:358  uint256 public ticketPrice = 9.99 * 10 ** 6 */\n  0x02\n  sstore\n    /* \"RaffleBase.sol\":423:426  100 */\n  0x64\n    /* \"RaffleBase.sol\":397:426  uint256 public retainer = 100 */\n  0x03\n  sstore\n    /* \"RaffleBase.sol\":984:1106  constructor(address _usdcAddress, address initialOwner) Ownable(initialOwner) {... */\n  callvalue\n  dup1\n  iszero\n  tag_1\n  jumpi\n  0x00\n  dup1\n  revert\ntag_1:\n  pop\n  mload(0x40)\n  sub(codesize, bytecodeSize)\n  dup1\n  bytecodeSize\n  dup4\n  codecopy\n  dup2\n  dup2\n  add\n  0x40\n  mstore\n  dup2\n  add\n  swap1\n  tag_2\n  swap2\n  swap1\n  tag_3\n  jump\t// in\ntag_2:\n    /* \"RaffleBase.sol\":1048:1060  initialOwner */\n  dup1\n    /* \"@openzeppelin/contracts/access/Ownable.sol\":1297:1298  0 */\n  0x00\n    /* \"@openzeppelin/contracts/access/Ownable.sol\":1273:1299  initialOwner == address(0) */\n  0xffffffffffffffffffffffffffffffffffffffff\n  and\n    /* \"@openzeppelin/contracts/access/Ownable.sol\":1273:1285  initialOwner */\n  dup2\n    /* \"@openzeppelin/contracts/access/Ownable.sol\":1273:1299  initialOwner == address(0) */\n  0xffffffffffffffffffffffffffffffffffffffff\n  and\n  sub\n    /* \"@openzeppelin/contracts/access/Ownable.sol\":1269:1364  if (initialOwner == address(0)) {... */\n  tag_7\n  jumpi\n    /* \"@openzeppelin/contracts/access/Ownable.sol\":1350:1351  0 */\n  0x00\n    /* \"@openzeppelin/contracts/access/Ownable.sol\":1322:1353  OwnableInvalidOwner(address(0)) */\n  mload(0x40)\n  0x1e4fbdf700000000000000000000000000000000000000000000000000000000\n  dup2\n  mstore\n  0x04\n  add\n  tag_8\n  swap2\n  swap1\n  tag_9\n  jump\t// in\ntag_8:\n  mload(0x40)\n  dup1\n  swap2\n  sub\n  swap1\n  revert\n    /* \"@openzeppelin/contracts/access/Ownable.sol\":1269:1364  if (initialOwner == address(0)) {... */\ntag_7:\n    /* \"@openzeppelin/contracts/access/Ownable.sol\":1373:1405  _transferOwnership(initialOwner) */\n  tag_10\n    /* \"@openzeppelin/contracts/access/Ownable.sol\":1392:1404  initialOwner */\n  dup2\n    /* \"@openzeppelin/contracts/access/Ownable.sol\":1373:1391  _transferOwnership */\n  shl(0x20, tag_11)\n    /* \"@openzeppelin/contracts/access/Ownable.sol\":1373:1405  _transferOwnership(initialOwner) */\n  0x20\n  shr\n  jump\t// in\ntag_10:\n    /* \"@openzeppelin/contracts/access/Ownable.sol\":1225:1412  constructor(address initialOwner) {... */\n  pop\n    /* \"RaffleBase.sol\":1086:1098  _usdcAddress */\n  dup2\n    /* \"RaffleBase.sol\":1072:1076  usdc */\n  0x01\n  0x00\n    /* \"RaffleBase.sol\":1072:1099  usdc = IERC20(_usdcAddress) */\n  0x0100\n  exp\n  dup2\n  sload\n  dup2\n  0xffffffffffffffffffffffffffffffffffffffff\n  mul\n  not\n  and\n  swap1\n  dup4\n  0xffffffffffffffffffffffffffffffffffffffff\n  and\n  mul\n  or\n  swap1\n  sstore\n  pop\n    /* \"RaffleBase.sol\":984:1106  constructor(address _usdcAddress, address initialOwner) Ownable(initialOwner) {... */\n  pop\n  pop\n    /* \"RaffleBase.sol\":168:4577  contract RaffleBase is Ownable {... */\n  jump(tag_13)\n    /* \"@openzeppelin/contracts/access/Ownable.sol\":2912:3099  function _transferOwnership(address newOwner) internal virtual {... */\ntag_11:\n    /* \"@openzeppelin/contracts/access/Ownable.sol\":2985:3001  address oldOwner */\n  0x00\n    /* \"@openzeppelin/contracts/access/Ownable.sol\":3004:3010  _owner */\n  dup1\n  0x00\n  swap1\n  sload\n  swap1\n  0x0100\n  exp\n  swap1\n  div\n  0xffffffffffffffffffffffffffffffffffffffff\n  and\n    /* \"@openzeppelin/contracts/access/Ownable.sol\":2985:3010  address oldOwner = _owner */\n  swap1\n  pop\n    /* \"@openzeppelin/contracts/access/Ownable.sol\":3029:3037  newOwner */\n  dup2\n    /* \"@openzeppelin/contracts/access/Ownable.sol\":3020:3026  _owner */\n  0x00\n  dup1\n    /* \"@openzeppelin/contracts/access/Ownable.sol\":3020:3037  _owner = newOwner */\n  0x0100\n  exp\n  dup2\n  sload\n  dup2\n  0xffffffffffffffffffffffffffffffffffffffff\n  mul\n  not\n  and\n  swap1\n  dup4\n  0xffffffffffffffffffffffffffffffffffffffff\n  and\n  mul\n  or\n  swap1\n  sstore\n  pop\n    /* \"@openzeppelin/contracts/access/Ownable.sol\":3083:3091  newOwner */\n  dup2\n    /* \"@openzeppelin/contracts/access/Ownable.sol\":3052:3092  OwnershipTransferred(oldOwner, newOwner) */\n  0xffffffffffffffffffffffffffffffffffffffff\n  and\n    /* \"@openzeppelin/contracts/access/Ownable.sol\":3073:3081  oldOwner */\n  dup2\n    /* \"@openzeppelin/contracts/access/Ownable.sol\":3052:3092  OwnershipTransferred(oldOwner, newOwner) */\n  0xffffffffffffffffffffffffffffffffffffffff\n  and\n  0x8be0079c531659141344cd1fd0a4f28419497f9722a3daafe3b4186f6b6457e0\n  mload(0x40)\n  mload(0x40)\n  dup1\n  swap2\n  sub\n  swap1\n  log3\n    /* \"@openzeppelin/contracts/access/Ownable.sol\":2975:3099  {... */\n  pop\n    /* \"@openzeppelin/contracts/access/Ownable.sol\":2912:3099  function _transferOwnership(address newOwner) internal virtual {... */\n  pop\n  jump\t// out\n    /* \"#utility.yul\":88:205   */\ntag_16:\n    /* \"#utility.yul\":197:198   */\n  0x00\n    /* \"#utility.yul\":194:195   */\n  dup1\n    /* \"#utility.yul\":187:199   */\n  revert\n    /* \"#utility.yul\":334:460   */\ntag_18:\n    /* \"#utility.yul\":371:378   */\n  0x00\n    /* \"#utility.yul\":411:453   */\n  0xffffffffffffffffffffffffffffffffffffffff\n    /* \"#utility.yul\":404:409   */\n  dup3\n    /* \"#utility.yul\":400:454   */\n  and\n    /* \"#utility.yul\":389:454   */\n  swap1\n  pop\n    /* \"#utility.yul\":334:460   */\n  swap2\n  swap1\n  pop\n  jump\t// out\n    /* \"#utility.yul\":466:562   */\ntag_19:\n    /* \"#utility.yul\":503:510   */\n  0x00\n    /* \"#utility.yul\":532:556   */\n  tag_29\n    /* \"#utility.yul\":550:555   */\n  dup3\n    /* \"#utility.yul\":532:556   */\n  tag_18\n  jump\t// in\ntag_29:\n    /* \"#utility.yul\":521:556   */\n  swap1\n  pop\n    /* \"#utility.yul\":466:562   */\n  swap2\n  swap1\n  pop\n  jump\t// out\n    /* \"#utility.yul\":568:690   */\ntag_20:\n    /* \"#utility.yul\":641:665   */\n  tag_31\n    /* \"#utility.yul\":659:664   */\n  dup2\n    /* \"#utility.yul\":641:665   */\n  tag_19\n  jump\t// in\ntag_31:\n    /* \"#utility.yul\":634:639   */\n  dup2\n    /* \"#utility.yul\":631:666   */\n  eq\n    /* \"#utility.yul\":621:684   */\n  tag_32\n  jumpi\n    /* \"#utility.yul\":680:681   */\n  0x00\n    /* \"#utility.yul\":677:678   */\n  dup1\n    /* \"#utility.yul\":670:682   */\n  revert\n    /* \"#utility.yul\":621:684   */\ntag_32:\n    /* \"#utility.yul\":568:690   */\n  pop\n  jump\t// out\n    /* \"#utility.yul\":696:839   */\ntag_21:\n    /* \"#utility.yul\":753:758   */\n  0x00\n    /* \"#utility.yul\":784:790   */\n  dup2\n    /* \"#utility.yul\":778:791   */\n  mload\n    /* \"#utility.yul\":769:791   */\n  swap1\n  pop\n    /* \"#utility.yul\":800:833   */\n  tag_34\n    /* \"#utility.yul\":827:832   */\n  dup2\n    /* \"#utility.yul\":800:833   */\n  tag_20\n  jump\t// in\ntag_34:\n    /* \"#utility.yul\":696:839   */\n  swap3\n  swap2\n  pop\n  pop\n  jump\t// out\n    /* \"#utility.yul\":845:1352   */\ntag_3:\n    /* \"#utility.yul\":924:930   */\n  0x00\n    /* \"#utility.yul\":932:938   */\n  dup1\n    /* \"#utility.yul\":981:983   */\n  0x40\n    /* \"#utility.yul\":969:978   */\n  dup4\n    /* \"#utility.yul\":960:967   */\n  dup6\n    /* \"#utility.yul\":956:979   */\n  sub\n    /* \"#utility.yul\":952:984   */\n  slt\n    /* \"#utility.yul\":949:1068   */\n  iszero\n  tag_36\n  jumpi\n    /* \"#utility.yul\":987:1066   */\n  tag_37\n  tag_16\n  jump\t// in\ntag_37:\n    /* \"#utility.yul\":949:1068   */\ntag_36:\n    /* \"#utility.yul\":1107:1108   */\n  0x00\n    /* \"#utility.yul\":1132:1196   */\n  tag_38\n    /* \"#utility.yul\":1188:1195   */\n  dup6\n    /* \"#utility.yul\":1179:1185   */\n  dup3\n    /* \"#utility.yul\":1168:1177   */\n  dup7\n    /* \"#utility.yul\":1164:1186   */\n  add\n    /* \"#utility.yul\":1132:1196   */\n  tag_21\n  jump\t// in\ntag_38:\n    /* \"#utility.yul\":1122:1196   */\n  swap3\n  pop\n    /* \"#utility.yul\":1078:1206   */\n  pop\n    /* \"#utility.yul\":1245:1247   */\n  0x20\n    /* \"#utility.yul\":1271:1335   */\n  tag_39\n    /* \"#utility.yul\":1327:1334   */\n  dup6\n    /* \"#utility.yul\":1318:1324   */\n  dup3\n    /* \"#utility.yul\":1307:1316   */\n  dup7\n    /* \"#utility.yul\":1303:1325   */\n  add\n    /* \"#utility.yul\":1271:1335   */\n  tag_21\n  jump\t// in\ntag_39:\n    /* \"#utility.yul\":1261:1335   */\n  swap2\n  pop\n    /* \"#utility.yul\":1216:1345   */\n  pop\n    /* \"#utility.yul\":845:1352   */\n  swap3\n  pop\n  swap3\n  swap1\n  pop\n  jump\t// out\n    /* \"#utility.yul\":1358:1476   */\ntag_22:\n    /* \"#utility.yul\":1445:1469   */\n  tag_41\n    /* \"#utility.yul\":1463:1468   */\n  dup2\n    /* \"#utility.yul\":1445:1469   */\n  tag_19\n  jump\t// in\ntag_41:\n    /* \"#utility.yul\":1440:1443   */\n  dup3\n    /* \"#utility.yul\":1433:1470   */\n  mstore\n    /* \"#utility.yul\":1358:1476   */\n  pop\n  pop\n  jump\t// out\n    /* \"#utility.yul\":1482:1704   */\ntag_9:\n    /* \"#utility.yul\":1575:1579   */\n  0x00\n    /* \"#utility.yul\":1613:1615   */\n  0x20\n    /* \"#utility.yul\":1602:1611   */\n  dup3\n    /* \"#utility.yul\":1598:1616   */\n  add\n    /* \"#utility.yul\":1590:1616   */\n  swap1\n  pop\n    /* \"#utility.yul\":1626:1697   */\n  tag_43\n    /* \"#utility.yul\":1694:1695   */\n  0x00\n    /* \"#utility.yul\":1683:1692   */\n  dup4\n    /* \"#utility.yul\":1679:1696   */\n  add\n    /* \"#utility.yul\":1670:1676   */\n  dup5\n    /* \"#utility.yul\":1626:1697   */\n  tag_22\n  jump\t// in\ntag_43:\n    /* \"#utility.yul\":1482:1704   */\n  swap3\n  swap2\n  pop\n  pop\n  jump\t// out\n    /* \"RaffleBase.sol\":168:4577  contract RaffleBase is Ownable {... */\ntag_13:\n  dataSize(sub_0)\n  dup1\n  dataOffset(sub_0)\n  0x00\n  codecopy\n  0x00\n  return\nstop\n\nsub_0: assembly {\n        /* \"RaffleBase.sol\":168:4577  contract RaffleBase is Ownable {... */\n      mstore(0x40, 0x80)\n      callvalue\n      dup1\n      iszero\n      tag_1\n      jumpi\n      0x00\n      dup1\n      revert\n    tag_1:\n      pop\n      jumpi(tag_2, lt(calldatasize, 0x04))\n      shr(0xe0, calldataload(0x00))\n      dup1\n      0x8da5cb5b\n      gt\n      tag_21\n      jumpi\n      dup1\n      0xd5563b3c\n      gt\n      tag_22\n      jumpi\n      dup1\n      0xd5563b3c\n      eq\n      tag_16\n      jumpi\n      dup1\n      0xe6be59e7\n      eq\n      tag_17\n      jumpi\n      dup1\n      0xe95f0328\n      eq\n      tag_18\n      jumpi\n      dup1\n      0xf2fde38b\n      eq\n      tag_19\n      jumpi\n      dup1\n      0xf77c4791\n      eq\n      tag_20\n      jumpi\n      jump(tag_2)\n    tag_22:\n      dup1\n      0x8da5cb5b\n      eq\n      tag_12\n      jumpi\n      dup1\n      0xa2fb1175\n      eq\n      tag_13\n      jumpi\n      dup1\n      0xb844007c\n      eq\n      tag_14\n      jumpi\n      dup1\n      0xc3b69ebb\n      eq\n      tag_15\n      jumpi\n      jump(tag_2)\n    tag_21:\n      dup1\n      0x35c1d349\n      gt\n      tag_23\n      jumpi\n      dup1\n      0x35c1d349\n      eq\n      tag_7\n      jumpi\n      dup1\n      0x3e413bee\n      eq\n      tag_8\n      jumpi\n      dup1\n      0x619d36ef\n      eq\n      tag_9\n      jumpi\n      dup1\n      0x6dcbf2a3\n      eq\n      tag_10\n      jumpi\n      dup1\n      0x715018a6\n      eq\n      tag_11\n      jumpi\n      jump(tag_2)\n    tag_23:\n      dup1\n      0x08601768\n      eq\n      tag_3\n      jumpi\n      dup1\n      0x1209b1f6\n      eq\n      tag_4\n      jumpi\n      dup1\n      0x16ba7197\n      eq\n      tag_5\n      jumpi\n      dup1\n      0x24b570a9\n      eq\n      tag_6\n      jumpi\n    tag_2:\n      0x00\n      dup1\n      revert\n        /* \"RaffleBase.sol\":1825:2047  function NEW() external onlyController {... */\n    tag_3:\n      tag_24\n      tag_25\n      jump\t// in\n    tag_24:\n      stop\n        /* \"RaffleBase.sol\":315:358  uint256 public ticketPrice = 9.99 * 10 ** 6 */\n    tag_4:\n      tag_26\n      tag_27\n      jump\t// in\n    tag_26:\n      mload(0x40)\n      tag_28\n      swap2\n      swap1\n      tag_29\n      jump\t// in\n    tag_28:\n      mload(0x40)\n      dup1\n      swap2\n      sub\n      swap1\n      return\n        /* \"RaffleBase.sol\":3231:3541  function WITHDRAW() external onlyController {... */\n    tag_5:\n      tag_30\n      tag_31\n      jump\t// in\n    tag_30:\n      stop\n        /* \"RaffleBase.sol\":625:648  uint256 public totalPot */\n    tag_6:\n      tag_32\n      tag_33\n      jump\t// in\n    tag_32:\n      mload(0x40)\n      tag_34\n      swap2\n      swap1\n      tag_29\n      jump\t// in\n    tag_34:\n      mload(0x40)\n      dup1\n      swap2\n      sub\n      swap1\n      return\n        /* \"RaffleBase.sol\":478:507  address[] public participants */\n    tag_7:\n      tag_35\n      0x04\n      dup1\n      calldatasize\n      sub\n      dup2\n      add\n      swap1\n      tag_36\n      swap2\n      swap1\n      tag_37\n      jump\t// in\n    tag_36:\n      tag_38\n      jump\t// in\n    tag_35:\n      mload(0x40)\n      tag_39\n      swap2\n      swap1\n      tag_40\n      jump\t// in\n    tag_39:\n      mload(0x40)\n      dup1\n      swap2\n      sub\n      swap1\n      return\n        /* \"RaffleBase.sol\":205:223  IERC20 public usdc */\n    tag_8:\n      tag_41\n      tag_42\n      jump\t// in\n    tag_41:\n      mload(0x40)\n      tag_43\n      swap2\n      swap1\n      tag_44\n      jump\t// in\n    tag_43:\n      mload(0x40)\n      dup1\n      swap2\n      sub\n      swap1\n      return\n        /* \"RaffleBase.sol\":2053:2997  function DRAW() external onlyController {... */\n    tag_9:\n      tag_45\n      tag_46\n      jump\t// in\n    tag_45:\n      stop\n        /* \"RaffleBase.sol\":513:555  mapping(address => uint256) public tickets */\n    tag_10:\n      tag_47\n      0x04\n      dup1\n      calldatasize\n      sub\n      dup2\n      add\n      swap1\n      tag_48\n      swap2\n      swap1\n      tag_49\n      jump\t// in\n    tag_48:\n      tag_50\n      jump\t// in\n    tag_47:\n      mload(0x40)\n      tag_51\n      swap2\n      swap1\n      tag_29\n      jump\t// in\n    tag_51:\n      mload(0x40)\n      dup1\n      swap2\n      sub\n      swap1\n      return\n        /* \"@openzeppelin/contracts/access/Ownable.sol\":2293:2394  function renounceOwnership() public virtual onlyOwner {... */\n    tag_11:\n      tag_52\n      tag_53\n      jump\t// in\n    tag_52:\n      stop\n        /* \"@openzeppelin/contracts/access/Ownable.sol\":1638:1723  function owner() public view virtual returns (address) {... */\n    tag_12:\n      tag_54\n      tag_55\n      jump\t// in\n    tag_54:\n      mload(0x40)\n      tag_56\n      swap2\n      swap1\n      tag_40\n      jump\t// in\n    tag_56:\n      mload(0x40)\n      dup1\n      swap2\n      sub\n      swap1\n      return\n        /* \"RaffleBase.sol\":594:619  address[3] public winners */\n    tag_13:\n      tag_57\n      0x04\n      dup1\n      calldatasize\n      sub\n      dup2\n      add\n      swap1\n      tag_58\n      swap2\n      swap1\n      tag_37\n      jump\t// in\n    tag_58:\n      tag_59\n      jump\t// in\n    tag_57:\n      mload(0x40)\n      tag_60\n      swap2\n      swap1\n      tag_40\n      jump\t// in\n    tag_60:\n      mload(0x40)\n      dup1\n      swap2\n      sub\n      swap1\n      return\n        /* \"RaffleBase.sol\":3003:3225  function checkIfWinner() external view returns (bool) {... */\n    tag_14:\n      tag_61\n      tag_62\n      jump\t// in\n    tag_61:\n      mload(0x40)\n      tag_63\n      swap2\n      swap1\n      tag_64\n      jump\t// in\n    tag_63:\n      mload(0x40)\n      dup1\n      swap2\n      sub\n      swap1\n      return\n        /* \"RaffleBase.sol\":561:588  bool public isLotteryActive */\n    tag_15:\n      tag_65\n      tag_66\n      jump\t// in\n    tag_65:\n      mload(0x40)\n      tag_67\n      swap2\n      swap1\n      tag_64\n      jump\t// in\n    tag_67:\n      mload(0x40)\n      dup1\n      swap2\n      sub\n      swap1\n      return\n        /* \"RaffleBase.sol\":3547:4014  function getOdds(address user) external view returns (string memory) {... */\n    tag_16:\n      tag_68\n      0x04\n      dup1\n      calldatasize\n      sub\n      dup2\n      add\n      swap1\n      tag_69\n      swap2\n      swap1\n      tag_49\n      jump\t// in\n    tag_69:\n      tag_70\n      jump\t// in\n    tag_68:\n      mload(0x40)\n      tag_71\n      swap2\n      swap1\n      tag_72\n      jump\t// in\n    tag_71:\n      mload(0x40)\n      dup1\n      swap2\n      sub\n      swap1\n      return\n        /* \"RaffleBase.sol\":397:426  uint256 public retainer = 100 */\n    tag_17:\n      tag_73\n      tag_74\n      jump\t// in\n    tag_73:\n      mload(0x40)\n      tag_75\n      swap2\n      swap1\n      tag_29\n      jump\t// in\n    tag_75:\n      mload(0x40)\n      dup1\n      swap2\n      sub\n      swap1\n      return\n        /* \"RaffleBase.sol\":1112:1819  function DEPOSIT(uint256 numberOfTickets) external {... */\n    tag_18:\n      tag_76\n      0x04\n      dup1\n      calldatasize\n      sub\n      dup2\n      add\n      swap1\n      tag_77\n      swap2\n      swap1\n      tag_37\n      jump\t// in\n    tag_77:\n      tag_78\n      jump\t// in\n    tag_76:\n      stop\n        /* \"@openzeppelin/contracts/access/Ownable.sol\":2543:2758  function transferOwnership(address newOwner) public virtual onlyOwner {... */\n    tag_19:\n      tag_79\n      0x04\n      dup1\n      calldatasize\n      sub\n      dup2\n      add\n      swap1\n      tag_80\n      swap2\n      swap1\n      tag_49\n      jump\t// in\n    tag_80:\n      tag_81\n      jump\t// in\n    tag_79:\n      stop\n        /* \"RaffleBase.sol\":229:308  address public constant controller = 0x34045c937742C8AD6222A10eb21c7CfFF8Bf870E */\n    tag_20:\n      tag_82\n      tag_83\n      jump\t// in\n    tag_82:\n      mload(0x40)\n      tag_84\n      swap2\n      swap1\n      tag_40\n      jump\t// in\n    tag_84:\n      mload(0x40)\n      dup1\n      swap2\n      sub\n      swap1\n      return\n        /* \"RaffleBase.sol\":1825:2047  function NEW() external onlyController {... */\n    tag_25:\n        /* \"RaffleBase.sol\":266:308  0x34045c937742C8AD6222A10eb21c7CfFF8Bf870E */\n      0x34045c937742c8ad6222a10eb21c7cfff8bf870e\n        /* \"RaffleBase.sol\":917:941  msg.sender == controller */\n      0xffffffffffffffffffffffffffffffffffffffff\n      and\n        /* \"RaffleBase.sol\":917:927  msg.sender */\n      caller\n        /* \"RaffleBase.sol\":917:941  msg.sender == controller */\n      0xffffffffffffffffffffffffffffffffffffffff\n      and\n      eq\n        /* \"RaffleBase.sol\":909:960  require(msg.sender == controller, \"Not authorized\") */\n      tag_86\n      jumpi\n      mload(0x40)\n      0x08c379a000000000000000000000000000000000000000000000000000000000\n      dup2\n      mstore\n      0x04\n      add\n      tag_87\n      swap1\n      tag_88\n      jump\t// in\n    tag_87:\n      mload(0x40)\n      dup1\n      swap2\n      sub\n      swap1\n      revert\n    tag_86:\n        /* \"RaffleBase.sol\":1883:1898  isLotteryActive */\n      0x06\n      0x00\n      swap1\n      sload\n      swap1\n      0x0100\n      exp\n      swap1\n      div\n      0xff\n      and\n        /* \"RaffleBase.sol\":1882:1898  !isLotteryActive */\n      iszero\n        /* \"RaffleBase.sol\":1874:1924  require(!isLotteryActive, \"Raffle already active\") */\n      tag_90\n      jumpi\n      mload(0x40)\n      0x08c379a000000000000000000000000000000000000000000000000000000000\n      dup2\n      mstore\n      0x04\n      add\n      tag_91\n      swap1\n      tag_92\n      jump\t// in\n    tag_91:\n      mload(0x40)\n      dup1\n      swap2\n      sub\n      swap1\n      revert\n    tag_90:\n        /* \"RaffleBase.sol\":1953:1957  true */\n      0x01\n        /* \"RaffleBase.sol\":1935:1950  isLotteryActive */\n      0x06\n      0x00\n        /* \"RaffleBase.sol\":1935:1957  isLotteryActive = true */\n      0x0100\n      exp\n      dup2\n      sload\n      dup2\n      0xff\n      mul\n      not\n      and\n      swap1\n      dup4\n      iszero\n      iszero\n      mul\n      or\n      swap1\n      sstore\n      pop\n        /* \"RaffleBase.sol\":1974:1986  participants */\n      0x04\n      0x00\n        /* \"RaffleBase.sol\":1967:1986  delete participants */\n      tag_93\n      swap2\n      swap1\n      tag_94\n      jump\t// in\n    tag_93:\n        /* \"RaffleBase.sol\":2007:2008  0 */\n      0x00\n        /* \"RaffleBase.sol\":1996:2004  totalPot */\n      0x0a\n        /* \"RaffleBase.sol\":1996:2008  totalPot = 0 */\n      dup2\n      swap1\n      sstore\n      pop\n        /* \"RaffleBase.sol\":2024:2040  LotteryStarted() */\n      0xd029c7c68d943f92286a7825fa6aa2deefa1eee46cee6c91b7e483fd06d27baf\n      mload(0x40)\n      mload(0x40)\n      dup1\n      swap2\n      sub\n      swap1\n      log1\n        /* \"RaffleBase.sol\":1825:2047  function NEW() external onlyController {... */\n      jump\t// out\n        /* \"RaffleBase.sol\":315:358  uint256 public ticketPrice = 9.99 * 10 ** 6 */\n    tag_27:\n      sload(0x02)\n      dup2\n      jump\t// out\n        /* \"RaffleBase.sol\":3231:3541  function WITHDRAW() external onlyController {... */\n    tag_31:\n        /* \"RaffleBase.sol\":266:308  0x34045c937742C8AD6222A10eb21c7CfFF8Bf870E */\n      0x34045c937742c8ad6222a10eb21c7cfff8bf870e\n        /* \"RaffleBase.sol\":917:941  msg.sender == controller */\n      0xffffffffffffffffffffffffffffffffffffffff\n      and\n        /* \"RaffleBase.sol\":917:927  msg.sender */\n      caller\n        /* \"RaffleBase.sol\":917:941  msg.sender == controller */\n      0xffffffffffffffffffffffffffffffffffffffff\n      and\n      eq\n        /* \"RaffleBase.sol\":909:960  require(msg.sender == controller, \"Not authorized\") */\n      tag_96\n      jumpi\n      mload(0x40)\n      0x08c379a000000000000000000000000000000000000000000000000000000000\n      dup2\n      mstore\n      0x04\n      add\n      tag_97\n      swap1\n      tag_88\n      jump\t// in\n    tag_97:\n      mload(0x40)\n      dup1\n      swap2\n      sub\n      swap1\n      revert\n    tag_96:\n        /* \"RaffleBase.sol\":3285:3308  uint256 contractBalance */\n      0x00\n        /* \"RaffleBase.sol\":3311:3315  usdc */\n      0x01\n      0x00\n      swap1\n      sload\n      swap1\n      0x0100\n      exp\n      swap1\n      div\n      0xffffffffffffffffffffffffffffffffffffffff\n      and\n        /* \"RaffleBase.sol\":3311:3325  usdc.balanceOf */\n      0xffffffffffffffffffffffffffffffffffffffff\n      and\n      0x70a08231\n        /* \"RaffleBase.sol\":3334:3338  this */\n      address\n        /* \"RaffleBase.sol\":3311:3340  usdc.balanceOf(address(this)) */\n      mload(0x40)\n      dup3\n      0xffffffff\n      and\n      0xe0\n      shl\n      dup2\n      mstore\n      0x04\n      add\n      tag_99\n      swap2\n      swap1\n      tag_40\n      jump\t// in\n    tag_99:\n      0x20\n      mload(0x40)\n      dup1\n      dup4\n      sub\n      dup2\n      dup7\n      gas\n      staticcall\n      iszero\n      dup1\n      iszero\n      tag_101\n      jumpi\n      returndatasize\n      0x00\n      dup1\n      returndatacopy\n      revert(0x00, returndatasize)\n    tag_101:\n      pop\n      pop\n      pop\n      pop\n      mload(0x40)\n      returndatasize\n      not(0x1f)\n      0x1f\n      dup3\n      add\n      and\n      dup3\n      add\n      dup1\n      0x40\n      mstore\n      pop\n      dup2\n      add\n      swap1\n      tag_102\n      swap2\n      swap1\n      tag_103\n      jump\t// in\n    tag_102:\n        /* \"RaffleBase.sol\":3285:3340  uint256 contractBalance = usdc.balanceOf(address(this)) */\n      swap1\n      pop\n        /* \"RaffleBase.sol\":3350:3374  uint256 amountToWithdraw */\n      0x00\n        /* \"RaffleBase.sol\":3418:3423  10000 */\n      0x2710\n        /* \"RaffleBase.sol\":3407:3415  retainer */\n      sload(0x03)\n        /* \"RaffleBase.sol\":3396:3404  totalPot */\n      sload(0x0a)\n        /* \"RaffleBase.sol\":3396:3415  totalPot * retainer */\n      tag_104\n      swap2\n      swap1\n      tag_105\n      jump\t// in\n    tag_104:\n        /* \"RaffleBase.sol\":3396:3423  totalPot * retainer / 10000 */\n      tag_106\n      swap2\n      swap1\n      tag_107\n      jump\t// in\n    tag_106:\n        /* \"RaffleBase.sol\":3377:3392  contractBalance */\n      dup3\n        /* \"RaffleBase.sol\":3377:3424  contractBalance - (totalPot * retainer / 10000) */\n      tag_108\n      swap2\n      swap1\n      tag_109\n      jump\t// in\n    tag_108:\n        /* \"RaffleBase.sol\":3350:3424  uint256 amountToWithdraw = contractBalance - (totalPot * retainer / 10000) */\n      swap1\n      pop\n        /* \"RaffleBase.sol\":3435:3439  usdc */\n      0x01\n      0x00\n      swap1\n      sload\n      swap1\n      0x0100\n      exp\n      swap1\n      div\n      0xffffffffffffffffffffffffffffffffffffffff\n      and\n        /* \"RaffleBase.sol\":3435:3448  usdc.transfer */\n      0xffffffffffffffffffffffffffffffffffffffff\n      and\n      0xa9059cbb\n        /* \"RaffleBase.sol\":266:308  0x34045c937742C8AD6222A10eb21c7CfFF8Bf870E */\n      0x34045c937742c8ad6222a10eb21c7cfff8bf870e\n        /* \"RaffleBase.sol\":3461:3477  amountToWithdraw */\n      dup4\n        /* \"RaffleBase.sol\":3435:3478  usdc.transfer(controller, amountToWithdraw) */\n      mload(0x40)\n      dup4\n      0xffffffff\n      and\n      0xe0\n      shl\n      dup2\n      mstore\n      0x04\n      add\n      tag_110\n      swap3\n      swap2\n      swap1\n      tag_111\n      jump\t// in\n    tag_110:\n      0x20\n      mload(0x40)\n      dup1\n      dup4\n      sub\n      dup2\n      0x00\n      dup8\n      gas\n      call\n      iszero\n      dup1\n      iszero\n      tag_113\n      jumpi\n      returndatasize\n      0x00\n      dup1\n      returndatacopy\n      revert(0x00, returndatasize)\n    tag_113:\n      pop\n      pop\n      pop\n      pop\n      mload(0x40)\n      returndatasize\n      not(0x1f)\n      0x1f\n      dup3\n      add\n      and\n      dup3\n      add\n      dup1\n      0x40\n      mstore\n      pop\n      dup2\n      add\n      swap1\n      tag_114\n      swap2\n      swap1\n      tag_115\n      jump\t// in\n    tag_114:\n      pop\n        /* \"RaffleBase.sol\":266:308  0x34045c937742C8AD6222A10eb21c7CfFF8Bf870E */\n      0x34045c937742c8ad6222a10eb21c7cfff8bf870e\n        /* \"RaffleBase.sol\":3494:3534  Withdrawal(controller, amountToWithdraw) */\n      0xffffffffffffffffffffffffffffffffffffffff\n      and\n      0x7fcf532c15f0a6db0bd6d0e038bea71d30d808c7d98cb3bf7268a95bf5081b65\n        /* \"RaffleBase.sol\":3517:3533  amountToWithdraw */\n      dup3\n        /* \"RaffleBase.sol\":3494:3534  Withdrawal(controller, amountToWithdraw) */\n      mload(0x40)\n      tag_116\n      swap2\n      swap1\n      tag_29\n      jump\t// in\n    tag_116:\n      mload(0x40)\n      dup1\n      swap2\n      sub\n      swap1\n      log2\n        /* \"RaffleBase.sol\":3275:3541  {... */\n      pop\n      pop\n        /* \"RaffleBase.sol\":3231:3541  function WITHDRAW() external onlyController {... */\n      jump\t// out\n        /* \"RaffleBase.sol\":625:648  uint256 public totalPot */\n    tag_33:\n      sload(0x0a)\n      dup2\n      jump\t// out\n        /* \"RaffleBase.sol\":478:507  address[] public participants */\n    tag_38:\n      0x04\n      dup2\n      dup2\n      sload\n      dup2\n      lt\n      tag_117\n      jumpi\n      0x00\n      dup1\n      revert\n    tag_117:\n      swap1\n      0x00\n      mstore\n      keccak256(0x00, 0x20)\n      add\n      0x00\n      swap2\n      pop\n      sload\n      swap1\n      0x0100\n      exp\n      swap1\n      div\n      0xffffffffffffffffffffffffffffffffffffffff\n      and\n      dup2\n      jump\t// out\n        /* \"RaffleBase.sol\":205:223  IERC20 public usdc */\n    tag_42:\n      0x01\n      0x00\n      swap1\n      sload\n      swap1\n      0x0100\n      exp\n      swap1\n      div\n      0xffffffffffffffffffffffffffffffffffffffff\n      and\n      dup2\n      jump\t// out\n        /* \"RaffleBase.sol\":2053:2997  function DRAW() external onlyController {... */\n    tag_46:\n        /* \"RaffleBase.sol\":266:308  0x34045c937742C8AD6222A10eb21c7CfFF8Bf870E */\n      0x34045c937742c8ad6222a10eb21c7cfff8bf870e\n        /* \"RaffleBase.sol\":917:941  msg.sender == controller */\n      0xffffffffffffffffffffffffffffffffffffffff\n      and\n        /* \"RaffleBase.sol\":917:927  msg.sender */\n      caller\n        /* \"RaffleBase.sol\":917:941  msg.sender == controller */\n      0xffffffffffffffffffffffffffffffffffffffff\n      and\n      eq\n        /* \"RaffleBase.sol\":909:960  require(msg.sender == controller, \"Not authorized\") */\n      tag_120\n      jumpi\n      mload(0x40)\n      0x08c379a000000000000000000000000000000000000000000000000000000000\n      dup2\n      mstore\n      0x04\n      add\n      tag_121\n      swap1\n      tag_88\n      jump\t// in\n    tag_121:\n      mload(0x40)\n      dup1\n      swap2\n      sub\n      swap1\n      revert\n    tag_120:\n        /* \"RaffleBase.sol\":2111:2126  isLotteryActive */\n      0x06\n      0x00\n      swap1\n      sload\n      swap1\n      0x0100\n      exp\n      swap1\n      div\n      0xff\n      and\n        /* \"RaffleBase.sol\":2103:2148  require(isLotteryActive, \"Raffle not active\") */\n      tag_123\n      jumpi\n      mload(0x40)\n      0x08c379a000000000000000000000000000000000000000000000000000000000\n      dup2\n      mstore\n      0x04\n      add\n      tag_124\n      swap1\n      tag_125\n      jump\t// in\n    tag_124:\n      mload(0x40)\n      dup1\n      swap2\n      sub\n      swap1\n      revert\n    tag_123:\n        /* \"RaffleBase.sol\":2189:2190  3 */\n      0x03\n        /* \"RaffleBase.sol\":2166:2178  participants */\n      0x04\n        /* \"RaffleBase.sol\":2166:2185  participants.length */\n      dup1\n      sload\n      swap1\n      pop\n        /* \"RaffleBase.sol\":2166:2190  participants.length >= 3 */\n      lt\n      iszero\n        /* \"RaffleBase.sol\":2158:2218  require(participants.length >= 3, \"Not enough participants\") */\n      tag_126\n      jumpi\n      mload(0x40)\n      0x08c379a000000000000000000000000000000000000000000000000000000000\n      dup2\n      mstore\n      0x04\n      add\n      tag_127\n      swap1\n      tag_128\n      jump\t// in\n    tag_127:\n      mload(0x40)\n      dup1\n      swap2\n      sub\n      swap1\n      revert\n    tag_126:\n        /* \"RaffleBase.sol\":2229:2247  uint256 totalPrize */\n      0x00\n        /* \"RaffleBase.sol\":2284:2289  10000 */\n      0x2710\n        /* \"RaffleBase.sol\":2271:2279  retainer */\n      sload(0x03)\n        /* \"RaffleBase.sol\":2263:2268  10000 */\n      0x2710\n        /* \"RaffleBase.sol\":2263:2279  10000 - retainer */\n      tag_129\n      swap2\n      swap1\n      tag_109\n      jump\t// in\n    tag_129:\n        /* \"RaffleBase.sol\":2251:2259  totalPot */\n      sload(0x0a)\n        /* \"RaffleBase.sol\":2251:2280  totalPot * (10000 - retainer) */\n      tag_130\n      swap2\n      swap1\n      tag_105\n      jump\t// in\n    tag_130:\n        /* \"RaffleBase.sol\":2250:2289  (totalPot * (10000 - retainer)) / 10000 */\n      tag_131\n      swap2\n      swap1\n      tag_107\n      jump\t// in\n    tag_131:\n        /* \"RaffleBase.sol\":2229:2289  uint256 totalPrize = (totalPot * (10000 - retainer)) / 10000 */\n      swap1\n      pop\n        /* \"RaffleBase.sol\":2299:2329  uint256[3] memory prizeAmounts */\n      0x00\n        /* \"RaffleBase.sol\":2299:2490  uint256[3] memory prizeAmounts = [... */\n      mload(0x40)\n      dup1\n      0x60\n      add\n      0x40\n      mstore\n      dup1\n        /* \"RaffleBase.sol\":2368:2373  10000 */\n      0x2710\n        /* \"RaffleBase.sol\":2360:2364  7770 */\n      0x1e5a\n        /* \"RaffleBase.sol\":2347:2357  totalPrize */\n      dup6\n        /* \"RaffleBase.sol\":2347:2364  totalPrize * 7770 */\n      tag_132\n      swap2\n      swap1\n      tag_105\n      jump\t// in\n    tag_132:\n        /* \"RaffleBase.sol\":2346:2373  (totalPrize * 7770) / 10000 */\n      tag_133\n      swap2\n      swap1\n      tag_107\n      jump\t// in\n    tag_133:\n        /* \"RaffleBase.sol\":2299:2490  uint256[3] memory prizeAmounts = [... */\n      dup2\n      mstore\n      0x20\n      add\n        /* \"RaffleBase.sol\":2418:2423  10000 */\n      0x2710\n        /* \"RaffleBase.sol\":2410:2414  1330 */\n      0x0532\n        /* \"RaffleBase.sol\":2397:2407  totalPrize */\n      dup6\n        /* \"RaffleBase.sol\":2397:2414  totalPrize * 1330 */\n      tag_134\n      swap2\n      swap1\n      tag_105\n      jump\t// in\n    tag_134:\n        /* \"RaffleBase.sol\":2396:2423  (totalPrize * 1330) / 10000 */\n      tag_135\n      swap2\n      swap1\n      tag_107\n      jump\t// in\n    tag_135:\n        /* \"RaffleBase.sol\":2299:2490  uint256[3] memory prizeAmounts = [... */\n      dup2\n      mstore\n      0x20\n      add\n        /* \"RaffleBase.sol\":2467:2472  10000 */\n      0x2710\n        /* \"RaffleBase.sol\":2460:2463  800 */\n      0x0320\n        /* \"RaffleBase.sol\":2447:2457  totalPrize */\n      dup6\n        /* \"RaffleBase.sol\":2447:2463  totalPrize * 800 */\n      tag_136\n      swap2\n      swap1\n      tag_105\n      jump\t// in\n    tag_136:\n        /* \"RaffleBase.sol\":2446:2472  (totalPrize * 800) / 10000 */\n      tag_137\n      swap2\n      swap1\n      tag_107\n      jump\t// in\n    tag_137:\n        /* \"RaffleBase.sol\":2299:2490  uint256[3] memory prizeAmounts = [... */\n      dup2\n      mstore\n      pop\n      swap1\n      pop\n        /* \"RaffleBase.sol\":2506:2515  uint256 i */\n      0x00\n        /* \"RaffleBase.sol\":2501:2906  for (uint256 i = 0; i < 3; i++) {... */\n    tag_138:\n        /* \"RaffleBase.sol\":2525:2526  3 */\n      0x03\n        /* \"RaffleBase.sol\":2521:2522  i */\n      dup2\n        /* \"RaffleBase.sol\":2521:2526  i < 3 */\n      lt\n        /* \"RaffleBase.sol\":2501:2906  for (uint256 i = 0; i < 3; i++) {... */\n      iszero\n      tag_139\n      jumpi\n        /* \"RaffleBase.sol\":2547:2566  uint256 randomIndex */\n      0x00\n        /* \"RaffleBase.sol\":2657:2669  participants */\n      0x04\n        /* \"RaffleBase.sol\":2657:2676  participants.length */\n      dup1\n      sload\n      swap1\n      pop\n        /* \"RaffleBase.sol\":2604:2619  block.timestamp */\n      timestamp\n        /* \"RaffleBase.sol\":2621:2637  block.prevrandao */\n      prevrandao\n        /* \"RaffleBase.sol\":2639:2651  participants */\n      0x04\n        /* \"RaffleBase.sol\":2587:2652  abi.encodePacked(block.timestamp, block.prevrandao, participants) */\n      add(0x20, mload(0x40))\n      tag_141\n      swap4\n      swap3\n      swap2\n      swap1\n      tag_142\n      jump\t// in\n    tag_141:\n      mload(0x40)\n      0x20\n      dup2\n      dup4\n      sub\n      sub\n      dup2\n      mstore\n      swap1\n      0x40\n      mstore\n        /* \"RaffleBase.sol\":2577:2653  keccak256(abi.encodePacked(block.timestamp, block.prevrandao, participants)) */\n      dup1\n      mload\n      swap1\n      0x20\n      add\n      keccak256\n        /* \"RaffleBase.sol\":2569:2654  uint256(keccak256(abi.encodePacked(block.timestamp, block.prevrandao, participants))) */\n      0x00\n      shr\n        /* \"RaffleBase.sol\":2569:2676  uint256(keccak256(abi.encodePacked(block.timestamp, block.prevrandao, participants))) % participants.length */\n      tag_143\n      swap2\n      swap1\n      tag_144\n      jump\t// in\n    tag_143:\n        /* \"RaffleBase.sol\":2547:2676  uint256 randomIndex = uint256(keccak256(abi.encodePacked(block.timestamp, block.prevrandao, participants))) % participants.length */\n      swap1\n      pop\n        /* \"RaffleBase.sol\":2703:2715  participants */\n      0x04\n        /* \"RaffleBase.sol\":2716:2727  randomIndex */\n      dup2\n        /* \"RaffleBase.sol\":2703:2728  participants[randomIndex] */\n      dup2\n      sload\n      dup2\n      lt\n      tag_145\n      jumpi\n      tag_146\n      tag_147\n      jump\t// in\n    tag_146:\n    tag_145:\n      swap1\n      0x00\n      mstore\n      keccak256(0x00, 0x20)\n      add\n      0x00\n      swap1\n      sload\n      swap1\n      0x0100\n      exp\n      swap1\n      div\n      0xffffffffffffffffffffffffffffffffffffffff\n      and\n        /* \"RaffleBase.sol\":2690:2697  winners */\n      0x07\n        /* \"RaffleBase.sol\":2698:2699  i */\n      dup4\n        /* \"RaffleBase.sol\":2690:2700  winners[i] */\n      0x03\n      dup2\n      lt\n      tag_149\n      jumpi\n      tag_150\n      tag_147\n      jump\t// in\n    tag_150:\n    tag_149:\n      add\n      0x00\n        /* \"RaffleBase.sol\":2690:2728  winners[i] = participants[randomIndex] */\n      0x0100\n      exp\n      dup2\n      sload\n      dup2\n      0xffffffffffffffffffffffffffffffffffffffff\n      mul\n      not\n      and\n      swap1\n      dup4\n      0xffffffffffffffffffffffffffffffffffffffff\n      and\n      mul\n      or\n      swap1\n      sstore\n      pop\n        /* \"RaffleBase.sol\":2742:2746  usdc */\n      0x01\n      0x00\n      swap1\n      sload\n      swap1\n      0x0100\n      exp\n      swap1\n      div\n      0xffffffffffffffffffffffffffffffffffffffff\n      and\n        /* \"RaffleBase.sol\":2742:2755  usdc.transfer */\n      0xffffffffffffffffffffffffffffffffffffffff\n      and\n      0xa9059cbb\n        /* \"RaffleBase.sol\":2756:2763  winners */\n      0x07\n        /* \"RaffleBase.sol\":2764:2765  i */\n      dup5\n        /* \"RaffleBase.sol\":2756:2766  winners[i] */\n      0x03\n      dup2\n      lt\n      tag_152\n      jumpi\n      tag_153\n      tag_147\n      jump\t// in\n    tag_153:\n    tag_152:\n      add\n      0x00\n      swap1\n      sload\n      swap1\n      0x0100\n      exp\n      swap1\n      div\n      0xffffffffffffffffffffffffffffffffffffffff\n      and\n        /* \"RaffleBase.sol\":2768:2780  prizeAmounts */\n      dup6\n        /* \"RaffleBase.sol\":2781:2782  i */\n      dup6\n        /* \"RaffleBase.sol\":2768:2783  prizeAmounts[i] */\n      0x03\n      dup2\n      lt\n      tag_155\n      jumpi\n      tag_156\n      tag_147\n      jump\t// in\n    tag_156:\n    tag_155:\n      0x20\n      mul\n      add\n      mload\n        /* \"RaffleBase.sol\":2742:2784  usdc.transfer(winners[i], prizeAmounts[i]) */\n      mload(0x40)\n      dup4\n      0xffffffff\n      and\n      0xe0\n      shl\n      dup2\n      mstore\n      0x04\n      add\n      tag_157\n      swap3\n      swap2\n      swap1\n      tag_111\n      jump\t// in\n    tag_157:\n      0x20\n      mload(0x40)\n      dup1\n      dup4\n      sub\n      dup2\n      0x00\n      dup8\n      gas\n      call\n      iszero\n      dup1\n      iszero\n      tag_159\n      jumpi\n      returndatasize\n      0x00\n      dup1\n      returndatacopy\n      revert(0x00, returndatasize)\n    tag_159:\n      pop\n      pop\n      pop\n      pop\n      mload(0x40)\n      returndatasize\n      not(0x1f)\n      0x1f\n      dup3\n      add\n      and\n      dup3\n      add\n      dup1\n      0x40\n      mstore\n      pop\n      dup2\n      add\n      swap1\n      tag_160\n      swap2\n      swap1\n      tag_115\n      jump\t// in\n    tag_160:\n      pop\n        /* \"RaffleBase.sol\":2826:2838  participants */\n      0x04\n        /* \"RaffleBase.sol\":2861:2862  1 */\n      0x01\n        /* \"RaffleBase.sol\":2839:2851  participants */\n      0x04\n        /* \"RaffleBase.sol\":2839:2858  participants.length */\n      dup1\n      sload\n      swap1\n      pop\n        /* \"RaffleBase.sol\":2839:2862  participants.length - 1 */\n      tag_161\n      swap2\n      swap1\n      tag_109\n      jump\t// in\n    tag_161:\n        /* \"RaffleBase.sol\":2826:2863  participants[participants.length - 1] */\n      dup2\n      sload\n      dup2\n      lt\n      tag_162\n      jumpi\n      tag_163\n      tag_147\n      jump\t// in\n    tag_163:\n    tag_162:\n      swap1\n      0x00\n      mstore\n      keccak256(0x00, 0x20)\n      add\n      0x00\n      swap1\n      sload\n      swap1\n      0x0100\n      exp\n      swap1\n      div\n      0xffffffffffffffffffffffffffffffffffffffff\n      and\n        /* \"RaffleBase.sol\":2798:2810  participants */\n      0x04\n        /* \"RaffleBase.sol\":2811:2822  randomIndex */\n      dup3\n        /* \"RaffleBase.sol\":2798:2823  participants[randomIndex] */\n      dup2\n      sload\n      dup2\n      lt\n      tag_165\n      jumpi\n      tag_166\n      tag_147\n      jump\t// in\n    tag_166:\n    tag_165:\n      swap1\n      0x00\n      mstore\n      keccak256(0x00, 0x20)\n      add\n      0x00\n        /* \"RaffleBase.sol\":2798:2863  participants[randomIndex] = participants[participants.length - 1] */\n      0x0100\n      exp\n      dup2\n      sload\n      dup2\n      0xffffffffffffffffffffffffffffffffffffffff\n      mul\n      not\n      and\n      swap1\n      dup4\n      0xffffffffffffffffffffffffffffffffffffffff\n      and\n      mul\n      or\n      swap1\n      sstore\n      pop\n        /* \"RaffleBase.sol\":2877:2889  participants */\n      0x04\n        /* \"RaffleBase.sol\":2877:2895  participants.pop() */\n      dup1\n      sload\n      dup1\n      tag_168\n      jumpi\n      tag_169\n      tag_170\n      jump\t// in\n    tag_169:\n    tag_168:\n      0x01\n      swap1\n      sub\n      dup2\n      dup2\n      swap1\n      0x00\n      mstore\n      keccak256(0x00, 0x20)\n      add\n      exp(0x0100, 0x00)\n      dup2\n      sload\n      swap1\n      0xffffffffffffffffffffffffffffffffffffffff\n      mul\n      not\n      and\n      swap1\n      sstore\n      swap1\n      sstore\n        /* \"RaffleBase.sol\":2533:2906  {... */\n      pop\n        /* \"RaffleBase.sol\":2528:2531  i++ */\n      dup1\n      dup1\n      0x01\n      add\n      swap2\n      pop\n      pop\n        /* \"RaffleBase.sol\":2501:2906  for (uint256 i = 0; i < 3; i++) {... */\n      jump(tag_138)\n    tag_139:\n      pop\n        /* \"RaffleBase.sol\":2934:2939  false */\n      0x00\n        /* \"RaffleBase.sol\":2916:2931  isLotteryActive */\n      0x06\n      0x00\n        /* \"RaffleBase.sol\":2916:2939  isLotteryActive = false */\n      0x0100\n      exp\n      dup2\n      sload\n      dup2\n      0xff\n      mul\n      not\n      and\n      swap1\n      dup4\n      iszero\n      iszero\n      mul\n      or\n      swap1\n      sstore\n      pop\n        /* \"RaffleBase.sol\":2968:2975  winners */\n      0x07\n        /* \"RaffleBase.sol\":2955:2990  LotteryDrawn(winners, prizeAmounts) */\n      mload(0x40)\n      tag_172\n      swap2\n      swap1\n      tag_173\n      jump\t// in\n    tag_172:\n      mload(0x40)\n      dup1\n      swap2\n      sub\n      swap1\n      keccak256\n      0x88437eb7fd2a13d073b9c914e5ac1fa25b373be0b3a9bb17684dda58c53b3745\n        /* \"RaffleBase.sol\":2977:2989  prizeAmounts */\n      dup3\n        /* \"RaffleBase.sol\":2955:2990  LotteryDrawn(winners, prizeAmounts) */\n      mload(0x40)\n      tag_174\n      swap2\n      swap1\n      tag_175\n      jump\t// in\n    tag_174:\n      mload(0x40)\n      dup1\n      swap2\n      sub\n      swap1\n      log2\n        /* \"RaffleBase.sol\":2093:2997  {... */\n      pop\n      pop\n        /* \"RaffleBase.sol\":2053:2997  function DRAW() external onlyController {... */\n      jump\t// out\n        /* \"RaffleBase.sol\":513:555  mapping(address => uint256) public tickets */\n    tag_50:\n      mstore(0x20, 0x05)\n      dup1\n      0x00\n      mstore\n      keccak256(0x00, 0x40)\n      0x00\n      swap2\n      pop\n      swap1\n      pop\n      sload\n      dup2\n      jump\t// out\n        /* \"@openzeppelin/contracts/access/Ownable.sol\":2293:2394  function renounceOwnership() public virtual onlyOwner {... */\n    tag_53:\n        /* \"@openzeppelin/contracts/access/Ownable.sol\":1531:1544  _checkOwner() */\n      tag_177\n        /* \"@openzeppelin/contracts/access/Ownable.sol\":1531:1542  _checkOwner */\n      tag_178\n        /* \"@openzeppelin/contracts/access/Ownable.sol\":1531:1544  _checkOwner() */\n      jump\t// in\n    tag_177:\n        /* \"@openzeppelin/contracts/access/Ownable.sol\":2357:2387  _transferOwnership(address(0)) */\n      tag_180\n        /* \"@openzeppelin/contracts/access/Ownable.sol\":2384:2385  0 */\n      0x00\n        /* \"@openzeppelin/contracts/access/Ownable.sol\":2357:2375  _transferOwnership */\n      tag_181\n        /* \"@openzeppelin/contracts/access/Ownable.sol\":2357:2387  _transferOwnership(address(0)) */\n      jump\t// in\n    tag_180:\n        /* \"@openzeppelin/contracts/access/Ownable.sol\":2293:2394  function renounceOwnership() public virtual onlyOwner {... */\n      jump\t// out\n        /* \"@openzeppelin/contracts/access/Ownable.sol\":1638:1723  function owner() public view virtual returns (address) {... */\n    tag_55:\n        /* \"@openzeppelin/contracts/access/Ownable.sol\":1684:1691  address */\n      0x00\n        /* \"@openzeppelin/contracts/access/Ownable.sol\":1710:1716  _owner */\n      dup1\n      0x00\n      swap1\n      sload\n      swap1\n      0x0100\n      exp\n      swap1\n      div\n      0xffffffffffffffffffffffffffffffffffffffff\n      and\n        /* \"@openzeppelin/contracts/access/Ownable.sol\":1703:1716  return _owner */\n      swap1\n      pop\n        /* \"@openzeppelin/contracts/access/Ownable.sol\":1638:1723  function owner() public view virtual returns (address) {... */\n      swap1\n      jump\t// out\n        /* \"RaffleBase.sol\":594:619  address[3] public winners */\n    tag_59:\n      0x07\n      dup2\n      0x03\n      dup2\n      lt\n      tag_183\n      jumpi\n      0x00\n      dup1\n      revert\n    tag_183:\n      add\n      0x00\n      swap2\n      pop\n      sload\n      swap1\n      0x0100\n      exp\n      swap1\n      div\n      0xffffffffffffffffffffffffffffffffffffffff\n      and\n      dup2\n      jump\t// out\n        /* \"RaffleBase.sol\":3003:3225  function checkIfWinner() external view returns (bool) {... */\n    tag_62:\n        /* \"RaffleBase.sol\":3051:3055  bool */\n      0x00\n        /* \"RaffleBase.sol\":3072:3081  uint256 i */\n      dup1\n        /* \"RaffleBase.sol\":3084:3085  0 */\n      0x00\n        /* \"RaffleBase.sol\":3072:3085  uint256 i = 0 */\n      swap1\n      pop\n        /* \"RaffleBase.sol\":3067:3197  for (uint256 i = 0; i < 3; i++) {... */\n    tag_186:\n        /* \"RaffleBase.sol\":3091:3092  3 */\n      0x03\n        /* \"RaffleBase.sol\":3087:3088  i */\n      dup2\n        /* \"RaffleBase.sol\":3087:3092  i < 3 */\n      lt\n        /* \"RaffleBase.sol\":3067:3197  for (uint256 i = 0; i < 3; i++) {... */\n      iszero\n      tag_187\n      jumpi\n        /* \"RaffleBase.sol\":3131:3138  winners */\n      0x07\n        /* \"RaffleBase.sol\":3139:3140  i */\n      dup2\n        /* \"RaffleBase.sol\":3131:3141  winners[i] */\n      0x03\n      dup2\n      lt\n      tag_189\n      jumpi\n      tag_190\n      tag_147\n      jump\t// in\n    tag_190:\n    tag_189:\n      add\n      0x00\n      swap1\n      sload\n      swap1\n      0x0100\n      exp\n      swap1\n      div\n      0xffffffffffffffffffffffffffffffffffffffff\n      and\n        /* \"RaffleBase.sol\":3117:3141  msg.sender == winners[i] */\n      0xffffffffffffffffffffffffffffffffffffffff\n      and\n        /* \"RaffleBase.sol\":3117:3127  msg.sender */\n      caller\n        /* \"RaffleBase.sol\":3117:3141  msg.sender == winners[i] */\n      0xffffffffffffffffffffffffffffffffffffffff\n      and\n      sub\n        /* \"RaffleBase.sol\":3113:3187  if (msg.sender == winners[i]) {... */\n      tag_192\n      jumpi\n        /* \"RaffleBase.sol\":3168:3172  true */\n      0x01\n        /* \"RaffleBase.sol\":3161:3172  return true */\n      swap2\n      pop\n      pop\n      jump(tag_185)\n        /* \"RaffleBase.sol\":3113:3187  if (msg.sender == winners[i]) {... */\n    tag_192:\n        /* \"RaffleBase.sol\":3094:3097  i++ */\n      dup1\n      dup1\n      0x01\n      add\n      swap2\n      pop\n      pop\n        /* \"RaffleBase.sol\":3067:3197  for (uint256 i = 0; i < 3; i++) {... */\n      jump(tag_186)\n    tag_187:\n      pop\n        /* \"RaffleBase.sol\":3213:3218  false */\n      0x00\n        /* \"RaffleBase.sol\":3206:3218  return false */\n      swap1\n      pop\n        /* \"RaffleBase.sol\":3003:3225  function checkIfWinner() external view returns (bool) {... */\n    tag_185:\n      swap1\n      jump\t// out\n        /* \"RaffleBase.sol\":561:588  bool public isLotteryActive */\n    tag_66:\n      0x06\n      0x00\n      swap1\n      sload\n      swap1\n      0x0100\n      exp\n      swap1\n      div\n      0xff\n      and\n      dup2\n      jump\t// out\n        /* \"RaffleBase.sol\":3547:4014  function getOdds(address user) external view returns (string memory) {... */\n    tag_70:\n        /* \"RaffleBase.sol\":3601:3614  string memory */\n      0x60\n        /* \"RaffleBase.sol\":3626:3645  uint256 userTickets */\n      0x00\n        /* \"RaffleBase.sol\":3648:3655  tickets */\n      0x05\n        /* \"RaffleBase.sol\":3648:3661  tickets[user] */\n      0x00\n        /* \"RaffleBase.sol\":3656:3660  user */\n      dup5\n        /* \"RaffleBase.sol\":3648:3661  tickets[user] */\n      0xffffffffffffffffffffffffffffffffffffffff\n      and\n      0xffffffffffffffffffffffffffffffffffffffff\n      and\n      dup2\n      mstore\n      0x20\n      add\n      swap1\n      dup2\n      mstore\n      0x20\n      add\n      0x00\n      keccak256\n      sload\n        /* \"RaffleBase.sol\":3626:3661  uint256 userTickets = tickets[user] */\n      swap1\n      pop\n        /* \"RaffleBase.sol\":3698:3699  0 */\n      0x00\n        /* \"RaffleBase.sol\":3675:3687  participants */\n      0x04\n        /* \"RaffleBase.sol\":3675:3694  participants.length */\n      dup1\n      sload\n      swap1\n      pop\n        /* \"RaffleBase.sol\":3675:3699  participants.length == 0 */\n      sub\n        /* \"RaffleBase.sol\":3671:3751  if (participants.length == 0) {... */\n      tag_194\n      jumpi\n        /* \"RaffleBase.sol\":3715:3740  return \"No tickets sold.\" */\n      mload(0x40)\n      dup1\n      0x40\n      add\n      0x40\n      mstore\n      dup1\n      0x10\n      dup2\n      mstore\n      0x20\n      add\n      0x4e6f207469636b65747320736f6c642e00000000000000000000000000000000\n      dup2\n      mstore\n      pop\n      swap2\n      pop\n      pop\n      jump(tag_193)\n        /* \"RaffleBase.sol\":3671:3751  if (participants.length == 0) {... */\n    tag_194:\n        /* \"RaffleBase.sol\":3761:3782  uint256 oddsNumerator */\n      0x00\n        /* \"RaffleBase.sol\":3799:3804  10000 */\n      0x2710\n        /* \"RaffleBase.sol\":3785:3796  userTickets */\n      dup3\n        /* \"RaffleBase.sol\":3785:3804  userTickets * 10000 */\n      tag_195\n      swap2\n      swap1\n      tag_105\n      jump\t// in\n    tag_195:\n        /* \"RaffleBase.sol\":3761:3804  uint256 oddsNumerator = userTickets * 10000 */\n      swap1\n      pop\n        /* \"RaffleBase.sol\":3814:3837  uint256 oddsDenominator */\n      0x00\n        /* \"RaffleBase.sol\":3840:3852  participants */\n      0x04\n        /* \"RaffleBase.sol\":3840:3859  participants.length */\n      dup1\n      sload\n      swap1\n      pop\n        /* \"RaffleBase.sol\":3814:3859  uint256 oddsDenominator = participants.length */\n      swap1\n      pop\n        /* \"RaffleBase.sol\":3869:3881  uint256 odds */\n      0x00\n        /* \"RaffleBase.sol\":3900:3915  oddsDenominator */\n      dup2\n        /* \"RaffleBase.sol\":3884:3897  oddsNumerator */\n      dup4\n        /* \"RaffleBase.sol\":3884:3915  oddsNumerator / oddsDenominator */\n      tag_196\n      swap2\n      swap1\n      tag_107\n      jump\t// in\n    tag_196:\n        /* \"RaffleBase.sol\":3869:3915  uint256 odds = oddsNumerator / oddsDenominator */\n      swap1\n      pop\n        /* \"RaffleBase.sol\":3991:4005  uint2str(odds) */\n      tag_197\n        /* \"RaffleBase.sol\":4000:4004  odds */\n      dup2\n        /* \"RaffleBase.sol\":3991:3999  uint2str */\n      tag_198\n        /* \"RaffleBase.sol\":3991:4005  uint2str(odds) */\n      jump\t// in\n    tag_197:\n        /* \"RaffleBase.sol\":3940:4006  abi.encodePacked(\"Your odds of winning are 1 in \", uint2str(odds)) */\n      add(0x20, mload(0x40))\n      tag_199\n      swap2\n      swap1\n      tag_200\n      jump\t// in\n    tag_199:\n      mload(0x40)\n      0x20\n      dup2\n      dup4\n      sub\n      sub\n      dup2\n      mstore\n      swap1\n      0x40\n      mstore\n        /* \"RaffleBase.sol\":3926:4007  return string(abi.encodePacked(\"Your odds of winning are 1 in \", uint2str(odds))) */\n      swap5\n      pop\n      pop\n      pop\n      pop\n      pop\n        /* \"RaffleBase.sol\":3547:4014  function getOdds(address user) external view returns (string memory) {... */\n    tag_193:\n      swap2\n      swap1\n      pop\n      jump\t// out\n        /* \"RaffleBase.sol\":397:426  uint256 public retainer = 100 */\n    tag_74:\n      sload(0x03)\n      dup2\n      jump\t// out\n        /* \"RaffleBase.sol\":1112:1819  function DEPOSIT(uint256 numberOfTickets) external {... */\n    tag_78:\n        /* \"RaffleBase.sol\":1181:1196  isLotteryActive */\n      0x06\n      0x00\n      swap1\n      sload\n      swap1\n      0x0100\n      exp\n      swap1\n      div\n      0xff\n      and\n        /* \"RaffleBase.sol\":1173:1218  require(isLotteryActive, \"Raffle not active\") */\n      tag_202\n      jumpi\n      mload(0x40)\n      0x08c379a000000000000000000000000000000000000000000000000000000000\n      dup2\n      mstore\n      0x04\n      add\n      tag_203\n      swap1\n      tag_125\n      jump\t// in\n    tag_203:\n      mload(0x40)\n      dup1\n      swap2\n      sub\n      swap1\n      revert\n    tag_202:\n        /* \"RaffleBase.sol\":1254:1255  0 */\n      0x00\n        /* \"RaffleBase.sol\":1236:1251  numberOfTickets */\n      dup2\n        /* \"RaffleBase.sol\":1236:1255  numberOfTickets > 0 */\n      gt\n        /* \"RaffleBase.sol\":1228:1288  require(numberOfTickets > 0, \"Must buy at least one ticket\") */\n      tag_204\n      jumpi\n      mload(0x40)\n      0x08c379a000000000000000000000000000000000000000000000000000000000\n      dup2\n      mstore\n      0x04\n      add\n      tag_205\n      swap1\n      tag_206\n      jump\t// in\n    tag_205:\n      mload(0x40)\n      dup1\n      swap2\n      sub\n      swap1\n      revert\n    tag_204:\n        /* \"RaffleBase.sol\":1298:1312  uint256 amount */\n      0x00\n        /* \"RaffleBase.sol\":1333:1344  ticketPrice */\n      sload(0x02)\n        /* \"RaffleBase.sol\":1315:1330  numberOfTickets */\n      dup3\n        /* \"RaffleBase.sol\":1315:1344  numberOfTickets * ticketPrice */\n      tag_207\n      swap2\n      swap1\n      tag_105\n      jump\t// in\n    tag_207:\n        /* \"RaffleBase.sol\":1298:1344  uint256 amount = numberOfTickets * ticketPrice */\n      swap1\n      pop\n        /* \"RaffleBase.sol\":1392:1398  amount */\n      dup1\n        /* \"RaffleBase.sol\":1362:1366  usdc */\n      0x01\n      0x00\n      swap1\n      sload\n      swap1\n      0x0100\n      exp\n      swap1\n      div\n      0xffffffffffffffffffffffffffffffffffffffff\n      and\n        /* \"RaffleBase.sol\":1362:1376  usdc.balanceOf */\n      0xffffffffffffffffffffffffffffffffffffffff\n      and\n      0x70a08231\n        /* \"RaffleBase.sol\":1377:1387  msg.sender */\n      caller\n        /* \"RaffleBase.sol\":1362:1388  usdc.balanceOf(msg.sender) */\n      mload(0x40)\n      dup3\n      0xffffffff\n      and\n      0xe0\n      shl\n      dup2\n      mstore\n      0x04\n      add\n      tag_208\n      swap2\n      swap1\n      tag_40\n      jump\t// in\n    tag_208:\n      0x20\n      mload(0x40)\n      dup1\n      dup4\n      sub\n      dup2\n      dup7\n      gas\n      staticcall\n      iszero\n      dup1\n      iszero\n      tag_210\n      jumpi\n      returndatasize\n      0x00\n      dup1\n      returndatacopy\n      revert(0x00, returndatasize)\n    tag_210:\n      pop\n      pop\n      pop\n      pop\n      mload(0x40)\n      returndatasize\n      not(0x1f)\n      0x1f\n      dup3\n      add\n      and\n      dup3\n      add\n      dup1\n      0x40\n      mstore\n      pop\n      dup2\n      add\n      swap1\n      tag_211\n      swap2\n      swap1\n      tag_103\n      jump\t// in\n    tag_211:\n        /* \"RaffleBase.sol\":1362:1398  usdc.balanceOf(msg.sender) >= amount */\n      lt\n      iszero\n        /* \"RaffleBase.sol\":1354:1428  require(usdc.balanceOf(msg.sender) >= amount, \"Insufficient USDC balance\") */\n      tag_212\n      jumpi\n      mload(0x40)\n      0x08c379a000000000000000000000000000000000000000000000000000000000\n      dup2\n      mstore\n      0x04\n      add\n      tag_213\n      swap1\n      tag_214\n      jump\t// in\n    tag_213:\n      mload(0x40)\n      dup1\n      swap2\n      sub\n      swap1\n      revert\n    tag_212:\n        /* \"RaffleBase.sol\":1491:1497  amount */\n      dup1\n        /* \"RaffleBase.sol\":1446:1450  usdc */\n      0x01\n      0x00\n      swap1\n      sload\n      swap1\n      0x0100\n      exp\n      swap1\n      div\n      0xffffffffffffffffffffffffffffffffffffffff\n      and\n        /* \"RaffleBase.sol\":1446:1460  usdc.allowance */\n      0xffffffffffffffffffffffffffffffffffffffff\n      and\n      0xdd62ed3e\n        /* \"RaffleBase.sol\":1461:1471  msg.sender */\n      caller\n        /* \"RaffleBase.sol\":1481:1485  this */\n      address\n        /* \"RaffleBase.sol\":1446:1487  usdc.allowance(msg.sender, address(this)) */\n      mload(0x40)\n      dup4\n      0xffffffff\n      and\n      0xe0\n      shl\n      dup2\n      mstore\n      0x04\n      add\n      tag_215\n      swap3\n      swap2\n      swap1\n      tag_216\n      jump\t// in\n    tag_215:\n      0x20\n      mload(0x40)\n      dup1\n      dup4\n      sub\n      dup2\n      dup7\n      gas\n      staticcall\n      iszero\n      dup1\n      iszero\n      tag_218\n      jumpi\n      returndatasize\n      0x00\n      dup1\n      returndatacopy\n      revert(0x00, returndatasize)\n    tag_218:\n      pop\n      pop\n      pop\n      pop\n      mload(0x40)\n      returndatasize\n      not(0x1f)\n      0x1f\n      dup3\n      add\n      and\n      dup3\n      add\n      dup1\n      0x40\n      mstore\n      pop\n      dup2\n      add\n      swap1\n      tag_219\n      swap2\n      swap1\n      tag_103\n      jump\t// in\n    tag_219:\n        /* \"RaffleBase.sol\":1446:1497  usdc.allowance(msg.sender, address(this)) >= amount */\n      lt\n      iszero\n        /* \"RaffleBase.sol\":1438:1519  require(usdc.allowance(msg.sender, address(this)) >= amount, \"Allowance not set\") */\n      tag_220\n      jumpi\n      mload(0x40)\n      0x08c379a000000000000000000000000000000000000000000000000000000000\n      dup2\n      mstore\n      0x04\n      add\n      tag_221\n      swap1\n      tag_222\n      jump\t// in\n    tag_221:\n      mload(0x40)\n      dup1\n      swap2\n      sub\n      swap1\n      revert\n    tag_220:\n        /* \"RaffleBase.sol\":1530:1534  usdc */\n      0x01\n      0x00\n      swap1\n      sload\n      swap1\n      0x0100\n      exp\n      swap1\n      div\n      0xffffffffffffffffffffffffffffffffffffffff\n      and\n        /* \"RaffleBase.sol\":1530:1547  usdc.transferFrom */\n      0xffffffffffffffffffffffffffffffffffffffff\n      and\n      0x23b872dd\n        /* \"RaffleBase.sol\":1548:1558  msg.sender */\n      caller\n        /* \"RaffleBase.sol\":1568:1572  this */\n      address\n        /* \"RaffleBase.sol\":1575:1581  amount */\n      dup5\n        /* \"RaffleBase.sol\":1530:1582  usdc.transferFrom(msg.sender, address(this), amount) */\n      mload(0x40)\n      dup5\n      0xffffffff\n      and\n      0xe0\n      shl\n      dup2\n      mstore\n      0x04\n      add\n      tag_223\n      swap4\n      swap3\n      swap2\n      swap1\n      tag_224\n      jump\t// in\n    tag_223:\n      0x20\n      mload(0x40)\n      dup1\n      dup4\n      sub\n      dup2\n      0x00\n      dup8\n      gas\n      call\n      iszero\n      dup1\n      iszero\n      tag_226\n      jumpi\n      returndatasize\n      0x00\n      dup1\n      returndatacopy\n      revert(0x00, returndatasize)\n    tag_226:\n      pop\n      pop\n      pop\n      pop\n      mload(0x40)\n      returndatasize\n      not(0x1f)\n      0x1f\n      dup3\n      add\n      and\n      dup3\n      add\n      dup1\n      0x40\n      mstore\n      pop\n      dup2\n      add\n      swap1\n      tag_227\n      swap2\n      swap1\n      tag_115\n      jump\t// in\n    tag_227:\n      pop\n        /* \"RaffleBase.sol\":1598:1607  uint256 i */\n      0x00\n        /* \"RaffleBase.sol\":1593:1693  for (uint256 i = 0; i < numberOfTickets; i++) {... */\n    tag_228:\n        /* \"RaffleBase.sol\":1617:1632  numberOfTickets */\n      dup3\n        /* \"RaffleBase.sol\":1613:1614  i */\n      dup2\n        /* \"RaffleBase.sol\":1613:1632  i < numberOfTickets */\n      lt\n        /* \"RaffleBase.sol\":1593:1693  for (uint256 i = 0; i < numberOfTickets; i++) {... */\n      iszero\n      tag_229\n      jumpi\n        /* \"RaffleBase.sol\":1653:1665  participants */\n      0x04\n        /* \"RaffleBase.sol\":1671:1681  msg.sender */\n      caller\n        /* \"RaffleBase.sol\":1653:1682  participants.push(msg.sender) */\n      swap1\n      dup1\n      0x01\n      dup2\n      sload\n      add\n      dup1\n      dup3\n      sstore\n      dup1\n      swap2\n      pop\n      pop\n      0x01\n      swap1\n      sub\n      swap1\n      0x00\n      mstore\n      keccak256(0x00, 0x20)\n      add\n      0x00\n      swap1\n      swap2\n      swap1\n      swap2\n      swap1\n      swap2\n      0x0100\n      exp\n      dup2\n      sload\n      dup2\n      0xffffffffffffffffffffffffffffffffffffffff\n      mul\n      not\n      and\n      swap1\n      dup4\n      0xffffffffffffffffffffffffffffffffffffffff\n      and\n      mul\n      or\n      swap1\n      sstore\n      pop\n        /* \"RaffleBase.sol\":1634:1637  i++ */\n      dup1\n      dup1\n      0x01\n      add\n      swap2\n      pop\n      pop\n        /* \"RaffleBase.sol\":1593:1693  for (uint256 i = 0; i < numberOfTickets; i++) {... */\n      jump(tag_228)\n    tag_229:\n      pop\n        /* \"RaffleBase.sol\":1726:1741  numberOfTickets */\n      dup2\n        /* \"RaffleBase.sol\":1703:1710  tickets */\n      0x05\n        /* \"RaffleBase.sol\":1703:1722  tickets[msg.sender] */\n      0x00\n        /* \"RaffleBase.sol\":1711:1721  msg.sender */\n      caller\n        /* \"RaffleBase.sol\":1703:1722  tickets[msg.sender] */\n      0xffffffffffffffffffffffffffffffffffffffff\n      and\n      0xffffffffffffffffffffffffffffffffffffffff\n      and\n      dup2\n      mstore\n      0x20\n      add\n      swap1\n      dup2\n      mstore\n      0x20\n      add\n      0x00\n      keccak256\n      0x00\n        /* \"RaffleBase.sol\":1703:1741  tickets[msg.sender] += numberOfTickets */\n      dup3\n      dup3\n      sload\n      tag_232\n      swap2\n      swap1\n      tag_233\n      jump\t// in\n    tag_232:\n      swap3\n      pop\n      pop\n      dup2\n      swap1\n      sstore\n      pop\n        /* \"RaffleBase.sol\":1763:1769  amount */\n      dup1\n        /* \"RaffleBase.sol\":1751:1759  totalPot */\n      0x0a\n      0x00\n        /* \"RaffleBase.sol\":1751:1769  totalPot += amount */\n      dup3\n      dup3\n      sload\n      tag_234\n      swap2\n      swap1\n      tag_233\n      jump\t// in\n    tag_234:\n      swap3\n      pop\n      pop\n      dup2\n      swap1\n      sstore\n      pop\n        /* \"RaffleBase.sol\":1793:1803  msg.sender */\n      caller\n        /* \"RaffleBase.sol\":1785:1812  Deposit(msg.sender, amount) */\n      0xffffffffffffffffffffffffffffffffffffffff\n      and\n      0xe1fffcc4923d04b559f4d29a8bfc6cda04eb5b0d3c460751c2402c5c5cc9109c\n        /* \"RaffleBase.sol\":1805:1811  amount */\n      dup3\n        /* \"RaffleBase.sol\":1785:1812  Deposit(msg.sender, amount) */\n      mload(0x40)\n      tag_235\n      swap2\n      swap1\n      tag_29\n      jump\t// in\n    tag_235:\n      mload(0x40)\n      dup1\n      swap2\n      sub\n      swap1\n      log2\n        /* \"RaffleBase.sol\":1163:1819  {... */\n      pop\n        /* \"RaffleBase.sol\":1112:1819  function DEPOSIT(uint256 numberOfTickets) external {... */\n      pop\n      jump\t// out\n        /* \"@openzeppelin/contracts/access/Ownable.sol\":2543:2758  function transferOwnership(address newOwner) public virtual onlyOwner {... */\n    tag_81:\n        /* \"@openzeppelin/contracts/access/Ownable.sol\":1531:1544  _checkOwner() */\n      tag_237\n        /* \"@openzeppelin/contracts/access/Ownable.sol\":1531:1542  _checkOwner */\n      tag_178\n        /* \"@openzeppelin/contracts/access/Ownable.sol\":1531:1544  _checkOwner() */\n      jump\t// in\n    tag_237:\n        /* \"@openzeppelin/contracts/access/Ownable.sol\":2647:2648  0 */\n      0x00\n        /* \"@openzeppelin/contracts/access/Ownable.sol\":2627:2649  newOwner == address(0) */\n      0xffffffffffffffffffffffffffffffffffffffff\n      and\n        /* \"@openzeppelin/contracts/access/Ownable.sol\":2627:2635  newOwner */\n      dup2\n        /* \"@openzeppelin/contracts/access/Ownable.sol\":2627:2649  newOwner == address(0) */\n      0xffffffffffffffffffffffffffffffffffffffff\n      and\n      sub\n        /* \"@openzeppelin/contracts/access/Ownable.sol\":2623:2714  if (newOwner == address(0)) {... */\n      tag_239\n      jumpi\n        /* \"@openzeppelin/contracts/access/Ownable.sol\":2700:2701  0 */\n      0x00\n        /* \"@openzeppelin/contracts/access/Ownable.sol\":2672:2703  OwnableInvalidOwner(address(0)) */\n      mload(0x40)\n      0x1e4fbdf700000000000000000000000000000000000000000000000000000000\n      dup2\n      mstore\n      0x04\n      add\n      tag_240\n      swap2\n      swap1\n      tag_40\n      jump\t// in\n    tag_240:\n      mload(0x40)\n      dup1\n      swap2\n      sub\n      swap1\n      revert\n        /* \"@openzeppelin/contracts/access/Ownable.sol\":2623:2714  if (newOwner == address(0)) {... */\n    tag_239:\n        /* \"@openzeppelin/contracts/access/Ownable.sol\":2723:2751  _transferOwnership(newOwner) */\n      tag_241\n        /* \"@openzeppelin/contracts/access/Ownable.sol\":2742:2750  newOwner */\n      dup2\n        /* \"@openzeppelin/contracts/access/Ownable.sol\":2723:2741  _transferOwnership */\n      tag_181\n        /* \"@openzeppelin/contracts/access/Ownable.sol\":2723:2751  _transferOwnership(newOwner) */\n      jump\t// in\n    tag_241:\n        /* \"@openzeppelin/contracts/access/Ownable.sol\":2543:2758  function transferOwnership(address newOwner) public virtual onlyOwner {... */\n      pop\n      jump\t// out\n        /* \"RaffleBase.sol\":229:308  address public constant controller = 0x34045c937742C8AD6222A10eb21c7CfFF8Bf870E */\n    tag_83:\n        /* \"RaffleBase.sol\":266:308  0x34045c937742C8AD6222A10eb21c7CfFF8Bf870E */\n      0x34045c937742c8ad6222a10eb21c7cfff8bf870e\n        /* \"RaffleBase.sol\":229:308  address public constant controller = 0x34045c937742C8AD6222A10eb21c7CfFF8Bf870E */\n      dup2\n      jump\t// out\n        /* \"@openzeppelin/contracts/access/Ownable.sol\":1796:1958  function _checkOwner() internal view virtual {... */\n    tag_178:\n        /* \"@openzeppelin/contracts/access/Ownable.sol\":1866:1878  _msgSender() */\n      tag_243\n        /* \"@openzeppelin/contracts/access/Ownable.sol\":1866:1876  _msgSender */\n      tag_244\n        /* \"@openzeppelin/contracts/access/Ownable.sol\":1866:1878  _msgSender() */\n      jump\t// in\n    tag_243:\n        /* \"@openzeppelin/contracts/access/Ownable.sol\":1855:1878  owner() != _msgSender() */\n      0xffffffffffffffffffffffffffffffffffffffff\n      and\n        /* \"@openzeppelin/contracts/access/Ownable.sol\":1855:1862  owner() */\n      tag_245\n        /* \"@openzeppelin/contracts/access/Ownable.sol\":1855:1860  owner */\n      tag_55\n        /* \"@openzeppelin/contracts/access/Ownable.sol\":1855:1862  owner() */\n      jump\t// in\n    tag_245:\n        /* \"@openzeppelin/contracts/access/Ownable.sol\":1855:1878  owner() != _msgSender() */\n      0xffffffffffffffffffffffffffffffffffffffff\n      and\n      eq\n        /* \"@openzeppelin/contracts/access/Ownable.sol\":1851:1952  if (owner() != _msgSender()) {... */\n      tag_246\n      jumpi\n        /* \"@openzeppelin/contracts/access/Ownable.sol\":1928:1940  _msgSender() */\n      tag_247\n        /* \"@openzeppelin/contracts/access/Ownable.sol\":1928:1938  _msgSender */\n      tag_244\n        /* \"@openzeppelin/contracts/access/Ownable.sol\":1928:1940  _msgSender() */\n      jump\t// in\n    tag_247:\n        /* \"@openzeppelin/contracts/access/Ownable.sol\":1901:1941  OwnableUnauthorizedAccount(_msgSender()) */\n      mload(0x40)\n      0x118cdaa700000000000000000000000000000000000000000000000000000000\n      dup2\n      mstore\n      0x04\n      add\n      tag_248\n      swap2\n      swap1\n      tag_40\n      jump\t// in\n    tag_248:\n      mload(0x40)\n      dup1\n      swap2\n      sub\n      swap1\n      revert\n        /* \"@openzeppelin/contracts/access/Ownable.sol\":1851:1952  if (owner() != _msgSender()) {... */\n    tag_246:\n        /* \"@openzeppelin/contracts/access/Ownable.sol\":1796:1958  function _checkOwner() internal view virtual {... */\n      jump\t// out\n        /* \"@openzeppelin/contracts/access/Ownable.sol\":2912:3099  function _transferOwnership(address newOwner) internal virtual {... */\n    tag_181:\n        /* \"@openzeppelin/contracts/access/Ownable.sol\":2985:3001  address oldOwner */\n      0x00\n        /* \"@openzeppelin/contracts/access/Ownable.sol\":3004:3010  _owner */\n      dup1\n      0x00\n      swap1\n      sload\n      swap1\n      0x0100\n      exp\n      swap1\n      div\n      0xffffffffffffffffffffffffffffffffffffffff\n      and\n        /* \"@openzeppelin/contracts/access/Ownable.sol\":2985:3010  address oldOwner = _owner */\n      swap1\n      pop\n        /* \"@openzeppelin/contracts/access/Ownable.sol\":3029:3037  newOwner */\n      dup2\n        /* \"@openzeppelin/contracts/access/Ownable.sol\":3020:3026  _owner */\n      0x00\n      dup1\n        /* \"@openzeppelin/contracts/access/Ownable.sol\":3020:3037  _owner = newOwner */\n      0x0100\n      exp\n      dup2\n      sload\n      dup2\n      0xffffffffffffffffffffffffffffffffffffffff\n      mul\n      not\n      and\n      swap1\n      dup4\n      0xffffffffffffffffffffffffffffffffffffffff\n      and\n      mul\n      or\n      swap1\n      sstore\n      pop\n        /* \"@openzeppelin/contracts/access/Ownable.sol\":3083:3091  newOwner */\n      dup2\n        /* \"@openzeppelin/contracts/access/Ownable.sol\":3052:3092  OwnershipTransferred(oldOwner, newOwner) */\n      0xffffffffffffffffffffffffffffffffffffffff\n      and\n        /* \"@openzeppelin/contracts/access/Ownable.sol\":3073:3081  oldOwner */\n      dup2\n        /* \"@openzeppelin/contracts/access/Ownable.sol\":3052:3092  OwnershipTransferred(oldOwner, newOwner) */\n      0xffffffffffffffffffffffffffffffffffffffff\n      and\n      0x8be0079c531659141344cd1fd0a4f28419497f9722a3daafe3b4186f6b6457e0\n      mload(0x40)\n      mload(0x40)\n      dup1\n      swap2\n      sub\n      swap1\n      log3\n        /* \"@openzeppelin/contracts/access/Ownable.sol\":2975:3099  {... */\n      pop\n        /* \"@openzeppelin/contracts/access/Ownable.sol\":2912:3099  function _transferOwnership(address newOwner) internal virtual {... */\n      pop\n      jump\t// out\n        /* \"RaffleBase.sol\":4020:4575  function uint2str(uint256 _i) internal pure returns (string memory) {... */\n    tag_198:\n        /* \"RaffleBase.sol\":4073:4086  string memory */\n      0x60\n        /* \"RaffleBase.sol\":4108:4109  0 */\n      0x00\n        /* \"RaffleBase.sol\":4102:4104  _i */\n      dup3\n        /* \"RaffleBase.sol\":4102:4109  _i == 0 */\n      sub\n        /* \"RaffleBase.sol\":4098:4146  if (_i == 0) {... */\n      tag_251\n      jumpi\n        /* \"RaffleBase.sol\":4125:4135  return \"0\" */\n      mload(0x40)\n      dup1\n      0x40\n      add\n      0x40\n      mstore\n      dup1\n      0x01\n      dup2\n      mstore\n      0x20\n      add\n      0x3000000000000000000000000000000000000000000000000000000000000000\n      dup2\n      mstore\n      pop\n      swap1\n      pop\n      jump(tag_250)\n        /* \"RaffleBase.sol\":4098:4146  if (_i == 0) {... */\n    tag_251:\n        /* \"RaffleBase.sol\":4155:4164  uint256 j */\n      0x00\n        /* \"RaffleBase.sol\":4167:4169  _i */\n      dup3\n        /* \"RaffleBase.sol\":4155:4169  uint256 j = _i */\n      swap1\n      pop\n        /* \"RaffleBase.sol\":4179:4190  uint256 len */\n      0x00\n        /* \"RaffleBase.sol\":4200:4266  while (j != 0) {... */\n    tag_252:\n        /* \"RaffleBase.sol\":4212:4213  0 */\n      0x00\n        /* \"RaffleBase.sol\":4207:4208  j */\n      dup3\n        /* \"RaffleBase.sol\":4207:4213  j != 0 */\n      eq\n        /* \"RaffleBase.sol\":4200:4266  while (j != 0) {... */\n      tag_253\n      jumpi\n        /* \"RaffleBase.sol\":4229:4234  len++ */\n      dup1\n      dup1\n      tag_254\n      swap1\n      tag_255\n      jump\t// in\n    tag_254:\n      swap2\n      pop\n      pop\n        /* \"RaffleBase.sol\":4253:4255  10 */\n      0x0a\n        /* \"RaffleBase.sol\":4248:4255  j /= 10 */\n      dup3\n      tag_256\n      swap2\n      swap1\n      tag_107\n      jump\t// in\n    tag_256:\n      swap2\n      pop\n        /* \"RaffleBase.sol\":4200:4266  while (j != 0) {... */\n      jump(tag_252)\n    tag_253:\n        /* \"RaffleBase.sol\":4275:4292  bytes memory bstr */\n      0x00\n        /* \"RaffleBase.sol\":4305:4308  len */\n      dup2\n        /* \"RaffleBase.sol\":4295:4309  new bytes(len) */\n      0xffffffffffffffff\n      dup2\n      gt\n      iszero\n      tag_257\n      jumpi\n      tag_258\n      tag_259\n      jump\t// in\n    tag_258:\n    tag_257:\n      mload(0x40)\n      swap1\n      dup1\n      dup3\n      mstore\n      dup1\n      0x1f\n      add\n      not(0x1f)\n      and\n      0x20\n      add\n      dup3\n      add\n      0x40\n      mstore\n      dup1\n      iszero\n      tag_260\n      jumpi\n      dup2\n      0x20\n      add\n      0x01\n      dup3\n      mul\n      dup1\n      calldatasize\n      dup4\n      calldatacopy\n      dup1\n      dup3\n      add\n      swap2\n      pop\n      pop\n      swap1\n      pop\n    tag_260:\n      pop\n        /* \"RaffleBase.sol\":4275:4309  bytes memory bstr = new bytes(len) */\n      swap1\n      pop\n        /* \"RaffleBase.sol\":4319:4328  uint256 k */\n      0x00\n        /* \"RaffleBase.sol\":4331:4334  len */\n      dup3\n        /* \"RaffleBase.sol\":4319:4334  uint256 k = len */\n      swap1\n      pop\n        /* \"RaffleBase.sol\":4344:4540  while (_i != 0) {... */\n    tag_261:\n        /* \"RaffleBase.sol\":4357:4358  0 */\n      0x00\n        /* \"RaffleBase.sol\":4351:4353  _i */\n      dup7\n        /* \"RaffleBase.sol\":4351:4358  _i != 0 */\n      eq\n        /* \"RaffleBase.sol\":4344:4540  while (_i != 0) {... */\n      tag_262\n      jumpi\n        /* \"RaffleBase.sol\":4382:4383  1 */\n      0x01\n        /* \"RaffleBase.sol\":4378:4379  k */\n      dup2\n        /* \"RaffleBase.sol\":4378:4383  k - 1 */\n      tag_263\n      swap2\n      swap1\n      tag_109\n      jump\t// in\n    tag_263:\n        /* \"RaffleBase.sol\":4374:4383  k = k - 1 */\n      swap1\n      pop\n        /* \"RaffleBase.sol\":4397:4407  uint8 temp */\n      0x00\n        /* \"RaffleBase.sol\":4439:4441  10 */\n      0x0a\n        /* \"RaffleBase.sol\":4433:4435  10 */\n      dup1\n        /* \"RaffleBase.sol\":4428:4430  _i */\n      dup9\n        /* \"RaffleBase.sol\":4428:4435  _i / 10 */\n      tag_264\n      swap2\n      swap1\n      tag_107\n      jump\t// in\n    tag_264:\n        /* \"RaffleBase.sol\":4427:4441  (_i / 10) * 10 */\n      tag_265\n      swap2\n      swap1\n      tag_105\n      jump\t// in\n    tag_265:\n        /* \"RaffleBase.sol\":4422:4424  _i */\n      dup8\n        /* \"RaffleBase.sol\":4422:4441  _i - (_i / 10) * 10 */\n      tag_266\n      swap2\n      swap1\n      tag_109\n      jump\t// in\n    tag_266:\n        /* \"RaffleBase.sol\":4411:4413  48 */\n      0x30\n        /* \"RaffleBase.sol\":4411:4442  48 + uint8(_i - (_i / 10) * 10) */\n      tag_267\n      swap2\n      swap1\n      tag_268\n      jump\t// in\n    tag_267:\n        /* \"RaffleBase.sol\":4397:4443  uint8 temp = (48 + uint8(_i - (_i / 10) * 10)) */\n      swap1\n      pop\n        /* \"RaffleBase.sol\":4457:4466  bytes1 b1 */\n      0x00\n        /* \"RaffleBase.sol\":4476:4480  temp */\n      dup2\n        /* \"RaffleBase.sol\":4469:4481  bytes1(temp) */\n      0xf8\n      shl\n        /* \"RaffleBase.sol\":4457:4481  bytes1 b1 = bytes1(temp) */\n      swap1\n      pop\n        /* \"RaffleBase.sol\":4505:4507  b1 */\n      dup1\n        /* \"RaffleBase.sol\":4495:4499  bstr */\n      dup5\n        /* \"RaffleBase.sol\":4500:4501  k */\n      dup5\n        /* \"RaffleBase.sol\":4495:4502  bstr[k] */\n      dup2\n      mload\n      dup2\n      lt\n      tag_269\n      jumpi\n      tag_270\n      tag_147\n      jump\t// in\n    tag_270:\n    tag_269:\n      0x20\n      add\n      add\n        /* \"RaffleBase.sol\":4495:4507  bstr[k] = b1 */\n      swap1\n      not(0xffffffffffffffffffffffffffffffffffffffffffffffffffffffffffffff)\n      and\n      swap1\n      dup2\n      0x00\n      byte\n      swap1\n      mstore8\n      pop\n        /* \"RaffleBase.sol\":4527:4529  10 */\n      0x0a\n        /* \"RaffleBase.sol\":4521:4529  _i /= 10 */\n      dup9\n      tag_271\n      swap2\n      swap1\n      tag_107\n      jump\t// in\n    tag_271:\n      swap8\n      pop\n        /* \"RaffleBase.sol\":4360:4540  {... */\n      pop\n      pop\n        /* \"RaffleBase.sol\":4344:4540  while (_i != 0) {... */\n      jump(tag_261)\n    tag_262:\n        /* \"RaffleBase.sol\":4563:4567  bstr */\n      dup2\n        /* \"RaffleBase.sol\":4549:4568  return string(bstr) */\n      swap5\n      pop\n      pop\n      pop\n      pop\n      pop\n        /* \"RaffleBase.sol\":4020:4575  function uint2str(uint256 _i) internal pure returns (string memory) {... */\n    tag_250:\n      swap2\n      swap1\n      pop\n      jump\t// out\n        /* \"@openzeppelin/contracts/utils/Context.sol\":656:752  function _msgSender() internal view virtual returns (address) {... */\n    tag_244:\n        /* \"@openzeppelin/contracts/utils/Context.sol\":709:716  address */\n      0x00\n        /* \"@openzeppelin/contracts/utils/Context.sol\":735:745  msg.sender */\n      caller\n        /* \"@openzeppelin/contracts/utils/Context.sol\":728:745  return msg.sender */\n      swap1\n      pop\n        /* \"@openzeppelin/contracts/utils/Context.sol\":656:752  function _msgSender() internal view virtual returns (address) {... */\n      swap1\n      jump\t// out\n    tag_94:\n      pop\n      dup1\n      sload\n      0x00\n      dup3\n      sstore\n      swap1\n      0x00\n      mstore\n      keccak256(0x00, 0x20)\n      swap1\n      dup2\n      add\n      swap1\n      tag_274\n      swap2\n      swap1\n      tag_275\n      jump\t// in\n    tag_274:\n      pop\n      jump\t// out\n    tag_275:\n    tag_276:\n      dup1\n      dup3\n      gt\n      iszero\n      tag_277\n      jumpi\n      0x00\n      dup2\n      0x00\n      swap1\n      sstore\n      pop\n      0x01\n      add\n      jump(tag_276)\n    tag_277:\n      pop\n      swap1\n      jump\t// out\n        /* \"#utility.yul\":7:84   */\n    tag_278:\n        /* \"#utility.yul\":44:51   */\n      0x00\n        /* \"#utility.yul\":73:78   */\n      dup2\n        /* \"#utility.yul\":62:78   */\n      swap1\n      pop\n        /* \"#utility.yul\":7:84   */\n      swap2\n      swap1\n      pop\n      jump\t// out\n        /* \"#utility.yul\":90:208   */\n    tag_279:\n        /* \"#utility.yul\":177:201   */\n      tag_354\n        /* \"#utility.yul\":195:200   */\n      dup2\n        /* \"#utility.yul\":177:201   */\n      tag_278\n      jump\t// in\n    tag_354:\n        /* \"#utility.yul\":172:175   */\n      dup3\n        /* \"#utility.yul\":165:202   */\n      mstore\n        /* \"#utility.yul\":90:208   */\n      pop\n      pop\n      jump\t// out\n        /* \"#utility.yul\":214:436   */\n    tag_29:\n        /* \"#utility.yul\":307:311   */\n      0x00\n        /* \"#utility.yul\":345:347   */\n      0x20\n        /* \"#utility.yul\":334:343   */\n      dup3\n        /* \"#utility.yul\":330:348   */\n      add\n        /* \"#utility.yul\":322:348   */\n      swap1\n      pop\n        /* \"#utility.yul\":358:429   */\n      tag_356\n        /* \"#utility.yul\":426:427   */\n      0x00\n        /* \"#utility.yul\":415:424   */\n      dup4\n        /* \"#utility.yul\":411:428   */\n      add\n        /* \"#utility.yul\":402:408   */\n      dup5\n        /* \"#utility.yul\":358:429   */\n      tag_279\n      jump\t// in\n    tag_356:\n        /* \"#utility.yul\":214:436   */\n      swap3\n      swap2\n      pop\n      pop\n      jump\t// out\n        /* \"#utility.yul\":523:640   */\n    tag_281:\n        /* \"#utility.yul\":632:633   */\n      0x00\n        /* \"#utility.yul\":629:630   */\n      dup1\n        /* \"#utility.yul\":622:634   */\n      revert\n        /* \"#utility.yul\":769:891   */\n    tag_283:\n        /* \"#utility.yul\":842:866   */\n      tag_361\n        /* \"#utility.yul\":860:865   */\n      dup2\n        /* \"#utility.yul\":842:866   */\n      tag_278\n      jump\t// in\n    tag_361:\n        /* \"#utility.yul\":835:840   */\n      dup2\n        /* \"#utility.yul\":832:867   */\n      eq\n        /* \"#utility.yul\":822:885   */\n      tag_362\n      jumpi\n        /* \"#utility.yul\":881:882   */\n      0x00\n        /* \"#utility.yul\":878:879   */\n      dup1\n        /* \"#utility.yul\":871:883   */\n      revert\n        /* \"#utility.yul\":822:885   */\n    tag_362:\n        /* \"#utility.yul\":769:891   */\n      pop\n      jump\t// out\n        /* \"#utility.yul\":897:1036   */\n    tag_284:\n        /* \"#utility.yul\":943:948   */\n      0x00\n        /* \"#utility.yul\":981:987   */\n      dup2\n        /* \"#utility.yul\":968:988   */\n      calldataload\n        /* \"#utility.yul\":959:988   */\n      swap1\n      pop\n        /* \"#utility.yul\":997:1030   */\n      tag_364\n        /* \"#utility.yul\":1024:1029   */\n      dup2\n        /* \"#utility.yul\":997:1030   */\n      tag_283\n      jump\t// in\n    tag_364:\n        /* \"#utility.yul\":897:1036   */\n      swap3\n      swap2\n      pop\n      pop\n      jump\t// out\n        /* \"#utility.yul\":1042:1371   */\n    tag_37:\n        /* \"#utility.yul\":1101:1107   */\n      0x00\n        /* \"#utility.yul\":1150:1152   */\n      0x20\n        /* \"#utility.yul\":1138:1147   */\n      dup3\n        /* \"#utility.yul\":1129:1136   */\n      dup5\n        /* \"#utility.yul\":1125:1148   */\n      sub\n        /* \"#utility.yul\":1121:1153   */\n      slt\n        /* \"#utility.yul\":1118:1237   */\n      iszero\n      tag_366\n      jumpi\n        /* \"#utility.yul\":1156:1235   */\n      tag_367\n      tag_281\n      jump\t// in\n    tag_367:\n        /* \"#utility.yul\":1118:1237   */\n    tag_366:\n        /* \"#utility.yul\":1276:1277   */\n      0x00\n        /* \"#utility.yul\":1301:1354   */\n      tag_368\n        /* \"#utility.yul\":1346:1353   */\n      dup5\n        /* \"#utility.yul\":1337:1343   */\n      dup3\n        /* \"#utility.yul\":1326:1335   */\n      dup6\n        /* \"#utility.yul\":1322:1344   */\n      add\n        /* \"#utility.yul\":1301:1354   */\n      tag_284\n      jump\t// in\n    tag_368:\n        /* \"#utility.yul\":1291:1354   */\n      swap2\n      pop\n        /* \"#utility.yul\":1247:1364   */\n      pop\n        /* \"#utility.yul\":1042:1371   */\n      swap3\n      swap2\n      pop\n      pop\n      jump\t// out\n        /* \"#utility.yul\":1377:1503   */\n    tag_285:\n        /* \"#utility.yul\":1414:1421   */\n      0x00\n        /* \"#utility.yul\":1454:1496   */\n      0xffffffffffffffffffffffffffffffffffffffff\n        /* \"#utility.yul\":1447:1452   */\n      dup3\n        /* \"#utility.yul\":1443:1497   */\n      and\n        /* \"#utility.yul\":1432:1497   */\n      swap1\n      pop\n        /* \"#utility.yul\":1377:1503   */\n      swap2\n      swap1\n      pop\n      jump\t// out\n        /* \"#utility.yul\":1509:1605   */\n    tag_286:\n        /* \"#utility.yul\":1546:1553   */\n      0x00\n        /* \"#utility.yul\":1575:1599   */\n      tag_371\n        /* \"#utility.yul\":1593:1598   */\n      dup3\n        /* \"#utility.yul\":1575:1599   */\n      tag_285\n      jump\t// in\n    tag_371:\n        /* \"#utility.yul\":1564:1599   */\n      swap1\n      pop\n        /* \"#utility.yul\":1509:1605   */\n      swap2\n      swap1\n      pop\n      jump\t// out\n        /* \"#utility.yul\":1611:1729   */\n    tag_287:\n        /* \"#utility.yul\":1698:1722   */\n      tag_373\n        /* \"#utility.yul\":1716:1721   */\n      dup2\n        /* \"#utility.yul\":1698:1722   */\n      tag_286\n      jump\t// in\n    tag_373:\n        /* \"#utility.yul\":1693:1696   */\n      dup3\n        /* \"#utility.yul\":1686:1723   */\n      mstore\n        /* \"#utility.yul\":1611:1729   */\n      pop\n      pop\n      jump\t// out\n        /* \"#utility.yul\":1735:1957   */\n    tag_40:\n        /* \"#utility.yul\":1828:1832   */\n      0x00\n        /* \"#utility.yul\":1866:1868   */\n      0x20\n        /* \"#utility.yul\":1855:1864   */\n      dup3\n        /* \"#utility.yul\":1851:1869   */\n      add\n        /* \"#utility.yul\":1843:1869   */\n      swap1\n      pop\n        /* \"#utility.yul\":1879:1950   */\n      tag_375\n        /* \"#utility.yul\":1947:1948   */\n      0x00\n        /* \"#utility.yul\":1936:1945   */\n      dup4\n        /* \"#utility.yul\":1932:1949   */\n      add\n        /* \"#utility.yul\":1923:1929   */\n      dup5\n        /* \"#utility.yul\":1879:1950   */\n      tag_287\n      jump\t// in\n    tag_375:\n        /* \"#utility.yul\":1735:1957   */\n      swap3\n      swap2\n      pop\n      pop\n      jump\t// out\n        /* \"#utility.yul\":1963:2023   */\n    tag_288:\n        /* \"#utility.yul\":1991:1994   */\n      0x00\n        /* \"#utility.yul\":2012:2017   */\n      dup2\n        /* \"#utility.yul\":2005:2017   */\n      swap1\n      pop\n        /* \"#utility.yul\":1963:2023   */\n      swap2\n      swap1\n      pop\n      jump\t// out\n        /* \"#utility.yul\":2029:2171   */\n    tag_289:\n        /* \"#utility.yul\":2079:2088   */\n      0x00\n        /* \"#utility.yul\":2112:2165   */\n      tag_378\n        /* \"#utility.yul\":2130:2164   */\n      tag_379\n        /* \"#utility.yul\":2139:2163   */\n      tag_380\n        /* \"#utility.yul\":2157:2162   */\n      dup5\n        /* \"#utility.yul\":2139:2163   */\n      tag_285\n      jump\t// in\n    tag_380:\n        /* \"#utility.yul\":2130:2164   */\n      tag_288\n      jump\t// in\n    tag_379:\n        /* \"#utility.yul\":2112:2165   */\n      tag_285\n      jump\t// in\n    tag_378:\n        /* \"#utility.yul\":2099:2165   */\n      swap1\n      pop\n        /* \"#utility.yul\":2029:2171   */\n      swap2\n      swap1\n      pop\n      jump\t// out\n        /* \"#utility.yul\":2177:2303   */\n    tag_290:\n        /* \"#utility.yul\":2227:2236   */\n      0x00\n        /* \"#utility.yul\":2260:2297   */\n      tag_382\n        /* \"#utility.yul\":2291:2296   */\n      dup3\n        /* \"#utility.yul\":2260:2297   */\n      tag_289\n      jump\t// in\n    tag_382:\n        /* \"#utility.yul\":2247:2297   */\n      swap1\n      pop\n        /* \"#utility.yul\":2177:2303   */\n      swap2\n      swap1\n      pop\n      jump\t// out\n        /* \"#utility.yul\":2309:2449   */\n    tag_291:\n        /* \"#utility.yul\":2373:2382   */\n      0x00\n        /* \"#utility.yul\":2406:2443   */\n      tag_384\n        /* \"#utility.yul\":2437:2442   */\n      dup3\n        /* \"#utility.yul\":2406:2443   */\n      tag_290\n      jump\t// in\n    tag_384:\n        /* \"#utility.yul\":2393:2443   */\n      swap1\n      pop\n        /* \"#utility.yul\":2309:2449   */\n      swap2\n      swap1\n      pop\n      jump\t// out\n        /* \"#utility.yul\":2455:2614   */\n    tag_292:\n        /* \"#utility.yul\":2556:2607   */\n      tag_386\n        /* \"#utility.yul\":2601:2606   */\n      dup2\n        /* \"#utility.yul\":2556:2607   */\n      tag_291\n      jump\t// in\n    tag_386:\n        /* \"#utility.yul\":2551:2554   */\n      dup3\n        /* \"#utility.yul\":2544:2608   */\n      mstore\n        /* \"#utility.yul\":2455:2614   */\n      pop\n      pop\n      jump\t// out\n        /* \"#utility.yul\":2620:2870   */\n    tag_44:\n        /* \"#utility.yul\":2727:2731   */\n      0x00\n        /* \"#utility.yul\":2765:2767   */\n      0x20\n        /* \"#utility.yul\":2754:2763   */\n      dup3\n        /* \"#utility.yul\":2750:2768   */\n      add\n        /* \"#utility.yul\":2742:2768   */\n      swap1\n      pop\n        /* \"#utility.yul\":2778:2863   */\n      tag_388\n        /* \"#utility.yul\":2860:2861   */\n      0x00\n        /* \"#utility.yul\":2849:2858   */\n      dup4\n        /* \"#utility.yul\":2845:2862   */\n      add\n        /* \"#utility.yul\":2836:2842   */\n      dup5\n        /* \"#utility.yul\":2778:2863   */\n      tag_292\n      jump\t// in\n    tag_388:\n        /* \"#utility.yul\":2620:2870   */\n      swap3\n      swap2\n      pop\n      pop\n      jump\t// out\n        /* \"#utility.yul\":2876:2998   */\n    tag_293:\n        /* \"#utility.yul\":2949:2973   */\n      tag_390\n        /* \"#utility.yul\":2967:2972   */\n      dup2\n        /* \"#utility.yul\":2949:2973   */\n      tag_286\n      jump\t// in\n    tag_390:\n        /* \"#utility.yul\":2942:2947   */\n      dup2\n        /* \"#utility.yul\":2939:2974   */\n      eq\n        /* \"#utility.yul\":2929:2992   */\n      tag_391\n      jumpi\n        /* \"#utility.yul\":2988:2989   */\n      0x00\n        /* \"#utility.yul\":2985:2986   */\n      dup1\n        /* \"#utility.yul\":2978:2990   */\n      revert\n        /* \"#utility.yul\":2929:2992   */\n    tag_391:\n        /* \"#utility.yul\":2876:2998   */\n      pop\n      jump\t// out\n        /* \"#utility.yul\":3004:3143   */\n    tag_294:\n        /* \"#utility.yul\":3050:3055   */\n      0x00\n        /* \"#utility.yul\":3088:3094   */\n      dup2\n        /* \"#utility.yul\":3075:3095   */\n      calldataload\n        /* \"#utility.yul\":3066:3095   */\n      swap1\n      pop\n        /* \"#utility.yul\":3104:3137   */\n      tag_393\n        /* \"#utility.yul\":3131:3136   */\n      dup2\n        /* \"#utility.yul\":3104:3137   */\n      tag_293\n      jump\t// in\n    tag_393:\n        /* \"#utility.yul\":3004:3143   */\n      swap3\n      swap2\n      pop\n      pop\n      jump\t// out\n        /* \"#utility.yul\":3149:3478   */\n    tag_49:\n        /* \"#utility.yul\":3208:3214   */\n      0x00\n        /* \"#utility.yul\":3257:3259   */\n      0x20\n        /* \"#utility.yul\":3245:3254   */\n      dup3\n        /* \"#utility.yul\":3236:3243   */\n      dup5\n        /* \"#utility.yul\":3232:3255   */\n      sub\n        /* \"#utility.yul\":3228:3260   */\n      slt\n        /* \"#utility.yul\":3225:3344   */\n      iszero\n      tag_395\n      jumpi\n        /* \"#utility.yul\":3263:3342   */\n      tag_396\n      tag_281\n      jump\t// in\n    tag_396:\n        /* \"#utility.yul\":3225:3344   */\n    tag_395:\n        /* \"#utility.yul\":3383:3384   */\n      0x00\n        /* \"#utility.yul\":3408:3461   */\n      tag_397\n        /* \"#utility.yul\":3453:3460   */\n      dup5\n        /* \"#utility.yul\":3444:3450   */\n      dup3\n        /* \"#utility.yul\":3433:3442   */\n      dup6\n        /* \"#utility.yul\":3429:3451   */\n      add\n        /* \"#utility.yul\":3408:3461   */\n      tag_294\n      jump\t// in\n    tag_397:\n        /* \"#utility.yul\":3398:3461   */\n      swap2\n      pop\n        /* \"#utility.yul\":3354:3471   */\n      pop\n        /* \"#utility.yul\":3149:3478   */\n      swap3\n      swap2\n      pop\n      pop\n      jump\t// out\n        /* \"#utility.yul\":3484:3574   */\n    tag_295:\n        /* \"#utility.yul\":3518:3525   */\n      0x00\n        /* \"#utility.yul\":3561:3566   */\n      dup2\n        /* \"#utility.yul\":3554:3567   */\n      iszero\n        /* \"#utility.yul\":3547:3568   */\n      iszero\n        /* \"#utility.yul\":3536:3568   */\n      swap1\n      pop\n        /* \"#utility.yul\":3484:3574   */\n      swap2\n      swap1\n      pop\n      jump\t// out\n        /* \"#utility.yul\":3580:3689   */\n    tag_296:\n        /* \"#utility.yul\":3661:3682   */\n      tag_400\n        /* \"#utility.yul\":3676:3681   */\n      dup2\n        /* \"#utility.yul\":3661:3682   */\n      tag_295\n      jump\t// in\n    tag_400:\n        /* \"#utility.yul\":3656:3659   */\n      dup3\n        /* \"#utility.yul\":3649:3683   */\n      mstore\n        /* \"#utility.yul\":3580:3689   */\n      pop\n      pop\n      jump\t// out\n        /* \"#utility.yul\":3695:3905   */\n    tag_64:\n        /* \"#utility.yul\":3782:3786   */\n      0x00\n        /* \"#utility.yul\":3820:3822   */\n      0x20\n        /* \"#utility.yul\":3809:3818   */\n      dup3\n        /* \"#utility.yul\":3805:3823   */\n      add\n        /* \"#utility.yul\":3797:3823   */\n      swap1\n      pop\n        /* \"#utility.yul\":3833:3898   */\n      tag_402\n        /* \"#utility.yul\":3895:3896   */\n      0x00\n        /* \"#utility.yul\":3884:3893   */\n      dup4\n        /* \"#utility.yul\":3880:3897   */\n      add\n        /* \"#utility.yul\":3871:3877   */\n      dup5\n        /* \"#utility.yul\":3833:3898   */\n      tag_296\n      jump\t// in\n    tag_402:\n        /* \"#utility.yul\":3695:3905   */\n      swap3\n      swap2\n      pop\n      pop\n      jump\t// out\n        /* \"#utility.yul\":3911:4010   */\n    tag_297:\n        /* \"#utility.yul\":3963:3969   */\n      0x00\n        /* \"#utility.yul\":3997:4002   */\n      dup2\n        /* \"#utility.yul\":3991:4003   */\n      mload\n        /* \"#utility.yul\":3981:4003   */\n      swap1\n      pop\n        /* \"#utility.yul\":3911:4010   */\n      swap2\n      swap1\n      pop\n      jump\t// out\n        /* \"#utility.yul\":4016:4185   */\n    tag_298:\n        /* \"#utility.yul\":4100:4111   */\n      0x00\n        /* \"#utility.yul\":4134:4140   */\n      dup3\n        /* \"#utility.yul\":4129:4132   */\n      dup3\n        /* \"#utility.yul\":4122:4141   */\n      mstore\n        /* \"#utility.yul\":4174:4178   */\n      0x20\n        /* \"#utility.yul\":4169:4172   */\n      dup3\n        /* \"#utility.yul\":4165:4179   */\n      add\n        /* \"#utility.yul\":4150:4179   */\n      swap1\n      pop\n        /* \"#utility.yul\":4016:4185   */\n      swap3\n      swap2\n      pop\n      pop\n      jump\t// out\n        /* \"#utility.yul\":4191:4330   */\n    tag_299:\n        /* \"#utility.yul\":4280:4286   */\n      dup3\n        /* \"#utility.yul\":4275:4278   */\n      dup2\n        /* \"#utility.yul\":4270:4273   */\n      dup4\n        /* \"#utility.yul\":4264:4287   */\n      mcopy\n        /* \"#utility.yul\":4321:4322   */\n      0x00\n        /* \"#utility.yul\":4312:4318   */\n      dup4\n        /* \"#utility.yul\":4307:4310   */\n      dup4\n        /* \"#utility.yul\":4303:4319   */\n      add\n        /* \"#utility.yul\":4296:4323   */\n      mstore\n        /* \"#utility.yul\":4191:4330   */\n      pop\n      pop\n      pop\n      jump\t// out\n        /* \"#utility.yul\":4336:4438   */\n    tag_300:\n        /* \"#utility.yul\":4377:4383   */\n      0x00\n        /* \"#utility.yul\":4428:4430   */\n      0x1f\n        /* \"#utility.yul\":4424:4431   */\n      not\n        /* \"#utility.yul\":4419:4421   */\n      0x1f\n        /* \"#utility.yul\":4412:4417   */\n      dup4\n        /* \"#utility.yul\":4408:4422   */\n      add\n        /* \"#utility.yul\":4404:4432   */\n      and\n        /* \"#utility.yul\":4394:4432   */\n      swap1\n      pop\n        /* \"#utility.yul\":4336:4438   */\n      swap2\n      swap1\n      pop\n      jump\t// out\n        /* \"#utility.yul\":4444:4821   */\n    tag_301:\n        /* \"#utility.yul\":4532:4535   */\n      0x00\n        /* \"#utility.yul\":4560:4599   */\n      tag_408\n        /* \"#utility.yul\":4593:4598   */\n      dup3\n        /* \"#utility.yul\":4560:4599   */\n      tag_297\n      jump\t// in\n    tag_408:\n        /* \"#utility.yul\":4615:4686   */\n      tag_409\n        /* \"#utility.yul\":4679:4685   */\n      dup2\n        /* \"#utility.yul\":4674:4677   */\n      dup6\n        /* \"#utility.yul\":4615:4686   */\n      tag_298\n      jump\t// in\n    tag_409:\n        /* \"#utility.yul\":4608:4686   */\n      swap4\n      pop\n        /* \"#utility.yul\":4695:4760   */\n      tag_410\n        /* \"#utility.yul\":4753:4759   */\n      dup2\n        /* \"#utility.yul\":4748:4751   */\n      dup6\n        /* \"#utility.yul\":4741:4745   */\n      0x20\n        /* \"#utility.yul\":4734:4739   */\n      dup7\n        /* \"#utility.yul\":4730:4746   */\n      add\n        /* \"#utility.yul\":4695:4760   */\n      tag_299\n      jump\t// in\n    tag_410:\n        /* \"#utility.yul\":4785:4814   */\n      tag_411\n        /* \"#utility.yul\":4807:4813   */\n      dup2\n        /* \"#utility.yul\":4785:4814   */\n      tag_300\n      jump\t// in\n    tag_411:\n        /* \"#utility.yul\":4780:4783   */\n      dup5\n        /* \"#utility.yul\":4776:4815   */\n      add\n        /* \"#utility.yul\":4769:4815   */\n      swap2\n      pop\n        /* \"#utility.yul\":4536:4821   */\n      pop\n        /* \"#utility.yul\":4444:4821   */\n      swap3\n      swap2\n      pop\n      pop\n      jump\t// out\n        /* \"#utility.yul\":4827:5140   */\n    tag_72:\n        /* \"#utility.yul\":4940:4944   */\n      0x00\n        /* \"#utility.yul\":4978:4980   */\n      0x20\n        /* \"#utility.yul\":4967:4976   */\n      dup3\n        /* \"#utility.yul\":4963:4981   */\n      add\n        /* \"#utility.yul\":4955:4981   */\n      swap1\n      pop\n        /* \"#utility.yul\":5027:5036   */\n      dup2\n        /* \"#utility.yul\":5021:5025   */\n      dup2\n        /* \"#utility.yul\":5017:5037   */\n      sub\n        /* \"#utility.yul\":5013:5014   */\n      0x00\n        /* \"#utility.yul\":5002:5011   */\n      dup4\n        /* \"#utility.yul\":4998:5015   */\n      add\n        /* \"#utility.yul\":4991:5038   */\n      mstore\n        /* \"#utility.yul\":5055:5133   */\n      tag_413\n        /* \"#utility.yul\":5128:5132   */\n      dup2\n        /* \"#utility.yul\":5119:5125   */\n      dup5\n        /* \"#utility.yul\":5055:5133   */\n      tag_301\n      jump\t// in\n    tag_413:\n        /* \"#utility.yul\":5047:5133   */\n      swap1\n      pop\n        /* \"#utility.yul\":4827:5140   */\n      swap3\n      swap2\n      pop\n      pop\n      jump\t// out\n        /* \"#utility.yul\":5146:5310   */\n    tag_302:\n        /* \"#utility.yul\":5286:5302   */\n      0x4e6f7420617574686f72697a6564000000000000000000000000000000000000\n        /* \"#utility.yul\":5282:5283   */\n      0x00\n        /* \"#utility.yul\":5274:5280   */\n      dup3\n        /* \"#utility.yul\":5270:5284   */\n      add\n        /* \"#utility.yul\":5263:5303   */\n      mstore\n        /* \"#utility.yul\":5146:5310   */\n      pop\n      jump\t// out\n        /* \"#utility.yul\":5316:5682   */\n    tag_303:\n        /* \"#utility.yul\":5458:5461   */\n      0x00\n        /* \"#utility.yul\":5479:5546   */\n      tag_416\n        /* \"#utility.yul\":5543:5545   */\n      0x0e\n        /* \"#utility.yul\":5538:5541   */\n      dup4\n        /* \"#utility.yul\":5479:5546   */\n      tag_298\n      jump\t// in\n    tag_416:\n        /* \"#utility.yul\":5472:5546   */\n      swap2\n      pop\n        /* \"#utility.yul\":5555:5648   */\n      tag_417\n        /* \"#utility.yul\":5644:5647   */\n      dup3\n        /* \"#utility.yul\":5555:5648   */\n      tag_302\n      jump\t// in\n    tag_417:\n        /* \"#utility.yul\":5673:5675   */\n      0x20\n        /* \"#utility.yul\":5668:5671   */\n      dup3\n        /* \"#utility.yul\":5664:5676   */\n      add\n        /* \"#utility.yul\":5657:5676   */\n      swap1\n      pop\n        /* \"#utility.yul\":5316:5682   */\n      swap2\n      swap1\n      pop\n      jump\t// out\n        /* \"#utility.yul\":5688:6107   */\n    tag_88:\n        /* \"#utility.yul\":5854:5858   */\n      0x00\n        /* \"#utility.yul\":5892:5894   */\n      0x20\n        /* \"#utility.yul\":5881:5890   */\n      dup3\n        /* \"#utility.yul\":5877:5895   */\n      add\n        /* \"#utility.yul\":5869:5895   */\n      swap1\n      pop\n        /* \"#utility.yul\":5941:5950   */\n      dup2\n        /* \"#utility.yul\":5935:5939   */\n      dup2\n        /* \"#utility.yul\":5931:5951   */\n      sub\n        /* \"#utility.yul\":5927:5928   */\n      0x00\n        /* \"#utility.yul\":5916:5925   */\n      dup4\n        /* \"#utility.yul\":5912:5929   */\n      add\n        /* \"#utility.yul\":5905:5952   */\n      mstore\n        /* \"#utility.yul\":5969:6100   */\n      tag_419\n        /* \"#utility.yul\":6095:6099   */\n      dup2\n        /* \"#utility.yul\":5969:6100   */\n      tag_303\n      jump\t// in\n    tag_419:\n        /* \"#utility.yul\":5961:6100   */\n      swap1\n      pop\n        /* \"#utility.yul\":5688:6107   */\n      swap2\n      swap1\n      pop\n      jump\t// out\n        /* \"#utility.yul\":6113:6284   */\n    tag_304:\n        /* \"#utility.yul\":6253:6276   */\n      0x526166666c6520616c7265616479206163746976650000000000000000000000\n        /* \"#utility.yul\":6249:6250   */\n      0x00\n        /* \"#utility.yul\":6241:6247   */\n      dup3\n        /* \"#utility.yul\":6237:6251   */\n      add\n        /* \"#utility.yul\":6230:6277   */\n      mstore\n        /* \"#utility.yul\":6113:6284   */\n      pop\n      jump\t// out\n        /* \"#utility.yul\":6290:6656   */\n    tag_305:\n        /* \"#utility.yul\":6432:6435   */\n      0x00\n        /* \"#utility.yul\":6453:6520   */\n      tag_422\n        /* \"#utility.yul\":6517:6519   */\n      0x15\n        /* \"#utility.yul\":6512:6515   */\n      dup4\n        /* \"#utility.yul\":6453:6520   */\n      tag_298\n      jump\t// in\n    tag_422:\n        /* \"#utility.yul\":6446:6520   */\n      swap2\n      pop\n        /* \"#utility.yul\":6529:6622   */\n      tag_423\n        /* \"#utility.yul\":6618:6621   */\n      dup3\n        /* \"#utility.yul\":6529:6622   */\n      tag_304\n      jump\t// in\n    tag_423:\n        /* \"#utility.yul\":6647:6649   */\n      0x20\n        /* \"#utility.yul\":6642:6645   */\n      dup3\n        /* \"#utility.yul\":6638:6650   */\n      add\n        /* \"#utility.yul\":6631:6650   */\n      swap1\n      pop\n        /* \"#utility.yul\":6290:6656   */\n      swap2\n      swap1\n      pop\n      jump\t// out\n        /* \"#utility.yul\":6662:7081   */\n    tag_92:\n        /* \"#utility.yul\":6828:6832   */\n      0x00\n        /* \"#utility.yul\":6866:6868   */\n      0x20\n        /* \"#utility.yul\":6855:6864   */\n      dup3\n        /* \"#utility.yul\":6851:6869   */\n      add\n        /* \"#utility.yul\":6843:6869   */\n      swap1\n      pop\n        /* \"#utility.yul\":6915:6924   */\n      dup2\n        /* \"#utility.yul\":6909:6913   */\n      dup2\n        /* \"#utility.yul\":6905:6925   */\n      sub\n        /* \"#utility.yul\":6901:6902   */\n      0x00\n        /* \"#utility.yul\":6890:6899   */\n      dup4\n        /* \"#utility.yul\":6886:6903   */\n      add\n        /* \"#utility.yul\":6879:6926   */\n      mstore\n        /* \"#utility.yul\":6943:7074   */\n      tag_425\n        /* \"#utility.yul\":7069:7073   */\n      dup2\n        /* \"#utility.yul\":6943:7074   */\n      tag_305\n      jump\t// in\n    tag_425:\n        /* \"#utility.yul\":6935:7074   */\n      swap1\n      pop\n        /* \"#utility.yul\":6662:7081   */\n      swap2\n      swap1\n      pop\n      jump\t// out\n        /* \"#utility.yul\":7087:7230   */\n    tag_306:\n        /* \"#utility.yul\":7144:7149   */\n      0x00\n        /* \"#utility.yul\":7175:7181   */\n      dup2\n        /* \"#utility.yul\":7169:7182   */\n      mload\n        /* \"#utility.yul\":7160:7182   */\n      swap1\n      pop\n        /* \"#utility.yul\":7191:7224   */\n      tag_427\n        /* \"#utility.yul\":7218:7223   */\n      dup2\n        /* \"#utility.yul\":7191:7224   */\n      tag_283\n      jump\t// in\n    tag_427:\n        /* \"#utility.yul\":7087:7230   */\n      swap3\n      swap2\n      pop\n      pop\n      jump\t// out\n        /* \"#utility.yul\":7236:7587   */\n    tag_103:\n        /* \"#utility.yul\":7306:7312   */\n      0x00\n        /* \"#utility.yul\":7355:7357   */\n      0x20\n        /* \"#utility.yul\":7343:7352   */\n      dup3\n        /* \"#utility.yul\":7334:7341   */\n      dup5\n        /* \"#utility.yul\":7330:7353   */\n      sub\n        /* \"#utility.yul\":7326:7358   */\n      slt\n        /* \"#utility.yul\":7323:7442   */\n      iszero\n      tag_429\n      jumpi\n        /* \"#utility.yul\":7361:7440   */\n      tag_430\n      tag_281\n      jump\t// in\n    tag_430:\n        /* \"#utility.yul\":7323:7442   */\n    tag_429:\n        /* \"#utility.yul\":7481:7482   */\n      0x00\n        /* \"#utility.yul\":7506:7570   */\n      tag_431\n        /* \"#utility.yul\":7562:7569   */\n      dup5\n        /* \"#utility.yul\":7553:7559   */\n      dup3\n        /* \"#utility.yul\":7542:7551   */\n      dup6\n        /* \"#utility.yul\":7538:7560   */\n      add\n        /* \"#utility.yul\":7506:7570   */\n      tag_306\n      jump\t// in\n    tag_431:\n        /* \"#utility.yul\":7496:7570   */\n      swap2\n      pop\n        /* \"#utility.yul\":7452:7580   */\n      pop\n        /* \"#utility.yul\":7236:7587   */\n      swap3\n      swap2\n      pop\n      pop\n      jump\t// out\n        /* \"#utility.yul\":7593:7773   */\n    tag_307:\n        /* \"#utility.yul\":7641:7718   */\n      0x4e487b7100000000000000000000000000000000000000000000000000000000\n        /* \"#utility.yul\":7638:7639   */\n      0x00\n        /* \"#utility.yul\":7631:7719   */\n      mstore\n        /* \"#utility.yul\":7738:7742   */\n      0x11\n        /* \"#utility.yul\":7735:7736   */\n      0x04\n        /* \"#utility.yul\":7728:7743   */\n      mstore\n        /* \"#utility.yul\":7762:7766   */\n      0x24\n        /* \"#utility.yul\":7759:7760   */\n      0x00\n        /* \"#utility.yul\":7752:7767   */\n      revert\n        /* \"#utility.yul\":7779:8189   */\n    tag_105:\n        /* \"#utility.yul\":7819:7826   */\n      0x00\n        /* \"#utility.yul\":7842:7862   */\n      tag_434\n        /* \"#utility.yul\":7860:7861   */\n      dup3\n        /* \"#utility.yul\":7842:7862   */\n      tag_278\n      jump\t// in\n    tag_434:\n        /* \"#utility.yul\":7837:7862   */\n      swap2\n      pop\n        /* \"#utility.yul\":7876:7896   */\n      tag_435\n        /* \"#utility.yul\":7894:7895   */\n      dup4\n        /* \"#utility.yul\":7876:7896   */\n      tag_278\n      jump\t// in\n    tag_435:\n        /* \"#utility.yul\":7871:7896   */\n      swap3\n      pop\n        /* \"#utility.yul\":7931:7932   */\n      dup3\n        /* \"#utility.yul\":7928:7929   */\n      dup3\n        /* \"#utility.yul\":7924:7933   */\n      mul\n        /* \"#utility.yul\":7953:7983   */\n      tag_436\n        /* \"#utility.yul\":7971:7982   */\n      dup2\n        /* \"#utility.yul\":7953:7983   */\n      tag_278\n      jump\t// in\n    tag_436:\n        /* \"#utility.yul\":7942:7983   */\n      swap2\n      pop\n        /* \"#utility.yul\":8132:8133   */\n      dup3\n        /* \"#utility.yul\":8123:8130   */\n      dup3\n        /* \"#utility.yul\":8119:8134   */\n      div\n        /* \"#utility.yul\":8116:8117   */\n      dup5\n        /* \"#utility.yul\":8113:8135   */\n      eq\n        /* \"#utility.yul\":8093:8094   */\n      dup4\n        /* \"#utility.yul\":8086:8095   */\n      iszero\n        /* \"#utility.yul\":8066:8149   */\n      or\n        /* \"#utility.yul\":8043:8182   */\n      tag_437\n      jumpi\n        /* \"#utility.yul\":8162:8180   */\n      tag_438\n      tag_307\n      jump\t// in\n    tag_438:\n        /* \"#utility.yul\":8043:8182   */\n    tag_437:\n        /* \"#utility.yul\":7827:8189   */\n      pop\n        /* \"#utility.yul\":7779:8189   */\n      swap3\n      swap2\n      pop\n      pop\n      jump\t// out\n        /* \"#utility.yul\":8195:8375   */\n    tag_308:\n        /* \"#utility.yul\":8243:8320   */\n      0x4e487b7100000000000000000000000000000000000000000000000000000000\n        /* \"#utility.yul\":8240:8241   */\n      0x00\n        /* \"#utility.yul\":8233:8321   */\n      mstore\n        /* \"#utility.yul\":8340:8344   */\n      0x12\n        /* \"#utility.yul\":8337:8338   */\n      0x04\n        /* \"#utility.yul\":8330:8345   */\n      mstore\n        /* \"#utility.yul\":8364:8368   */\n      0x24\n        /* \"#utility.yul\":8361:8362   */\n      0x00\n        /* \"#utility.yul\":8354:8369   */\n      revert\n        /* \"#utility.yul\":8381:8566   */\n    tag_107:\n        /* \"#utility.yul\":8421:8422   */\n      0x00\n        /* \"#utility.yul\":8438:8458   */\n      tag_441\n        /* \"#utility.yul\":8456:8457   */\n      dup3\n        /* \"#utility.yul\":8438:8458   */\n      tag_278\n      jump\t// in\n    tag_441:\n        /* \"#utility.yul\":8433:8458   */\n      swap2\n      pop\n        /* \"#utility.yul\":8472:8492   */\n      tag_442\n        /* \"#utility.yul\":8490:8491   */\n      dup4\n        /* \"#utility.yul\":8472:8492   */\n      tag_278\n      jump\t// in\n    tag_442:\n        /* \"#utility.yul\":8467:8492   */\n      swap3\n      pop\n        /* \"#utility.yul\":8511:8512   */\n      dup3\n        /* \"#utility.yul\":8501:8536   */\n      tag_443\n      jumpi\n        /* \"#utility.yul\":8516:8534   */\n      tag_444\n      tag_308\n      jump\t// in\n    tag_444:\n        /* \"#utility.yul\":8501:8536   */\n    tag_443:\n        /* \"#utility.yul\":8558:8559   */\n      dup3\n        /* \"#utility.yul\":8555:8556   */\n      dup3\n        /* \"#utility.yul\":8551:8560   */\n      div\n        /* \"#utility.yul\":8546:8560   */\n      swap1\n      pop\n        /* \"#utility.yul\":8381:8566   */\n      swap3\n      swap2\n      pop\n      pop\n      jump\t// out\n        /* \"#utility.yul\":8572:8766   */\n    tag_109:\n        /* \"#utility.yul\":8612:8616   */\n      0x00\n        /* \"#utility.yul\":8632:8652   */\n      tag_446\n        /* \"#utility.yul\":8650:8651   */\n      dup3\n        /* \"#utility.yul\":8632:8652   */\n      tag_278\n      jump\t// in\n    tag_446:\n        /* \"#utility.yul\":8627:8652   */\n      swap2\n      pop\n        /* \"#utility.yul\":8666:8686   */\n      tag_447\n        /* \"#utility.yul\":8684:8685   */\n      dup4\n        /* \"#utility.yul\":8666:8686   */\n      tag_278\n      jump\t// in\n    tag_447:\n        /* \"#utility.yul\":8661:8686   */\n      swap3\n      pop\n        /* \"#utility.yul\":8710:8711   */\n      dup3\n        /* \"#utility.yul\":8707:8708   */\n      dup3\n        /* \"#utility.yul\":8703:8712   */\n      sub\n        /* \"#utility.yul\":8695:8712   */\n      swap1\n      pop\n        /* \"#utility.yul\":8734:8735   */\n      dup2\n        /* \"#utility.yul\":8728:8732   */\n      dup2\n        /* \"#utility.yul\":8725:8736   */\n      gt\n        /* \"#utility.yul\":8722:8759   */\n      iszero\n      tag_448\n      jumpi\n        /* \"#utility.yul\":8739:8757   */\n      tag_449\n      tag_307\n      jump\t// in\n    tag_449:\n        /* \"#utility.yul\":8722:8759   */\n    tag_448:\n        /* \"#utility.yul\":8572:8766   */\n      swap3\n      swap2\n      pop\n      pop\n      jump\t// out\n        /* \"#utility.yul\":8772:9104   */\n    tag_111:\n        /* \"#utility.yul\":8893:8897   */\n      0x00\n        /* \"#utility.yul\":8931:8933   */\n      0x40\n        /* \"#utility.yul\":8920:8929   */\n      dup3\n        /* \"#utility.yul\":8916:8934   */\n      add\n        /* \"#utility.yul\":8908:8934   */\n      swap1\n      pop\n        /* \"#utility.yul\":8944:9015   */\n      tag_451\n        /* \"#utility.yul\":9012:9013   */\n      0x00\n        /* \"#utility.yul\":9001:9010   */\n      dup4\n        /* \"#utility.yul\":8997:9014   */\n      add\n        /* \"#utility.yul\":8988:8994   */\n      dup6\n        /* \"#utility.yul\":8944:9015   */\n      tag_287\n      jump\t// in\n    tag_451:\n        /* \"#utility.yul\":9025:9097   */\n      tag_452\n        /* \"#utility.yul\":9093:9095   */\n      0x20\n        /* \"#utility.yul\":9082:9091   */\n      dup4\n        /* \"#utility.yul\":9078:9096   */\n      add\n        /* \"#utility.yul\":9069:9075   */\n      dup5\n        /* \"#utility.yul\":9025:9097   */\n      tag_279\n      jump\t// in\n    tag_452:\n        /* \"#utility.yul\":8772:9104   */\n      swap4\n      swap3\n      pop\n      pop\n      pop\n      jump\t// out\n        /* \"#utility.yul\":9110:9226   */\n    tag_309:\n        /* \"#utility.yul\":9180:9201   */\n      tag_454\n        /* \"#utility.yul\":9195:9200   */\n      dup2\n        /* \"#utility.yul\":9180:9201   */\n      tag_295\n      jump\t// in\n    tag_454:\n        /* \"#utility.yul\":9173:9178   */\n      dup2\n        /* \"#utility.yul\":9170:9202   */\n      eq\n        /* \"#utility.yul\":9160:9220   */\n      tag_455\n      jumpi\n        /* \"#utility.yul\":9216:9217   */\n      0x00\n        /* \"#utility.yul\":9213:9214   */\n      dup1\n        /* \"#utility.yul\":9206:9218   */\n      revert\n        /* \"#utility.yul\":9160:9220   */\n    tag_455:\n        /* \"#utility.yul\":9110:9226   */\n      pop\n      jump\t// out\n        /* \"#utility.yul\":9232:9369   */\n    tag_310:\n        /* \"#utility.yul\":9286:9291   */\n      0x00\n        /* \"#utility.yul\":9317:9323   */\n      dup2\n        /* \"#utility.yul\":9311:9324   */\n      mload\n        /* \"#utility.yul\":9302:9324   */\n      swap1\n      pop\n        /* \"#utility.yul\":9333:9363   */\n      tag_457\n        /* \"#utility.yul\":9357:9362   */\n      dup2\n        /* \"#utility.yul\":9333:9363   */\n      tag_309\n      jump\t// in\n    tag_457:\n        /* \"#utility.yul\":9232:9369   */\n      swap3\n      swap2\n      pop\n      pop\n      jump\t// out\n        /* \"#utility.yul\":9375:9720   */\n    tag_115:\n        /* \"#utility.yul\":9442:9448   */\n      0x00\n        /* \"#utility.yul\":9491:9493   */\n      0x20\n        /* \"#utility.yul\":9479:9488   */\n      dup3\n        /* \"#utility.yul\":9470:9477   */\n      dup5\n        /* \"#utility.yul\":9466:9489   */\n      sub\n        /* \"#utility.yul\":9462:9494   */\n      slt\n        /* \"#utility.yul\":9459:9578   */\n      iszero\n      tag_459\n      jumpi\n        /* \"#utility.yul\":9497:9576   */\n      tag_460\n      tag_281\n      jump\t// in\n    tag_460:\n        /* \"#utility.yul\":9459:9578   */\n    tag_459:\n        /* \"#utility.yul\":9617:9618   */\n      0x00\n        /* \"#utility.yul\":9642:9703   */\n      tag_461\n        /* \"#utility.yul\":9695:9702   */\n      dup5\n        /* \"#utility.yul\":9686:9692   */\n      dup3\n        /* \"#utility.yul\":9675:9684   */\n      dup6\n        /* \"#utility.yul\":9671:9693   */\n      add\n        /* \"#utility.yul\":9642:9703   */\n      tag_310\n      jump\t// in\n    tag_461:\n        /* \"#utility.yul\":9632:9703   */\n      swap2\n      pop\n        /* \"#utility.yul\":9588:9713   */\n      pop\n        /* \"#utility.yul\":9375:9720   */\n      swap3\n      swap2\n      pop\n      pop\n      jump\t// out\n        /* \"#utility.yul\":9726:9893   */\n    tag_311:\n        /* \"#utility.yul\":9866:9885   */\n      0x526166666c65206e6f7420616374697665000000000000000000000000000000\n        /* \"#utility.yul\":9862:9863   */\n      0x00\n        /* \"#utility.yul\":9854:9860   */\n      dup3\n        /* \"#utility.yul\":9850:9864   */\n      add\n        /* \"#utility.yul\":9843:9886   */\n      mstore\n        /* \"#utility.yul\":9726:9893   */\n      pop\n      jump\t// out\n        /* \"#utility.yul\":9899:10265   */\n    tag_312:\n        /* \"#utility.yul\":10041:10044   */\n      0x00\n        /* \"#utility.yul\":10062:10129   */\n      tag_464\n        /* \"#utility.yul\":10126:10128   */\n      0x11\n        /* \"#utility.yul\":10121:10124   */\n      dup4\n        /* \"#utility.yul\":10062:10129   */\n      tag_298\n      jump\t// in\n    tag_464:\n        /* \"#utility.yul\":10055:10129   */\n      swap2\n      pop\n        /* \"#utility.yul\":10138:10231   */\n      tag_465\n        /* \"#utility.yul\":10227:10230   */\n      dup3\n        /* \"#utility.yul\":10138:10231   */\n      tag_311\n      jump\t// in\n    tag_465:\n        /* \"#utility.yul\":10256:10258   */\n      0x20\n        /* \"#utility.yul\":10251:10254   */\n      dup3\n        /* \"#utility.yul\":10247:10259   */\n      add\n        /* \"#utility.yul\":10240:10259   */\n      swap1\n      pop\n        /* \"#utility.yul\":9899:10265   */\n      swap2\n      swap1\n      pop\n      jump\t// out\n        /* \"#utility.yul\":10271:10690   */\n    tag_125:\n        /* \"#utility.yul\":10437:10441   */\n      0x00\n        /* \"#utility.yul\":10475:10477   */\n      0x20\n        /* \"#utility.yul\":10464:10473   */\n      dup3\n        /* \"#utility.yul\":10460:10478   */\n      add\n        /* \"#utility.yul\":10452:10478   */\n      swap1\n      pop\n        /* \"#utility.yul\":10524:10533   */\n      dup2\n        /* \"#utility.yul\":10518:10522   */\n      dup2\n        /* \"#utility.yul\":10514:10534   */\n      sub\n        /* \"#utility.yul\":10510:10511   */\n      0x00\n        /* \"#utility.yul\":10499:10508   */\n      dup4\n        /* \"#utility.yul\":10495:10512   */\n      add\n        /* \"#utility.yul\":10488:10535   */\n      mstore\n        /* \"#utility.yul\":10552:10683   */\n      tag_467\n        /* \"#utility.yul\":10678:10682   */\n      dup2\n        /* \"#utility.yul\":10552:10683   */\n      tag_312\n      jump\t// in\n    tag_467:\n        /* \"#utility.yul\":10544:10683   */\n      swap1\n      pop\n        /* \"#utility.yul\":10271:10690   */\n      swap2\n      swap1\n      pop\n      jump\t// out\n        /* \"#utility.yul\":10696:10869   */\n    tag_313:\n        /* \"#utility.yul\":10836:10861   */\n      0x4e6f7420656e6f756768207061727469636970616e7473000000000000000000\n        /* \"#utility.yul\":10832:10833   */\n      0x00\n        /* \"#utility.yul\":10824:10830   */\n      dup3\n        /* \"#utility.yul\":10820:10834   */\n      add\n        /* \"#utility.yul\":10813:10862   */\n      mstore\n        /* \"#utility.yul\":10696:10869   */\n      pop\n      jump\t// out\n        /* \"#utility.yul\":10875:11241   */\n    tag_314:\n        /* \"#utility.yul\":11017:11020   */\n      0x00\n        /* \"#utility.yul\":11038:11105   */\n      tag_470\n        /* \"#utility.yul\":11102:11104   */\n      0x17\n        /* \"#utility.yul\":11097:11100   */\n      dup4\n        /* \"#utility.yul\":11038:11105   */\n      tag_298\n      jump\t// in\n    tag_470:\n        /* \"#utility.yul\":11031:11105   */\n      swap2\n      pop\n        /* \"#utility.yul\":11114:11207   */\n      tag_471\n        /* \"#utility.yul\":11203:11206   */\n      dup3\n        /* \"#utility.yul\":11114:11207   */\n      tag_313\n      jump\t// in\n    tag_471:\n        /* \"#utility.yul\":11232:11234   */\n      0x20\n        /* \"#utility.yul\":11227:11230   */\n      dup3\n        /* \"#utility.yul\":11223:11235   */\n      add\n        /* \"#utility.yul\":11216:11235   */\n      swap1\n      pop\n        /* \"#utility.yul\":10875:11241   */\n      swap2\n      swap1\n      pop\n      jump\t// out\n        /* \"#utility.yul\":11247:11666   */\n    tag_128:\n        /* \"#utility.yul\":11413:11417   */\n      0x00\n        /* \"#utility.yul\":11451:11453   */\n      0x20\n        /* \"#utility.yul\":11440:11449   */\n      dup3\n        /* \"#utility.yul\":11436:11454   */\n      add\n        /* \"#utility.yul\":11428:11454   */\n      swap1\n      pop\n        /* \"#utility.yul\":11500:11509   */\n      dup2\n        /* \"#utility.yul\":11494:11498   */\n      dup2\n        /* \"#utility.yul\":11490:11510   */\n      sub\n        /* \"#utility.yul\":11486:11487   */\n      0x00\n        /* \"#utility.yul\":11475:11484   */\n      dup4\n        /* \"#utility.yul\":11471:11488   */\n      add\n        /* \"#utility.yul\":11464:11511   */\n      mstore\n        /* \"#utility.yul\":11528:11659   */\n      tag_473\n        /* \"#utility.yul\":11654:11658   */\n      dup2\n        /* \"#utility.yul\":11528:11659   */\n      tag_314\n      jump\t// in\n    tag_473:\n        /* \"#utility.yul\":11520:11659   */\n      swap1\n      pop\n        /* \"#utility.yul\":11247:11666   */\n      swap2\n      swap1\n      pop\n      jump\t// out\n        /* \"#utility.yul\":11672:11751   */\n    tag_315:\n        /* \"#utility.yul\":11711:11718   */\n      0x00\n        /* \"#utility.yul\":11740:11745   */\n      dup2\n        /* \"#utility.yul\":11729:11745   */\n      swap1\n      pop\n        /* \"#utility.yul\":11672:11751   */\n      swap2\n      swap1\n      pop\n      jump\t// out\n        /* \"#utility.yul\":11757:11914   */\n    tag_316:\n        /* \"#utility.yul\":11862:11907   */\n      tag_476\n        /* \"#utility.yul\":11882:11906   */\n      tag_477\n        /* \"#utility.yul\":11900:11905   */\n      dup3\n        /* \"#utility.yul\":11882:11906   */\n      tag_278\n      jump\t// in\n    tag_477:\n        /* \"#utility.yul\":11862:11907   */\n      tag_315\n      jump\t// in\n    tag_476:\n        /* \"#utility.yul\":11857:11860   */\n      dup3\n        /* \"#utility.yul\":11850:11908   */\n      mstore\n        /* \"#utility.yul\":11757:11914   */\n      pop\n      pop\n      jump\t// out\n        /* \"#utility.yul\":11920:12031   */\n    tag_317:\n        /* \"#utility.yul\":11984:11990   */\n      0x00\n        /* \"#utility.yul\":12018:12023   */\n      dup2\n        /* \"#utility.yul\":12012:12024   */\n      sload\n        /* \"#utility.yul\":12002:12024   */\n      swap1\n      pop\n        /* \"#utility.yul\":11920:12031   */\n      swap2\n      swap1\n      pop\n      jump\t// out\n        /* \"#utility.yul\":12037:12200   */\n    tag_318:\n        /* \"#utility.yul\":12154:12165   */\n      0x00\n        /* \"#utility.yul\":12191:12194   */\n      dup2\n        /* \"#utility.yul\":12176:12194   */\n      swap1\n      pop\n        /* \"#utility.yul\":12037:12200   */\n      swap3\n      swap2\n      pop\n      pop\n      jump\t// out\n        /* \"#utility.yul\":12206:12362   */\n    tag_319:\n        /* \"#utility.yul\":12270:12274   */\n      0x00\n        /* \"#utility.yul\":12293:12296   */\n      dup2\n        /* \"#utility.yul\":12285:12296   */\n      swap1\n      pop\n        /* \"#utility.yul\":12316:12319   */\n      dup2\n        /* \"#utility.yul\":12313:12314   */\n      0x00\n        /* \"#utility.yul\":12306:12320   */\n      mstore\n        /* \"#utility.yul\":12350:12354   */\n      0x20\n        /* \"#utility.yul\":12347:12348   */\n      0x00\n        /* \"#utility.yul\":12337:12355   */\n      keccak256\n        /* \"#utility.yul\":12329:12355   */\n      swap1\n      pop\n        /* \"#utility.yul\":12206:12362   */\n      swap2\n      swap1\n      pop\n      jump\t// out\n        /* \"#utility.yul\":12368:12484   */\n    tag_320:\n        /* \"#utility.yul\":12453:12477   */\n      tag_482\n        /* \"#utility.yul\":12471:12476   */\n      dup2\n        /* \"#utility.yul\":12453:12477   */\n      tag_286\n      jump\t// in\n    tag_482:\n        /* \"#utility.yul\":12448:12451   */\n      dup3\n        /* \"#utility.yul\":12441:12478   */\n      mstore\n        /* \"#utility.yul\":12368:12484   */\n      pop\n      pop\n      jump\t// out\n        /* \"#utility.yul\":12490:12685   */\n    tag_321:\n        /* \"#utility.yul\":12567:12577   */\n      0x00\n        /* \"#utility.yul\":12588:12642   */\n      tag_484\n        /* \"#utility.yul\":12638:12641   */\n      dup4\n        /* \"#utility.yul\":12630:12636   */\n      dup4\n        /* \"#utility.yul\":12588:12642   */\n      tag_320\n      jump\t// in\n    tag_484:\n        /* \"#utility.yul\":12674:12678   */\n      0x20\n        /* \"#utility.yul\":12669:12672   */\n      dup4\n        /* \"#utility.yul\":12665:12679   */\n      add\n        /* \"#utility.yul\":12651:12679   */\n      swap1\n      pop\n        /* \"#utility.yul\":12490:12685   */\n      swap3\n      swap2\n      pop\n      pop\n      jump\t// out\n        /* \"#utility.yul\":12691:12793   */\n    tag_322:\n        /* \"#utility.yul\":12733:12741   */\n      0x00\n        /* \"#utility.yul\":12780:12785   */\n      dup2\n        /* \"#utility.yul\":12777:12778   */\n      0x00\n        /* \"#utility.yul\":12773:12786   */\n      shr\n        /* \"#utility.yul\":12752:12786   */\n      swap1\n      pop\n        /* \"#utility.yul\":12691:12793   */\n      swap2\n      swap1\n      pop\n      jump\t// out\n        /* \"#utility.yul\":12799:12938   */\n    tag_323:\n        /* \"#utility.yul\":12849:12856   */\n      0x00\n        /* \"#utility.yul\":12889:12931   */\n      0xffffffffffffffffffffffffffffffffffffffff\n        /* \"#utility.yul\":12882:12887   */\n      dup3\n        /* \"#utility.yul\":12878:12932   */\n      and\n        /* \"#utility.yul\":12867:12932   */\n      swap1\n      pop\n        /* \"#utility.yul\":12799:12938   */\n      swap2\n      swap1\n      pop\n      jump\t// out\n        /* \"#utility.yul\":12944:13110   */\n    tag_324:\n        /* \"#utility.yul\":13013:13018   */\n      0x00\n        /* \"#utility.yul\":13038:13104   */\n      tag_488\n        /* \"#utility.yul\":13069:13103   */\n      tag_489\n        /* \"#utility.yul\":13092:13102   */\n      dup4\n        /* \"#utility.yul\":13069:13103   */\n      tag_322\n      jump\t// in\n    tag_489:\n        /* \"#utility.yul\":13038:13104   */\n      tag_323\n      jump\t// in\n    tag_488:\n        /* \"#utility.yul\":13029:13104   */\n      swap1\n      pop\n        /* \"#utility.yul\":12944:13110   */\n      swap2\n      swap1\n      pop\n      jump\t// out\n        /* \"#utility.yul\":13116:13260   */\n    tag_325:\n        /* \"#utility.yul\":13171:13176   */\n      0x00\n        /* \"#utility.yul\":13196:13253   */\n      tag_491\n        /* \"#utility.yul\":13247:13251   */\n      dup3\n        /* \"#utility.yul\":13241:13252   */\n      sload\n        /* \"#utility.yul\":13196:13253   */\n      tag_324\n      jump\t// in\n    tag_491:\n        /* \"#utility.yul\":13187:13253   */\n      swap1\n      pop\n        /* \"#utility.yul\":13116:13260   */\n      swap2\n      swap1\n      pop\n      jump\t// out\n        /* \"#utility.yul\":13266:13376   */\n    tag_326:\n        /* \"#utility.yul\":13333:13337   */\n      0x00\n        /* \"#utility.yul\":13365:13369   */\n      0x01\n        /* \"#utility.yul\":13360:13363   */\n      dup3\n        /* \"#utility.yul\":13356:13370   */\n      add\n        /* \"#utility.yul\":13348:13370   */\n      swap1\n      pop\n        /* \"#utility.yul\":13266:13376   */\n      swap2\n      swap1\n      pop\n      jump\t// out\n        /* \"#utility.yul\":13412:14207   */\n    tag_327:\n        /* \"#utility.yul\":13546:13549   */\n      0x00\n        /* \"#utility.yul\":13575:13626   */\n      tag_494\n        /* \"#utility.yul\":13620:13625   */\n      dup3\n        /* \"#utility.yul\":13575:13626   */\n      tag_317\n      jump\t// in\n    tag_494:\n        /* \"#utility.yul\":13642:13746   */\n      tag_495\n        /* \"#utility.yul\":13739:13745   */\n      dup2\n        /* \"#utility.yul\":13734:13737   */\n      dup6\n        /* \"#utility.yul\":13642:13746   */\n      tag_318\n      jump\t// in\n    tag_495:\n        /* \"#utility.yul\":13635:13746   */\n      swap4\n      pop\n        /* \"#utility.yul\":13770:13823   */\n      tag_496\n        /* \"#utility.yul\":13817:13822   */\n      dup4\n        /* \"#utility.yul\":13770:13823   */\n      tag_319\n      jump\t// in\n    tag_496:\n        /* \"#utility.yul\":13846:13853   */\n      dup1\n        /* \"#utility.yul\":13877:13878   */\n      0x00\n        /* \"#utility.yul\":13862:14182   */\n    tag_497:\n        /* \"#utility.yul\":13887:13893   */\n      dup4\n        /* \"#utility.yul\":13884:13885   */\n      dup2\n        /* \"#utility.yul\":13881:13894   */\n      lt\n        /* \"#utility.yul\":13862:14182   */\n      iszero\n      tag_499\n      jumpi\n        /* \"#utility.yul\":13957:14001   */\n      tag_500\n        /* \"#utility.yul\":13994:14000   */\n      dup3\n        /* \"#utility.yul\":13957:14001   */\n      tag_325\n      jump\t// in\n    tag_500:\n        /* \"#utility.yul\":14021:14092   */\n      tag_501\n        /* \"#utility.yul\":14088:14091   */\n      dup9\n        /* \"#utility.yul\":14073:14086   */\n      dup3\n        /* \"#utility.yul\":14021:14092   */\n      tag_321\n      jump\t// in\n    tag_501:\n        /* \"#utility.yul\":14014:14092   */\n      swap8\n      pop\n        /* \"#utility.yul\":14115:14172   */\n      tag_502\n        /* \"#utility.yul\":14165:14171   */\n      dup4\n        /* \"#utility.yul\":14115:14172   */\n      tag_326\n      jump\t// in\n    tag_502:\n        /* \"#utility.yul\":14105:14172   */\n      swap3\n      pop\n        /* \"#utility.yul\":13922:14182   */\n      pop\n        /* \"#utility.yul\":13909:13910   */\n      0x01\n        /* \"#utility.yul\":13906:13907   */\n      dup2\n        /* \"#utility.yul\":13902:13911   */\n      add\n        /* \"#utility.yul\":13897:13911   */\n      swap1\n      pop\n        /* \"#utility.yul\":13862:14182   */\n      jump(tag_497)\n    tag_499:\n        /* \"#utility.yul\":13866:13880   */\n      pop\n        /* \"#utility.yul\":14198:14201   */\n      dup6\n        /* \"#utility.yul\":14191:14201   */\n      swap4\n      pop\n        /* \"#utility.yul\":13551:14207   */\n      pop\n      pop\n      pop\n        /* \"#utility.yul\":13412:14207   */\n      swap3\n      swap2\n      pop\n      pop\n      jump\t// out\n        /* \"#utility.yul\":14213:14824   */\n    tag_142:\n        /* \"#utility.yul\":14428:14431   */\n      0x00\n        /* \"#utility.yul\":14443:14518   */\n      tag_504\n        /* \"#utility.yul\":14514:14517   */\n      dup3\n        /* \"#utility.yul\":14505:14511   */\n      dup7\n        /* \"#utility.yul\":14443:14518   */\n      tag_316\n      jump\t// in\n    tag_504:\n        /* \"#utility.yul\":14543:14545   */\n      0x20\n        /* \"#utility.yul\":14538:14541   */\n      dup3\n        /* \"#utility.yul\":14534:14546   */\n      add\n        /* \"#utility.yul\":14527:14546   */\n      swap2\n      pop\n        /* \"#utility.yul\":14556:14631   */\n      tag_505\n        /* \"#utility.yul\":14627:14630   */\n      dup3\n        /* \"#utility.yul\":14618:14624   */\n      dup6\n        /* \"#utility.yul\":14556:14631   */\n      tag_316\n      jump\t// in\n    tag_505:\n        /* \"#utility.yul\":14656:14658   */\n      0x20\n        /* \"#utility.yul\":14651:14654   */\n      dup3\n        /* \"#utility.yul\":14647:14659   */\n      add\n        /* \"#utility.yul\":14640:14659   */\n      swap2\n      pop\n        /* \"#utility.yul\":14676:14798   */\n      tag_506\n        /* \"#utility.yul\":14794:14797   */\n      dup3\n        /* \"#utility.yul\":14785:14791   */\n      dup5\n        /* \"#utility.yul\":14676:14798   */\n      tag_327\n      jump\t// in\n    tag_506:\n        /* \"#utility.yul\":14669:14798   */\n      swap2\n      pop\n        /* \"#utility.yul\":14815:14818   */\n      dup2\n        /* \"#utility.yul\":14808:14818   */\n      swap1\n      pop\n        /* \"#utility.yul\":14213:14824   */\n      swap5\n      swap4\n      pop\n      pop\n      pop\n      pop\n      jump\t// out\n        /* \"#utility.yul\":14830:15006   */\n    tag_144:\n        /* \"#utility.yul\":14862:14863   */\n      0x00\n        /* \"#utility.yul\":14879:14899   */\n      tag_508\n        /* \"#utility.yul\":14897:14898   */\n      dup3\n        /* \"#utility.yul\":14879:14899   */\n      tag_278\n      jump\t// in\n    tag_508:\n        /* \"#utility.yul\":14874:14899   */\n      swap2\n      pop\n        /* \"#utility.yul\":14913:14933   */\n      tag_509\n        /* \"#utility.yul\":14931:14932   */\n      dup4\n        /* \"#utility.yul\":14913:14933   */\n      tag_278\n      jump\t// in\n    tag_509:\n        /* \"#utility.yul\":14908:14933   */\n      swap3\n      pop\n        /* \"#utility.yul\":14952:14953   */\n      dup3\n        /* \"#utility.yul\":14942:14977   */\n      tag_510\n      jumpi\n        /* \"#utility.yul\":14957:14975   */\n      tag_511\n      tag_308\n      jump\t// in\n    tag_511:\n        /* \"#utility.yul\":14942:14977   */\n    tag_510:\n        /* \"#utility.yul\":14998:14999   */\n      dup3\n        /* \"#utility.yul\":14995:14996   */\n      dup3\n        /* \"#utility.yul\":14991:15000   */\n      mod\n        /* \"#utility.yul\":14986:15000   */\n      swap1\n      pop\n        /* \"#utility.yul\":14830:15006   */\n      swap3\n      swap2\n      pop\n      pop\n      jump\t// out\n        /* \"#utility.yul\":15012:15192   */\n    tag_147:\n        /* \"#utility.yul\":15060:15137   */\n      0x4e487b7100000000000000000000000000000000000000000000000000000000\n        /* \"#utility.yul\":15057:15058   */\n      0x00\n        /* \"#utility.yul\":15050:15138   */\n      mstore\n        /* \"#utility.yul\":15157:15161   */\n      0x32\n        /* \"#utility.yul\":15154:15155   */\n      0x04\n        /* \"#utility.yul\":15147:15162   */\n      mstore\n        /* \"#utility.yul\":15181:15185   */\n      0x24\n        /* \"#utility.yul\":15178:15179   */\n      0x00\n        /* \"#utility.yul\":15171:15186   */\n      revert\n        /* \"#utility.yul\":15198:15378   */\n    tag_170:\n        /* \"#utility.yul\":15246:15323   */\n      0x4e487b7100000000000000000000000000000000000000000000000000000000\n        /* \"#utility.yul\":15243:15244   */\n      0x00\n        /* \"#utility.yul\":15236:15324   */\n      mstore\n        /* \"#utility.yul\":15343:15347   */\n      0x31\n        /* \"#utility.yul\":15340:15341   */\n      0x04\n        /* \"#utility.yul\":15333:15348   */\n      mstore\n        /* \"#utility.yul\":15367:15371   */\n      0x24\n        /* \"#utility.yul\":15364:15365   */\n      0x00\n        /* \"#utility.yul\":15357:15372   */\n      revert\n        /* \"#utility.yul\":15384:15485   */\n    tag_328:\n        /* \"#utility.yul\":15446:15452   */\n      0x00\n        /* \"#utility.yul\":15474:15478   */\n      0x03\n        /* \"#utility.yul\":15464:15478   */\n      swap1\n      pop\n        /* \"#utility.yul\":15384:15485   */\n      swap2\n      swap1\n      pop\n      jump\t// out\n        /* \"#utility.yul\":15491:15652   */\n    tag_329:\n        /* \"#utility.yul\":15606:15617   */\n      0x00\n        /* \"#utility.yul\":15643:15646   */\n      dup2\n        /* \"#utility.yul\":15628:15646   */\n      swap1\n      pop\n        /* \"#utility.yul\":15491:15652   */\n      swap3\n      swap2\n      pop\n      pop\n      jump\t// out\n        /* \"#utility.yul\":15658:15753   */\n    tag_330:\n        /* \"#utility.yul\":15720:15724   */\n      0x00\n        /* \"#utility.yul\":15743:15746   */\n      dup2\n        /* \"#utility.yul\":15735:15746   */\n      swap1\n      pop\n        /* \"#utility.yul\":15658:15753   */\n      swap2\n      swap1\n      pop\n      jump\t// out\n        /* \"#utility.yul\":15759:15867   */\n    tag_331:\n        /* \"#utility.yul\":15824:15828   */\n      0x00\n        /* \"#utility.yul\":15856:15860   */\n      0x01\n        /* \"#utility.yul\":15851:15854   */\n      dup3\n        /* \"#utility.yul\":15847:15861   */\n      add\n        /* \"#utility.yul\":15839:15861   */\n      swap1\n      pop\n        /* \"#utility.yul\":15759:15867   */\n      swap2\n      swap1\n      pop\n      jump\t// out\n        /* \"#utility.yul\":15905:16662   */\n    tag_332:\n        /* \"#utility.yul\":16056:16105   */\n      tag_519\n        /* \"#utility.yul\":16099:16104   */\n      dup2\n        /* \"#utility.yul\":16056:16105   */\n      tag_328\n      jump\t// in\n    tag_519:\n        /* \"#utility.yul\":16121:16223   */\n      tag_520\n        /* \"#utility.yul\":16216:16222   */\n      dup2\n        /* \"#utility.yul\":16211:16214   */\n      dup5\n        /* \"#utility.yul\":16121:16223   */\n      tag_329\n      jump\t// in\n    tag_520:\n        /* \"#utility.yul\":16114:16223   */\n      swap3\n      pop\n        /* \"#utility.yul\":16247:16298   */\n      tag_521\n        /* \"#utility.yul\":16292:16297   */\n      dup3\n        /* \"#utility.yul\":16247:16298   */\n      tag_330\n      jump\t// in\n    tag_521:\n        /* \"#utility.yul\":16321:16328   */\n      dup1\n        /* \"#utility.yul\":16352:16353   */\n      0x00\n        /* \"#utility.yul\":16337:16655   */\n    tag_522:\n        /* \"#utility.yul\":16362:16368   */\n      dup4\n        /* \"#utility.yul\":16359:16360   */\n      dup2\n        /* \"#utility.yul\":16356:16369   */\n      lt\n        /* \"#utility.yul\":16337:16655   */\n      iszero\n      tag_524\n      jumpi\n        /* \"#utility.yul\":16432:16476   */\n      tag_525\n        /* \"#utility.yul\":16469:16475   */\n      dup3\n        /* \"#utility.yul\":16432:16476   */\n      tag_325\n      jump\t// in\n    tag_525:\n        /* \"#utility.yul\":16496:16567   */\n      tag_526\n        /* \"#utility.yul\":16563:16566   */\n      dup8\n        /* \"#utility.yul\":16548:16561   */\n      dup3\n        /* \"#utility.yul\":16496:16567   */\n      tag_321\n      jump\t// in\n    tag_526:\n        /* \"#utility.yul\":16489:16567   */\n      swap7\n      pop\n        /* \"#utility.yul\":16590:16645   */\n      tag_527\n        /* \"#utility.yul\":16638:16644   */\n      dup4\n        /* \"#utility.yul\":16590:16645   */\n      tag_331\n      jump\t// in\n    tag_527:\n        /* \"#utility.yul\":16580:16645   */\n      swap3\n      pop\n        /* \"#utility.yul\":16397:16655   */\n      pop\n        /* \"#utility.yul\":16384:16385   */\n      0x01\n        /* \"#utility.yul\":16381:16382   */\n      dup2\n        /* \"#utility.yul\":16377:16386   */\n      add\n        /* \"#utility.yul\":16372:16386   */\n      swap1\n      pop\n        /* \"#utility.yul\":16337:16655   */\n      jump(tag_522)\n    tag_524:\n        /* \"#utility.yul\":16341:16355   */\n      pop\n        /* \"#utility.yul\":16032:16662   */\n      pop\n      pop\n      pop\n        /* \"#utility.yul\":15905:16662   */\n      pop\n      pop\n      jump\t// out\n        /* \"#utility.yul\":16668:17010   */\n    tag_173:\n        /* \"#utility.yul\":16823:16826   */\n      0x00\n        /* \"#utility.yul\":16838:16956   */\n      tag_529\n        /* \"#utility.yul\":16952:16955   */\n      dup3\n        /* \"#utility.yul\":16943:16949   */\n      dup5\n        /* \"#utility.yul\":16838:16956   */\n      tag_332\n      jump\t// in\n    tag_529:\n        /* \"#utility.yul\":16981:16983   */\n      0x60\n        /* \"#utility.yul\":16976:16979   */\n      dup3\n        /* \"#utility.yul\":16972:16984   */\n      add\n        /* \"#utility.yul\":16965:16984   */\n      swap2\n      pop\n        /* \"#utility.yul\":17001:17004   */\n      dup2\n        /* \"#utility.yul\":16994:17004   */\n      swap1\n      pop\n        /* \"#utility.yul\":16668:17010   */\n      swap3\n      swap2\n      pop\n      pop\n      jump\t// out\n        /* \"#utility.yul\":17016:17120   */\n    tag_333:\n        /* \"#utility.yul\":17081:17087   */\n      0x00\n        /* \"#utility.yul\":17109:17113   */\n      0x03\n        /* \"#utility.yul\":17099:17113   */\n      swap1\n      pop\n        /* \"#utility.yul\":17016:17120   */\n      swap2\n      swap1\n      pop\n      jump\t// out\n        /* \"#utility.yul\":17126:17269   */\n    tag_334:\n        /* \"#utility.yul\":17223:17234   */\n      0x00\n        /* \"#utility.yul\":17260:17263   */\n      dup2\n        /* \"#utility.yul\":17245:17263   */\n      swap1\n      pop\n        /* \"#utility.yul\":17126:17269   */\n      swap3\n      swap2\n      pop\n      pop\n      jump\t// out\n        /* \"#utility.yul\":17275:17373   */\n    tag_335:\n        /* \"#utility.yul\":17340:17344   */\n      0x00\n        /* \"#utility.yul\":17363:17366   */\n      dup2\n        /* \"#utility.yul\":17355:17366   */\n      swap1\n      pop\n        /* \"#utility.yul\":17275:17373   */\n      swap2\n      swap1\n      pop\n      jump\t// out\n        /* \"#utility.yul\":17379:17487   */\n    tag_336:\n        /* \"#utility.yul\":17456:17480   */\n      tag_534\n        /* \"#utility.yul\":17474:17479   */\n      dup2\n        /* \"#utility.yul\":17456:17480   */\n      tag_278\n      jump\t// in\n    tag_534:\n        /* \"#utility.yul\":17451:17454   */\n      dup3\n        /* \"#utility.yul\":17444:17481   */\n      mstore\n        /* \"#utility.yul\":17379:17487   */\n      pop\n      pop\n      jump\t// out\n        /* \"#utility.yul\":17493:17672   */\n    tag_337:\n        /* \"#utility.yul\":17562:17572   */\n      0x00\n        /* \"#utility.yul\":17583:17629   */\n      tag_536\n        /* \"#utility.yul\":17625:17628   */\n      dup4\n        /* \"#utility.yul\":17617:17623   */\n      dup4\n        /* \"#utility.yul\":17583:17629   */\n      tag_336\n      jump\t// in\n    tag_536:\n        /* \"#utility.yul\":17661:17665   */\n      0x20\n        /* \"#utility.yul\":17656:17659   */\n      dup4\n        /* \"#utility.yul\":17652:17666   */\n      add\n        /* \"#utility.yul\":17638:17666   */\n      swap1\n      pop\n        /* \"#utility.yul\":17493:17672   */\n      swap3\n      swap2\n      pop\n      pop\n      jump\t// out\n        /* \"#utility.yul\":17678:17789   */\n    tag_338:\n        /* \"#utility.yul\":17746:17750   */\n      0x00\n        /* \"#utility.yul\":17778:17782   */\n      0x20\n        /* \"#utility.yul\":17773:17776   */\n      dup3\n        /* \"#utility.yul\":17769:17783   */\n      add\n        /* \"#utility.yul\":17761:17783   */\n      swap1\n      pop\n        /* \"#utility.yul\":17678:17789   */\n      swap2\n      swap1\n      pop\n      jump\t// out\n        /* \"#utility.yul\":17827:18521   */\n    tag_339:\n        /* \"#utility.yul\":17963:18015   */\n      tag_539\n        /* \"#utility.yul\":18009:18014   */\n      dup2\n        /* \"#utility.yul\":17963:18015   */\n      tag_333\n      jump\t// in\n    tag_539:\n        /* \"#utility.yul\":18031:18115   */\n      tag_540\n        /* \"#utility.yul\":18108:18114   */\n      dup2\n        /* \"#utility.yul\":18103:18106   */\n      dup5\n        /* \"#utility.yul\":18031:18115   */\n      tag_334\n      jump\t// in\n    tag_540:\n        /* \"#utility.yul\":18024:18115   */\n      swap3\n      pop\n        /* \"#utility.yul\":18139:18193   */\n      tag_541\n        /* \"#utility.yul\":18187:18192   */\n      dup3\n        /* \"#utility.yul\":18139:18193   */\n      tag_335\n      jump\t// in\n    tag_541:\n        /* \"#utility.yul\":18216:18223   */\n      dup1\n        /* \"#utility.yul\":18247:18248   */\n      0x00\n        /* \"#utility.yul\":18232:18514   */\n    tag_542:\n        /* \"#utility.yul\":18257:18263   */\n      dup4\n        /* \"#utility.yul\":18254:18255   */\n      dup2\n        /* \"#utility.yul\":18251:18264   */\n      lt\n        /* \"#utility.yul\":18232:18514   */\n      iszero\n      tag_544\n      jumpi\n        /* \"#utility.yul\":18333:18339   */\n      dup2\n        /* \"#utility.yul\":18327:18340   */\n      mload\n        /* \"#utility.yul\":18360:18423   */\n      tag_545\n        /* \"#utility.yul\":18419:18422   */\n      dup8\n        /* \"#utility.yul\":18404:18417   */\n      dup3\n        /* \"#utility.yul\":18360:18423   */\n      tag_337\n      jump\t// in\n    tag_545:\n        /* \"#utility.yul\":18353:18423   */\n      swap7\n      pop\n        /* \"#utility.yul\":18446:18504   */\n      tag_546\n        /* \"#utility.yul\":18497:18503   */\n      dup4\n        /* \"#utility.yul\":18446:18504   */\n      tag_338\n      jump\t// in\n    tag_546:\n        /* \"#utility.yul\":18436:18504   */\n      swap3\n      pop\n        /* \"#utility.yul\":18292:18514   */\n      pop\n        /* \"#utility.yul\":18279:18280   */\n      0x01\n        /* \"#utility.yul\":18276:18277   */\n      dup2\n        /* \"#utility.yul\":18272:18281   */\n      add\n        /* \"#utility.yul\":18267:18281   */\n      swap1\n      pop\n        /* \"#utility.yul\":18232:18514   */\n      jump(tag_542)\n    tag_544:\n        /* \"#utility.yul\":18236:18250   */\n      pop\n        /* \"#utility.yul\":17939:18521   */\n      pop\n      pop\n      pop\n        /* \"#utility.yul\":17827:18521   */\n      pop\n      pop\n      jump\t// out\n        /* \"#utility.yul\":18527:18841   */\n    tag_175:\n        /* \"#utility.yul\":18666:18670   */\n      0x00\n        /* \"#utility.yul\":18704:18706   */\n      0x60\n        /* \"#utility.yul\":18693:18702   */\n      dup3\n        /* \"#utility.yul\":18689:18707   */\n      add\n        /* \"#utility.yul\":18681:18707   */\n      swap1\n      pop\n        /* \"#utility.yul\":18717:18834   */\n      tag_548\n        /* \"#utility.yul\":18831:18832   */\n      0x00\n        /* \"#utility.yul\":18820:18829   */\n      dup4\n        /* \"#utility.yul\":18816:18833   */\n      add\n        /* \"#utility.yul\":18807:18813   */\n      dup5\n        /* \"#utility.yul\":18717:18834   */\n      tag_339\n      jump\t// in\n    tag_548:\n        /* \"#utility.yul\":18527:18841   */\n      swap3\n      swap2\n      pop\n      pop\n      jump\t// out\n        /* \"#utility.yul\":18847:18995   */\n    tag_340:\n        /* \"#utility.yul\":18949:18960   */\n      0x00\n        /* \"#utility.yul\":18986:18989   */\n      dup2\n        /* \"#utility.yul\":18971:18989   */\n      swap1\n      pop\n        /* \"#utility.yul\":18847:18995   */\n      swap3\n      swap2\n      pop\n      pop\n      jump\t// out\n        /* \"#utility.yul\":19001:19181   */\n    tag_341:\n        /* \"#utility.yul\":19141:19173   */\n      0x596f7572206f646473206f662077696e6e696e6720617265203120696e200000\n        /* \"#utility.yul\":19137:19138   */\n      0x00\n        /* \"#utility.yul\":19129:19135   */\n      dup3\n        /* \"#utility.yul\":19125:19139   */\n      add\n        /* \"#utility.yul\":19118:19174   */\n      mstore\n        /* \"#utility.yul\":19001:19181   */\n      pop\n      jump\t// out\n        /* \"#utility.yul\":19187:19589   */\n    tag_342:\n        /* \"#utility.yul\":19347:19350   */\n      0x00\n        /* \"#utility.yul\":19368:19453   */\n      tag_552\n        /* \"#utility.yul\":19450:19452   */\n      0x1e\n        /* \"#utility.yul\":19445:19448   */\n      dup4\n        /* \"#utility.yul\":19368:19453   */\n      tag_340\n      jump\t// in\n    tag_552:\n        /* \"#utility.yul\":19361:19453   */\n      swap2\n      pop\n        /* \"#utility.yul\":19462:19555   */\n      tag_553\n        /* \"#utility.yul\":19551:19554   */\n      dup3\n        /* \"#utility.yul\":19462:19555   */\n      tag_341\n      jump\t// in\n    tag_553:\n        /* \"#utility.yul\":19580:19582   */\n      0x1e\n        /* \"#utility.yul\":19575:19578   */\n      dup3\n        /* \"#utility.yul\":19571:19583   */\n      add\n        /* \"#utility.yul\":19564:19583   */\n      swap1\n      pop\n        /* \"#utility.yul\":19187:19589   */\n      swap2\n      swap1\n      pop\n      jump\t// out\n        /* \"#utility.yul\":19595:19985   */\n    tag_343:\n        /* \"#utility.yul\":19701:19704   */\n      0x00\n        /* \"#utility.yul\":19729:19768   */\n      tag_555\n        /* \"#utility.yul\":19762:19767   */\n      dup3\n        /* \"#utility.yul\":19729:19768   */\n      tag_297\n      jump\t// in\n    tag_555:\n        /* \"#utility.yul\":19784:19873   */\n      tag_556\n        /* \"#utility.yul\":19866:19872   */\n      dup2\n        /* \"#utility.yul\":19861:19864   */\n      dup6\n        /* \"#utility.yul\":19784:19873   */\n      tag_340\n      jump\t// in\n    tag_556:\n        /* \"#utility.yul\":19777:19873   */\n      swap4\n      pop\n        /* \"#utility.yul\":19882:19947   */\n      tag_557\n        /* \"#utility.yul\":19940:19946   */\n      dup2\n        /* \"#utility.yul\":19935:19938   */\n      dup6\n        /* \"#utility.yul\":19928:19932   */\n      0x20\n        /* \"#utility.yul\":19921:19926   */\n      dup7\n        /* \"#utility.yul\":19917:19933   */\n      add\n        /* \"#utility.yul\":19882:19947   */\n      tag_299\n      jump\t// in\n    tag_557:\n        /* \"#utility.yul\":19972:19978   */\n      dup1\n        /* \"#utility.yul\":19967:19970   */\n      dup5\n        /* \"#utility.yul\":19963:19979   */\n      add\n        /* \"#utility.yul\":19956:19979   */\n      swap2\n      pop\n        /* \"#utility.yul\":19705:19985   */\n      pop\n        /* \"#utility.yul\":19595:19985   */\n      swap3\n      swap2\n      pop\n      pop\n      jump\t// out\n        /* \"#utility.yul\":19991:20532   */\n    tag_200:\n        /* \"#utility.yul\":20224:20227   */\n      0x00\n        /* \"#utility.yul\":20246:20394   */\n      tag_559\n        /* \"#utility.yul\":20390:20393   */\n      dup3\n        /* \"#utility.yul\":20246:20394   */\n      tag_342\n      jump\t// in\n    tag_559:\n        /* \"#utility.yul\":20239:20394   */\n      swap2\n      pop\n        /* \"#utility.yul\":20411:20506   */\n      tag_560\n        /* \"#utility.yul\":20502:20505   */\n      dup3\n        /* \"#utility.yul\":20493:20499   */\n      dup5\n        /* \"#utility.yul\":20411:20506   */\n      tag_343\n      jump\t// in\n    tag_560:\n        /* \"#utility.yul\":20404:20506   */\n      swap2\n      pop\n        /* \"#utility.yul\":20523:20526   */\n      dup2\n        /* \"#utility.yul\":20516:20526   */\n      swap1\n      pop\n        /* \"#utility.yul\":19991:20532   */\n      swap3\n      swap2\n      pop\n      pop\n      jump\t// out\n        /* \"#utility.yul\":20538:20716   */\n    tag_344:\n        /* \"#utility.yul\":20678:20708   */\n      0x4d75737420627579206174206c65617374206f6e65207469636b657400000000\n        /* \"#utility.yul\":20674:20675   */\n      0x00\n        /* \"#utility.yul\":20666:20672   */\n      dup3\n        /* \"#utility.yul\":20662:20676   */\n      add\n        /* \"#utility.yul\":20655:20709   */\n      mstore\n        /* \"#utility.yul\":20538:20716   */\n      pop\n      jump\t// out\n        /* \"#utility.yul\":20722:21088   */\n    tag_345:\n        /* \"#utility.yul\":20864:20867   */\n      0x00\n        /* \"#utility.yul\":20885:20952   */\n      tag_563\n        /* \"#utility.yul\":20949:20951   */\n      0x1c\n        /* \"#utility.yul\":20944:20947   */\n      dup4\n        /* \"#utility.yul\":20885:20952   */\n      tag_298\n      jump\t// in\n    tag_563:\n        /* \"#utility.yul\":20878:20952   */\n      swap2\n      pop\n        /* \"#utility.yul\":20961:21054   */\n      tag_564\n        /* \"#utility.yul\":21050:21053   */\n      dup3\n        /* \"#utility.yul\":20961:21054   */\n      tag_344\n      jump\t// in\n    tag_564:\n        /* \"#utility.yul\":21079:21081   */\n      0x20\n        /* \"#utility.yul\":21074:21077   */\n      dup3\n        /* \"#utility.yul\":21070:21082   */\n      add\n        /* \"#utility.yul\":21063:21082   */\n      swap1\n      pop\n        /* \"#utility.yul\":20722:21088   */\n      swap2\n      swap1\n      pop\n      jump\t// out\n        /* \"#utility.yul\":21094:21513   */\n    tag_206:\n        /* \"#utility.yul\":21260:21264   */\n      0x00\n        /* \"#utility.yul\":21298:21300   */\n      0x20\n        /* \"#utility.yul\":21287:21296   */\n      dup3\n        /* \"#utility.yul\":21283:21301   */\n      add\n        /* \"#utility.yul\":21275:21301   */\n      swap1\n      pop\n        /* \"#utility.yul\":21347:21356   */\n      dup2\n        /* \"#utility.yul\":21341:21345   */\n      dup2\n        /* \"#utility.yul\":21337:21357   */\n      sub\n        /* \"#utility.yul\":21333:21334   */\n      0x00\n        /* \"#utility.yul\":21322:21331   */\n      dup4\n        /* \"#utility.yul\":21318:21335   */\n      add\n        /* \"#utility.yul\":21311:21358   */\n      mstore\n        /* \"#utility.yul\":21375:21506   */\n      tag_566\n        /* \"#utility.yul\":21501:21505   */\n      dup2\n        /* \"#utility.yul\":21375:21506   */\n      tag_345\n      jump\t// in\n    tag_566:\n        /* \"#utility.yul\":21367:21506   */\n      swap1\n      pop\n        /* \"#utility.yul\":21094:21513   */\n      swap2\n      swap1\n      pop\n      jump\t// out\n        /* \"#utility.yul\":21519:21694   */\n    tag_346:\n        /* \"#utility.yul\":21659:21686   */\n      0x496e73756666696369656e7420555344432062616c616e636500000000000000\n        /* \"#utility.yul\":21655:21656   */\n      0x00\n        /* \"#utility.yul\":21647:21653   */\n      dup3\n        /* \"#utility.yul\":21643:21657   */\n      add\n        /* \"#utility.yul\":21636:21687   */\n      mstore\n        /* \"#utility.yul\":21519:21694   */\n      pop\n      jump\t// out\n        /* \"#utility.yul\":21700:22066   */\n    tag_347:\n        /* \"#utility.yul\":21842:21845   */\n      0x00\n        /* \"#utility.yul\":21863:21930   */\n      tag_569\n        /* \"#utility.yul\":21927:21929   */\n      0x19\n        /* \"#utility.yul\":21922:21925   */\n      dup4\n        /* \"#utility.yul\":21863:21930   */\n      tag_298\n      jump\t// in\n    tag_569:\n        /* \"#utility.yul\":21856:21930   */\n      swap2\n      pop\n        /* \"#utility.yul\":21939:22032   */\n      tag_570\n        /* \"#utility.yul\":22028:22031   */\n      dup3\n        /* \"#utility.yul\":21939:22032   */\n      tag_346\n      jump\t// in\n    tag_570:\n        /* \"#utility.yul\":22057:22059   */\n      0x20\n        /* \"#utility.yul\":22052:22055   */\n      dup3\n        /* \"#utility.yul\":22048:22060   */\n      add\n        /* \"#utility.yul\":22041:22060   */\n      swap1\n      pop\n        /* \"#utility.yul\":21700:22066   */\n      swap2\n      swap1\n      pop\n      jump\t// out\n        /* \"#utility.yul\":22072:22491   */\n    tag_214:\n        /* \"#utility.yul\":22238:22242   */\n      0x00\n        /* \"#utility.yul\":22276:22278   */\n      0x20\n        /* \"#utility.yul\":22265:22274   */\n      dup3\n        /* \"#utility.yul\":22261:22279   */\n      add\n        /* \"#utility.yul\":22253:22279   */\n      swap1\n      pop\n        /* \"#utility.yul\":22325:22334   */\n      dup2\n        /* \"#utility.yul\":22319:22323   */\n      dup2\n        /* \"#utility.yul\":22315:22335   */\n      sub\n        /* \"#utility.yul\":22311:22312   */\n      0x00\n        /* \"#utility.yul\":22300:22309   */\n      dup4\n        /* \"#utility.yul\":22296:22313   */\n      add\n        /* \"#utility.yul\":22289:22336   */\n      mstore\n        /* \"#utility.yul\":22353:22484   */\n      tag_572\n        /* \"#utility.yul\":22479:22483   */\n      dup2\n        /* \"#utility.yul\":22353:22484   */\n      tag_347\n      jump\t// in\n    tag_572:\n        /* \"#utility.yul\":22345:22484   */\n      swap1\n      pop\n        /* \"#utility.yul\":22072:22491   */\n      swap2\n      swap1\n      pop\n      jump\t// out\n        /* \"#utility.yul\":22497:22829   */\n    tag_216:\n        /* \"#utility.yul\":22618:22622   */\n      0x00\n        /* \"#utility.yul\":22656:22658   */\n      0x40\n        /* \"#utility.yul\":22645:22654   */\n      dup3\n        /* \"#utility.yul\":22641:22659   */\n      add\n        /* \"#utility.yul\":22633:22659   */\n      swap1\n      pop\n        /* \"#utility.yul\":22669:22740   */\n      tag_574\n        /* \"#utility.yul\":22737:22738   */\n      0x00\n        /* \"#utility.yul\":22726:22735   */\n      dup4\n        /* \"#utility.yul\":22722:22739   */\n      add\n        /* \"#utility.yul\":22713:22719   */\n      dup6\n        /* \"#utility.yul\":22669:22740   */\n      tag_287\n      jump\t// in\n    tag_574:\n        /* \"#utility.yul\":22750:22822   */\n      tag_575\n        /* \"#utility.yul\":22818:22820   */\n      0x20\n        /* \"#utility.yul\":22807:22816   */\n      dup4\n        /* \"#utility.yul\":22803:22821   */\n      add\n        /* \"#utility.yul\":22794:22800   */\n      dup5\n        /* \"#utility.yul\":22750:22822   */\n      tag_287\n      jump\t// in\n    tag_575:\n        /* \"#utility.yul\":22497:22829   */\n      swap4\n      swap3\n      pop\n      pop\n      pop\n      jump\t// out\n        /* \"#utility.yul\":22835:23002   */\n    tag_348:\n        /* \"#utility.yul\":22975:22994   */\n      0x416c6c6f77616e6365206e6f7420736574000000000000000000000000000000\n        /* \"#utility.yul\":22971:22972   */\n      0x00\n        /* \"#utility.yul\":22963:22969   */\n      dup3\n        /* \"#utility.yul\":22959:22973   */\n      add\n        /* \"#utility.yul\":22952:22995   */\n      mstore\n        /* \"#utility.yul\":22835:23002   */\n      pop\n      jump\t// out\n        /* \"#utility.yul\":23008:23374   */\n    tag_349:\n        /* \"#utility.yul\":23150:23153   */\n      0x00\n        /* \"#utility.yul\":23171:23238   */\n      tag_578\n        /* \"#utility.yul\":23235:23237   */\n      0x11\n        /* \"#utility.yul\":23230:23233   */\n      dup4\n        /* \"#utility.yul\":23171:23238   */\n      tag_298\n      jump\t// in\n    tag_578:\n        /* \"#utility.yul\":23164:23238   */\n      swap2\n      pop\n        /* \"#utility.yul\":23247:23340   */\n      tag_579\n        /* \"#utility.yul\":23336:23339   */\n      dup3\n        /* \"#utility.yul\":23247:23340   */\n      tag_348\n      jump\t// in\n    tag_579:\n        /* \"#utility.yul\":23365:23367   */\n      0x20\n        /* \"#utility.yul\":23360:23363   */\n      dup3\n        /* \"#utility.yul\":23356:23368   */\n      add\n        /* \"#utility.yul\":23349:23368   */\n      swap1\n      pop\n        /* \"#utility.yul\":23008:23374   */\n      swap2\n      swap1\n      pop\n      jump\t// out\n        /* \"#utility.yul\":23380:23799   */\n    tag_222:\n        /* \"#utility.yul\":23546:23550   */\n      0x00\n        /* \"#utility.yul\":23584:23586   */\n      0x20\n        /* \"#utility.yul\":23573:23582   */\n      dup3\n        /* \"#utility.yul\":23569:23587   */\n      add\n        /* \"#utility.yul\":23561:23587   */\n      swap1\n      pop\n        /* \"#utility.yul\":23633:23642   */\n      dup2\n        /* \"#utility.yul\":23627:23631   */\n      dup2\n        /* \"#utility.yul\":23623:23643   */\n      sub\n        /* \"#utility.yul\":23619:23620   */\n      0x00\n        /* \"#utility.yul\":23608:23617   */\n      dup4\n        /* \"#utility.yul\":23604:23621   */\n      add\n        /* \"#utility.yul\":23597:23644   */\n      mstore\n        /* \"#utility.yul\":23661:23792   */\n      tag_581\n        /* \"#utility.yul\":23787:23791   */\n      dup2\n        /* \"#utility.yul\":23661:23792   */\n      tag_349\n      jump\t// in\n    tag_581:\n        /* \"#utility.yul\":23653:23792   */\n      swap1\n      pop\n        /* \"#utility.yul\":23380:23799   */\n      swap2\n      swap1\n      pop\n      jump\t// out\n        /* \"#utility.yul\":23805:24247   */\n    tag_224:\n        /* \"#utility.yul\":23954:23958   */\n      0x00\n        /* \"#utility.yul\":23992:23994   */\n      0x60\n        /* \"#utility.yul\":23981:23990   */\n      dup3\n        /* \"#utility.yul\":23977:23995   */\n      add\n        /* \"#utility.yul\":23969:23995   */\n      swap1\n      pop\n        /* \"#utility.yul\":24005:24076   */\n      tag_583\n        /* \"#utility.yul\":24073:24074   */\n      0x00\n        /* \"#utility.yul\":24062:24071   */\n      dup4\n        /* \"#utility.yul\":24058:24075   */\n      add\n        /* \"#utility.yul\":24049:24055   */\n      dup7\n        /* \"#utility.yul\":24005:24076   */\n      tag_287\n      jump\t// in\n    tag_583:\n        /* \"#utility.yul\":24086:24158   */\n      tag_584\n        /* \"#utility.yul\":24154:24156   */\n      0x20\n        /* \"#utility.yul\":24143:24152   */\n      dup4\n        /* \"#utility.yul\":24139:24157   */\n      add\n        /* \"#utility.yul\":24130:24136   */\n      dup6\n        /* \"#utility.yul\":24086:24158   */\n      tag_287\n      jump\t// in\n    tag_584:\n        /* \"#utility.yul\":24168:24240   */\n      tag_585\n        /* \"#utility.yul\":24236:24238   */\n      0x40\n        /* \"#utility.yul\":24225:24234   */\n      dup4\n        /* \"#utility.yul\":24221:24239   */\n      add\n        /* \"#utility.yul\":24212:24218   */\n      dup5\n        /* \"#utility.yul\":24168:24240   */\n      tag_279\n      jump\t// in\n    tag_585:\n        /* \"#utility.yul\":23805:24247   */\n      swap5\n      swap4\n      pop\n      pop\n      pop\n      pop\n      jump\t// out\n        /* \"#utility.yul\":24253:24444   */\n    tag_233:\n        /* \"#utility.yul\":24293:24296   */\n      0x00\n        /* \"#utility.yul\":24312:24332   */\n      tag_587\n        /* \"#utility.yul\":24330:24331   */\n      dup3\n        /* \"#utility.yul\":24312:24332   */\n      tag_278\n      jump\t// in\n    tag_587:\n        /* \"#utility.yul\":24307:24332   */\n      swap2\n      pop\n        /* \"#utility.yul\":24346:24366   */\n      tag_588\n        /* \"#utility.yul\":24364:24365   */\n      dup4\n        /* \"#utility.yul\":24346:24366   */\n      tag_278\n      jump\t// in\n    tag_588:\n        /* \"#utility.yul\":24341:24366   */\n      swap3\n      pop\n        /* \"#utility.yul\":24389:24390   */\n      dup3\n        /* \"#utility.yul\":24386:24387   */\n      dup3\n        /* \"#utility.yul\":24382:24391   */\n      add\n        /* \"#utility.yul\":24375:24391   */\n      swap1\n      pop\n        /* \"#utility.yul\":24410:24413   */\n      dup1\n        /* \"#utility.yul\":24407:24408   */\n      dup3\n        /* \"#utility.yul\":24404:24414   */\n      gt\n        /* \"#utility.yul\":24401:24437   */\n      iszero\n      tag_589\n      jumpi\n        /* \"#utility.yul\":24417:24435   */\n      tag_590\n      tag_307\n      jump\t// in\n    tag_590:\n        /* \"#utility.yul\":24401:24437   */\n    tag_589:\n        /* \"#utility.yul\":24253:24444   */\n      swap3\n      swap2\n      pop\n      pop\n      jump\t// out\n        /* \"#utility.yul\":24450:24683   */\n    tag_255:\n        /* \"#utility.yul\":24489:24492   */\n      0x00\n        /* \"#utility.yul\":24512:24536   */\n      tag_592\n        /* \"#utility.yul\":24530:24535   */\n      dup3\n        /* \"#utility.yul\":24512:24536   */\n      tag_278\n      jump\t// in\n    tag_592:\n        /* \"#utility.yul\":24503:24536   */\n      swap2\n      pop\n        /* \"#utility.yul\":24558:24624   */\n      0xffffffffffffffffffffffffffffffffffffffffffffffffffffffffffffffff\n        /* \"#utility.yul\":24551:24556   */\n      dup3\n        /* \"#utility.yul\":24548:24625   */\n      sub\n        /* \"#utility.yul\":24545:24648   */\n      tag_593\n      jumpi\n        /* \"#utility.yul\":24628:24646   */\n      tag_594\n      tag_307\n      jump\t// in\n    tag_594:\n        /* \"#utility.yul\":24545:24648   */\n    tag_593:\n        /* \"#utility.yul\":24675:24676   */\n      0x01\n        /* \"#utility.yul\":24668:24673   */\n      dup3\n        /* \"#utility.yul\":24664:24677   */\n      add\n        /* \"#utility.yul\":24657:24677   */\n      swap1\n      pop\n        /* \"#utility.yul\":24450:24683   */\n      swap2\n      swap1\n      pop\n      jump\t// out\n        /* \"#utility.yul\":24689:24869   */\n    tag_259:\n        /* \"#utility.yul\":24737:24814   */\n      0x4e487b7100000000000000000000000000000000000000000000000000000000\n        /* \"#utility.yul\":24734:24735   */\n      0x00\n        /* \"#utility.yul\":24727:24815   */\n      mstore\n        /* \"#utility.yul\":24834:24838   */\n      0x41\n        /* \"#utility.yul\":24831:24832   */\n      0x04\n        /* \"#utility.yul\":24824:24839   */\n      mstore\n        /* \"#utility.yul\":24858:24862   */\n      0x24\n        /* \"#utility.yul\":24855:24856   */\n      0x00\n        /* \"#utility.yul\":24848:24863   */\n      revert\n        /* \"#utility.yul\":24875:24961   */\n    tag_350:\n        /* \"#utility.yul\":24910:24917   */\n      0x00\n        /* \"#utility.yul\":24950:24954   */\n      0xff\n        /* \"#utility.yul\":24943:24948   */\n      dup3\n        /* \"#utility.yul\":24939:24955   */\n      and\n        /* \"#utility.yul\":24928:24955   */\n      swap1\n      pop\n        /* \"#utility.yul\":24875:24961   */\n      swap2\n      swap1\n      pop\n      jump\t// out\n        /* \"#utility.yul\":24967:25155   */\n    tag_268:\n        /* \"#utility.yul\":25005:25008   */\n      0x00\n        /* \"#utility.yul\":25024:25042   */\n      tag_598\n        /* \"#utility.yul\":25040:25041   */\n      dup3\n        /* \"#utility.yul\":25024:25042   */\n      tag_350\n      jump\t// in\n    tag_598:\n        /* \"#utility.yul\":25019:25042   */\n      swap2\n      pop\n        /* \"#utility.yul\":25056:25074   */\n      tag_599\n        /* \"#utility.yul\":25072:25073   */\n      dup4\n        /* \"#utility.yul\":25056:25074   */\n      tag_350\n      jump\t// in\n    tag_599:\n        /* \"#utility.yul\":25051:25074   */\n      swap3\n      pop\n        /* \"#utility.yul\":25097:25098   */\n      dup3\n        /* \"#utility.yul\":25094:25095   */\n      dup3\n        /* \"#utility.yul\":25090:25099   */\n      add\n        /* \"#utility.yul\":25083:25099   */\n      swap1\n      pop\n        /* \"#utility.yul\":25120:25124   */\n      0xff\n        /* \"#utility.yul\":25115:25118   */\n      dup2\n        /* \"#utility.yul\":25112:25125   */\n      gt\n        /* \"#utility.yul\":25109:25148   */\n      iszero\n      tag_600\n      jumpi\n        /* \"#utility.yul\":25128:25146   */\n      tag_601\n      tag_307\n      jump\t// in\n    tag_601:\n        /* \"#utility.yul\":25109:25148   */\n    tag_600:\n        /* \"#utility.yul\":24967:25155   */\n      swap3\n      swap2\n      pop\n      pop\n      jump\t// out\n\n    auxdata: 0xa264697066735822122029ebe62a933a6ec4f20bf2faa401286c2620ae02c5d620878f70d8ea3db4f32964736f6c634300081a0033\n}\n",
				"bytecode": {
					"linkReferences": {},
					"object": "608060405262986f70600255606460035534801561001b575f80fd5b506040516124e63803806124e6833981810160405281019061003d9190610224565b805f73ffffffffffffffffffffffffffffffffffffffff168173ffffffffffffffffffffffffffffffffffffffff16036100ae575f6040517f1e4fbdf70000000000000000000000000000000000000000000000000000000081526004016100a59190610271565b60405180910390fd5b6100bd8161010560201b60201c565b508160015f6101000a81548173ffffffffffffffffffffffffffffffffffffffff021916908373ffffffffffffffffffffffffffffffffffffffff160217905550505061028a565b5f805f9054906101000a900473ffffffffffffffffffffffffffffffffffffffff169050815f806101000a81548173ffffffffffffffffffffffffffffffffffffffff021916908373ffffffffffffffffffffffffffffffffffffffff1602179055508173ffffffffffffffffffffffffffffffffffffffff168173ffffffffffffffffffffffffffffffffffffffff167f8be0079c531659141344cd1fd0a4f28419497f9722a3daafe3b4186f6b6457e060405160405180910390a35050565b5f80fd5b5f73ffffffffffffffffffffffffffffffffffffffff82169050919050565b5f6101f3826101ca565b9050919050565b610203816101e9565b811461020d575f80fd5b50565b5f8151905061021e816101fa565b92915050565b5f806040838503121561023a576102396101c6565b5b5f61024785828601610210565b925050602061025885828601610210565b9150509250929050565b61026b816101e9565b82525050565b5f6020820190506102845f830184610262565b92915050565b61224f806102975f395ff3fe608060405234801561000f575f80fd5b5060043610610114575f3560e01c80638da5cb5b116100a0578063d5563b3c1161006f578063d5563b3c14610284578063e6be59e7146102b4578063e95f0328146102d2578063f2fde38b146102ee578063f77c47911461030a57610114565b80638da5cb5b146101fa578063a2fb117514610218578063b844007c14610248578063c3b69ebb1461026657610114565b806335c1d349116100e757806335c1d349146101685780633e413bee14610198578063619d36ef146101b65780636dcbf2a3146101c0578063715018a6146101f057610114565b806308601768146101185780631209b1f61461012257806316ba71971461014057806324b570a91461014a575b5f80fd5b610120610328565b005b61012a610455565b60405161013791906115fa565b60405180910390f35b61014861045b565b005b6101526106bb565b60405161015f91906115fa565b60405180910390f35b610182600480360381019061017d9190611641565b6106c1565b60405161018f91906116ab565b60405180910390f35b6101a06106fc565b6040516101ad919061171f565b60405180910390f35b6101be610721565b005b6101da60048036038101906101d59190611762565b610bf9565b6040516101e791906115fa565b60405180910390f35b6101f8610c0e565b005b610202610c21565b60405161020f91906116ab565b60405180910390f35b610232600480360381019061022d9190611641565b610c48565b60405161023f91906116ab565b60405180910390f35b610250610c7c565b60405161025d91906117a7565b60405180910390f35b61026e610d11565b60405161027b91906117a7565b60405180910390f35b61029e60048036038101906102999190611762565b610d23565b6040516102ab9190611830565b60405180910390f35b6102bc610e0d565b6040516102c991906115fa565b60405180910390f35b6102ec60048036038101906102e79190611641565b610e13565b005b61030860048036038101906103039190611762565b611240565b005b6103126112c4565b60405161031f91906116ab565b60405180910390f35b7334045c937742c8ad6222a10eb21c7cfff8bf870e73ffffffffffffffffffffffffffffffffffffffff163373ffffffffffffffffffffffffffffffffffffffff16146103aa576040517f08c379a00000000000000000000000000000000000000000000000000000000081526004016103a19061189a565b60405180910390fd5b60065f9054906101000a900460ff16156103f9576040517f08c379a00000000000000000000000000000000000000000000000000000000081526004016103f090611902565b60405180910390fd5b600160065f6101000a81548160ff02191690831515021790555060045f61042091906115a9565b5f600a819055507fd029c7c68d943f92286a7825fa6aa2deefa1eee46cee6c91b7e483fd06d27baf60405160405180910390a1565b60025481565b7334045c937742c8ad6222a10eb21c7cfff8bf870e73ffffffffffffffffffffffffffffffffffffffff163373ffffffffffffffffffffffffffffffffffffffff16146104dd576040517f08c379a00000000000000000000000000000000000000000000000000000000081526004016104d49061189a565b60405180910390fd5b5f60015f9054906101000a900473ffffffffffffffffffffffffffffffffffffffff1673ffffffffffffffffffffffffffffffffffffffff166370a08231306040518263ffffffff1660e01b815260040161053891906116ab565b602060405180830381865afa158015610553573d5f803e3d5ffd5b505050506040513d601f19601f820116820180604052508101906105779190611934565b90505f612710600354600a5461058d919061198c565b61059791906119fa565b826105a29190611a2a565b905060015f9054906101000a900473ffffffffffffffffffffffffffffffffffffffff1673ffffffffffffffffffffffffffffffffffffffff1663a9059cbb7334045c937742c8ad6222a10eb21c7cfff8bf870e836040518363ffffffff1660e01b8152600401610614929190611a5d565b6020604051808303815f875af1158015610630573d5f803e3d5ffd5b505050506040513d601f19601f820116820180604052508101906106549190611aae565b507334045c937742c8ad6222a10eb21c7cfff8bf870e73ffffffffffffffffffffffffffffffffffffffff167f7fcf532c15f0a6db0bd6d0e038bea71d30d808c7d98cb3bf7268a95bf5081b65826040516106af91906115fa565b60405180910390a25050565b600a5481565b600481815481106106d0575f80fd5b905f5260205f20015f915054906101000a900473ffffffffffffffffffffffffffffffffffffffff1681565b60015f9054906101000a900473ffffffffffffffffffffffffffffffffffffffff1681565b7334045c937742c8ad6222a10eb21c7cfff8bf870e73ffffffffffffffffffffffffffffffffffffffff163373ffffffffffffffffffffffffffffffffffffffff16146107a3576040517f08c379a000000000000000000000000000000000000000000000000000000000815260040161079a9061189a565b60405180910390fd5b60065f9054906101000a900460ff166107f1576040517f08c379a00000000000000000000000000000000000000000000000000000000081526004016107e890611b23565b60405180910390fd5b6003600480549050101561083a576040517f08c379a000000000000000000000000000000000000000000000000000000000815260040161083190611b8b565b60405180910390fd5b5f61271060035461271061084e9190611a2a565b600a5461085b919061198c565b61086591906119fa565b90505f6040518060600160405280612710611e5a85610884919061198c565b61088e91906119fa565b8152602001612710610532856108a4919061198c565b6108ae91906119fa565b8152602001612710610320856108c4919061198c565b6108ce91906119fa565b81525090505f5b6003811015610b8d575f600480549050424460046040516020016108fb93929190611cd9565b604051602081830303815290604052805190602001205f1c61091d9190611d11565b90506004818154811061093357610932611d41565b5b905f5260205f20015f9054906101000a900473ffffffffffffffffffffffffffffffffffffffff166007836003811061096f5761096e611d41565b5b015f6101000a81548173ffffffffffffffffffffffffffffffffffffffff021916908373ffffffffffffffffffffffffffffffffffffffff16021790555060015f9054906101000a900473ffffffffffffffffffffffffffffffffffffffff1673ffffffffffffffffffffffffffffffffffffffff1663a9059cbb600784600381106109fe576109fd611d41565b5b015f9054906101000a900473ffffffffffffffffffffffffffffffffffffffff16858560038110610a3257610a31611d41565b5b60200201516040518363ffffffff1660e01b8152600401610a54929190611a5d565b6020604051808303815f875af1158015610a70573d5f803e3d5ffd5b505050506040513d601f19601f82011682018060405250810190610a949190611aae565b5060046001600480549050610aa99190611a2a565b81548110610aba57610ab9611d41565b5b905f5260205f20015f9054906101000a900473ffffffffffffffffffffffffffffffffffffffff1660048281548110610af657610af5611d41565b5b905f5260205f20015f6101000a81548173ffffffffffffffffffffffffffffffffffffffff021916908373ffffffffffffffffffffffffffffffffffffffff1602179055506004805480610b4d57610b4c611d6e565b5b600190038181905f5260205f20015f6101000a81549073ffffffffffffffffffffffffffffffffffffffff021916905590555080806001019150506108d5565b505f60065f6101000a81548160ff0219169083151502179055506007604051610bb69190611e21565b60405180910390207f88437eb7fd2a13d073b9c914e5ac1fa25b373be0b3a9bb17684dda58c53b374582604051610bed9190611ee0565b60405180910390a25050565b6005602052805f5260405f205f915090505481565b610c166112dc565b610c1f5f611363565b565b5f805f9054906101000a900473ffffffffffffffffffffffffffffffffffffffff16905090565b60078160038110610c57575f80fd5b015f915054906101000a900473ffffffffffffffffffffffffffffffffffffffff1681565b5f805f90505b6003811015610d095760078160038110610c9f57610c9e611d41565b5b015f9054906101000a900473ffffffffffffffffffffffffffffffffffffffff1673ffffffffffffffffffffffffffffffffffffffff163373ffffffffffffffffffffffffffffffffffffffff1603610cfc576001915050610d0e565b8080600101915050610c82565b505f90505b90565b60065f9054906101000a900460ff1681565b60605f60055f8473ffffffffffffffffffffffffffffffffffffffff1673ffffffffffffffffffffffffffffffffffffffff1681526020019081526020015f205490505f60048054905003610db0576040518060400160405280601081526020017f4e6f207469636b65747320736f6c642e00000000000000000000000000000000815250915050610e08565b5f61271082610dbf919061198c565b90505f60048054905090505f8183610dd791906119fa565b9050610de281611424565b604051602001610df29190611f7d565b6040516020818303038152906040529450505050505b919050565b60035481565b60065f9054906101000a900460ff16610e61576040517f08c379a0000000000000000000000000000000000000000000000000000000008152600401610e5890611b23565b60405180910390fd5b5f8111610ea3576040517f08c379a0000000000000000000000000000000000000000000000000000000008152600401610e9a90611fe8565b60405180910390fd5b5f60025482610eb2919061198c565b90508060015f9054906101000a900473ffffffffffffffffffffffffffffffffffffffff1673ffffffffffffffffffffffffffffffffffffffff166370a08231336040518263ffffffff1660e01b8152600401610f0f91906116ab565b602060405180830381865afa158015610f2a573d5f803e3d5ffd5b505050506040513d601f19601f82011682018060405250810190610f4e9190611934565b1015610f8f576040517f08c379a0000000000000000000000000000000000000000000000000000000008152600401610f8690612050565b60405180910390fd5b8060015f9054906101000a900473ffffffffffffffffffffffffffffffffffffffff1673ffffffffffffffffffffffffffffffffffffffff1663dd62ed3e33306040518363ffffffff1660e01b8152600401610fec92919061206e565b602060405180830381865afa158015611007573d5f803e3d5ffd5b505050506040513d601f19601f8201168201806040525081019061102b9190611934565b101561106c576040517f08c379a0000000000000000000000000000000000000000000000000000000008152600401611063906120df565b60405180910390fd5b60015f9054906101000a900473ffffffffffffffffffffffffffffffffffffffff1673ffffffffffffffffffffffffffffffffffffffff166323b872dd3330846040518463ffffffff1660e01b81526004016110ca939291906120fd565b6020604051808303815f875af11580156110e6573d5f803e3d5ffd5b505050506040513d601f19601f8201168201806040525081019061110a9190611aae565b505f5b8281101561118257600433908060018154018082558091505060019003905f5260205f20015f9091909190916101000a81548173ffffffffffffffffffffffffffffffffffffffff021916908373ffffffffffffffffffffffffffffffffffffffff160217905550808060010191505061110d565b508160055f3373ffffffffffffffffffffffffffffffffffffffff1673ffffffffffffffffffffffffffffffffffffffff1681526020019081526020015f205f8282546111cf9190612132565b9250508190555080600a5f8282546111e79190612132565b925050819055503373ffffffffffffffffffffffffffffffffffffffff167fe1fffcc4923d04b559f4d29a8bfc6cda04eb5b0d3c460751c2402c5c5cc9109c8260405161123491906115fa565b60405180910390a25050565b6112486112dc565b5f73ffffffffffffffffffffffffffffffffffffffff168173ffffffffffffffffffffffffffffffffffffffff16036112b8575f6040517f1e4fbdf70000000000000000000000000000000000000000000000000000000081526004016112af91906116ab565b60405180910390fd5b6112c181611363565b50565b7334045c937742c8ad6222a10eb21c7cfff8bf870e81565b6112e46115a2565b73ffffffffffffffffffffffffffffffffffffffff16611302610c21565b73ffffffffffffffffffffffffffffffffffffffff1614611361576113256115a2565b6040517f118cdaa700000000000000000000000000000000000000000000000000000000815260040161135891906116ab565b60405180910390fd5b565b5f805f9054906101000a900473ffffffffffffffffffffffffffffffffffffffff169050815f806101000a81548173ffffffffffffffffffffffffffffffffffffffff021916908373ffffffffffffffffffffffffffffffffffffffff1602179055508173ffffffffffffffffffffffffffffffffffffffff168173ffffffffffffffffffffffffffffffffffffffff167f8be0079c531659141344cd1fd0a4f28419497f9722a3daafe3b4186f6b6457e060405160405180910390a35050565b60605f820361146a576040518060400160405280600181526020017f3000000000000000000000000000000000000000000000000000000000000000815250905061159d565b5f8290505f5b5f821461149957808061148290612165565b915050600a8261149291906119fa565b9150611470565b5f8167ffffffffffffffff8111156114b4576114b36121ac565b5b6040519080825280601f01601f1916602001820160405280156114e65781602001600182028036833780820191505090505b5090505f8290505b5f8614611595576001816115029190611a2a565b90505f600a808861151391906119fa565b61151d919061198c565b876115289190611a2a565b603061153491906121e5565b90505f8160f81b90508084848151811061155157611550611d41565b5b60200101907effffffffffffffffffffffffffffffffffffffffffffffffffffffffffffff191690815f1a905350600a8861158c91906119fa565b975050506114ee565b819450505050505b919050565b5f33905090565b5080545f8255905f5260205f20908101906115c491906115c7565b50565b5b808211156115de575f815f9055506001016115c8565b5090565b5f819050919050565b6115f4816115e2565b82525050565b5f60208201905061160d5f8301846115eb565b92915050565b5f80fd5b611620816115e2565b811461162a575f80fd5b50565b5f8135905061163b81611617565b92915050565b5f6020828403121561165657611655611613565b5b5f6116638482850161162d565b91505092915050565b5f73ffffffffffffffffffffffffffffffffffffffff82169050919050565b5f6116958261166c565b9050919050565b6116a58161168b565b82525050565b5f6020820190506116be5f83018461169c565b92915050565b5f819050919050565b5f6116e76116e26116dd8461166c565b6116c4565b61166c565b9050919050565b5f6116f8826116cd565b9050919050565b5f611709826116ee565b9050919050565b611719816116ff565b82525050565b5f6020820190506117325f830184611710565b92915050565b6117418161168b565b811461174b575f80fd5b50565b5f8135905061175c81611738565b92915050565b5f6020828403121561177757611776611613565b5b5f6117848482850161174e565b91505092915050565b5f8115159050919050565b6117a18161178d565b82525050565b5f6020820190506117ba5f830184611798565b92915050565b5f81519050919050565b5f82825260208201905092915050565b8281835e5f83830152505050565b5f601f19601f8301169050919050565b5f611802826117c0565b61180c81856117ca565b935061181c8185602086016117da565b611825816117e8565b840191505092915050565b5f6020820190508181035f83015261184881846117f8565b905092915050565b7f4e6f7420617574686f72697a65640000000000000000000000000000000000005f82015250565b5f611884600e836117ca565b915061188f82611850565b602082019050919050565b5f6020820190508181035f8301526118b181611878565b9050919050565b7f526166666c6520616c72656164792061637469766500000000000000000000005f82015250565b5f6118ec6015836117ca565b91506118f7826118b8565b602082019050919050565b5f6020820190508181035f830152611919816118e0565b9050919050565b5f8151905061192e81611617565b92915050565b5f6020828403121561194957611948611613565b5b5f61195684828501611920565b91505092915050565b7f4e487b71000000000000000000000000000000000000000000000000000000005f52601160045260245ffd5b5f611996826115e2565b91506119a1836115e2565b92508282026119af816115e2565b915082820484148315176119c6576119c561195f565b5b5092915050565b7f4e487b71000000000000000000000000000000000000000000000000000000005f52601260045260245ffd5b5f611a04826115e2565b9150611a0f836115e2565b925082611a1f57611a1e6119cd565b5b828204905092915050565b5f611a34826115e2565b9150611a3f836115e2565b9250828203905081811115611a5757611a5661195f565b5b92915050565b5f604082019050611a705f83018561169c565b611a7d60208301846115eb565b9392505050565b611a8d8161178d565b8114611a97575f80fd5b50565b5f81519050611aa881611a84565b92915050565b5f60208284031215611ac357611ac2611613565b5b5f611ad084828501611a9a565b91505092915050565b7f526166666c65206e6f74206163746976650000000000000000000000000000005f82015250565b5f611b0d6011836117ca565b9150611b1882611ad9565b602082019050919050565b5f6020820190508181035f830152611b3a81611b01565b9050919050565b7f4e6f7420656e6f756768207061727469636970616e74730000000000000000005f82015250565b5f611b756017836117ca565b9150611b8082611b41565b602082019050919050565b5f6020820190508181035f830152611ba281611b69565b9050919050565b5f819050919050565b611bc3611bbe826115e2565b611ba9565b82525050565b5f81549050919050565b5f81905092915050565b5f819050815f5260205f209050919050565b611bf88161168b565b82525050565b5f611c098383611bef565b60208301905092915050565b5f815f1c9050919050565b5f73ffffffffffffffffffffffffffffffffffffffff82169050919050565b5f611c51611c4c83611c15565b611c20565b9050919050565b5f611c638254611c3f565b9050919050565b5f600182019050919050565b5f611c8082611bc9565b611c8a8185611bd3565b9350611c9583611bdd565b805f5b83811015611ccc57611ca982611c58565b611cb38882611bfe565b9750611cbe83611c6a565b925050600181019050611c98565b5085935050505092915050565b5f611ce48286611bb2565b602082019150611cf48285611bb2565b602082019150611d048284611c76565b9150819050949350505050565b5f611d1b826115e2565b9150611d26836115e2565b925082611d3657611d356119cd565b5b828206905092915050565b7f4e487b71000000000000000000000000000000000000000000000000000000005f52603260045260245ffd5b7f4e487b71000000000000000000000000000000000000000000000000000000005f52603160045260245ffd5b5f60039050919050565b5f81905092915050565b5f819050919050565b5f600182019050919050565b611dcd81611d9b565b611dd78184611da5565b9250611de282611daf565b805f5b83811015611e1957611df682611c58565b611e008782611bfe565b9650611e0b83611db8565b925050600181019050611de5565b505050505050565b5f611e2c8284611dc4565b60608201915081905092915050565b5f60039050919050565b5f81905092915050565b5f819050919050565b611e61816115e2565b82525050565b5f611e728383611e58565b60208301905092915050565b5f602082019050919050565b611e9381611e3b565b611e9d8184611e45565b9250611ea882611e4f565b805f5b83811015611ed8578151611ebf8782611e67565b9650611eca83611e7e565b925050600181019050611eab565b505050505050565b5f606082019050611ef35f830184611e8a565b92915050565b5f81905092915050565b7f596f7572206f646473206f662077696e6e696e6720617265203120696e2000005f82015250565b5f611f37601e83611ef9565b9150611f4282611f03565b601e82019050919050565b5f611f57826117c0565b611f618185611ef9565b9350611f718185602086016117da565b80840191505092915050565b5f611f8782611f2b565b9150611f938284611f4d565b915081905092915050565b7f4d75737420627579206174206c65617374206f6e65207469636b6574000000005f82015250565b5f611fd2601c836117ca565b9150611fdd82611f9e565b602082019050919050565b5f6020820190508181035f830152611fff81611fc6565b9050919050565b7f496e73756666696369656e7420555344432062616c616e6365000000000000005f82015250565b5f61203a6019836117ca565b915061204582612006565b602082019050919050565b5f6020820190508181035f8301526120678161202e565b9050919050565b5f6040820190506120815f83018561169c565b61208e602083018461169c565b9392505050565b7f416c6c6f77616e6365206e6f74207365740000000000000000000000000000005f82015250565b5f6120c96011836117ca565b91506120d482612095565b602082019050919050565b5f6020820190508181035f8301526120f6816120bd565b9050919050565b5f6060820190506121105f83018661169c565b61211d602083018561169c565b61212a60408301846115eb565b949350505050565b5f61213c826115e2565b9150612147836115e2565b925082820190508082111561215f5761215e61195f565b5b92915050565b5f61216f826115e2565b91507fffffffffffffffffffffffffffffffffffffffffffffffffffffffffffffffff82036121a1576121a061195f565b5b600182019050919050565b7f4e487b71000000000000000000000000000000000000000000000000000000005f52604160045260245ffd5b5f60ff82169050919050565b5f6121ef826121d9565b91506121fa836121d9565b9250828201905060ff8111156122135761221261195f565b5b9291505056fea264697066735822122029ebe62a933a6ec4f20bf2faa401286c2620ae02c5d620878f70d8ea3db4f32964736f6c634300081a0033",
					"opcodes": "PUSH1 0x80 PUSH1 0x40 MSTORE PUSH3 0x986F70 PUSH1 0x2 SSTORE PUSH1 0x64 PUSH1 0x3 SSTORE CALLVALUE DUP1 ISZERO PUSH2 0x1B JUMPI PUSH0 DUP1 REVERT JUMPDEST POP PUSH1 0x40 MLOAD PUSH2 0x24E6 CODESIZE SUB DUP1 PUSH2 0x24E6 DUP4 CODECOPY DUP2 DUP2 ADD PUSH1 0x40 MSTORE DUP2 ADD SWAP1 PUSH2 0x3D SWAP2 SWAP1 PUSH2 0x224 JUMP JUMPDEST DUP1 PUSH0 PUSH20 0xFFFFFFFFFFFFFFFFFFFFFFFFFFFFFFFFFFFFFFFF AND DUP2 PUSH20 0xFFFFFFFFFFFFFFFFFFFFFFFFFFFFFFFFFFFFFFFF AND SUB PUSH2 0xAE JUMPI PUSH0 PUSH1 0x40 MLOAD PUSH32 0x1E4FBDF700000000000000000000000000000000000000000000000000000000 DUP2 MSTORE PUSH1 0x4 ADD PUSH2 0xA5 SWAP2 SWAP1 PUSH2 0x271 JUMP JUMPDEST PUSH1 0x40 MLOAD DUP1 SWAP2 SUB SWAP1 REVERT JUMPDEST PUSH2 0xBD DUP2 PUSH2 0x105 PUSH1 0x20 SHL PUSH1 0x20 SHR JUMP JUMPDEST POP DUP2 PUSH1 0x1 PUSH0 PUSH2 0x100 EXP DUP2 SLOAD DUP2 PUSH20 0xFFFFFFFFFFFFFFFFFFFFFFFFFFFFFFFFFFFFFFFF MUL NOT AND SWAP1 DUP4 PUSH20 0xFFFFFFFFFFFFFFFFFFFFFFFFFFFFFFFFFFFFFFFF AND MUL OR SWAP1 SSTORE POP POP POP PUSH2 0x28A JUMP JUMPDEST PUSH0 DUP1 PUSH0 SWAP1 SLOAD SWAP1 PUSH2 0x100 EXP SWAP1 DIV PUSH20 0xFFFFFFFFFFFFFFFFFFFFFFFFFFFFFFFFFFFFFFFF AND SWAP1 POP DUP2 PUSH0 DUP1 PUSH2 0x100 EXP DUP2 SLOAD DUP2 PUSH20 0xFFFFFFFFFFFFFFFFFFFFFFFFFFFFFFFFFFFFFFFF MUL NOT AND SWAP1 DUP4 PUSH20 0xFFFFFFFFFFFFFFFFFFFFFFFFFFFFFFFFFFFFFFFF AND MUL OR SWAP1 SSTORE POP DUP2 PUSH20 0xFFFFFFFFFFFFFFFFFFFFFFFFFFFFFFFFFFFFFFFF AND DUP2 PUSH20 0xFFFFFFFFFFFFFFFFFFFFFFFFFFFFFFFFFFFFFFFF AND PUSH32 0x8BE0079C531659141344CD1FD0A4F28419497F9722A3DAAFE3B4186F6B6457E0 PUSH1 0x40 MLOAD PUSH1 0x40 MLOAD DUP1 SWAP2 SUB SWAP1 LOG3 POP POP JUMP JUMPDEST PUSH0 DUP1 REVERT JUMPDEST PUSH0 PUSH20 0xFFFFFFFFFFFFFFFFFFFFFFFFFFFFFFFFFFFFFFFF DUP3 AND SWAP1 POP SWAP2 SWAP1 POP JUMP JUMPDEST PUSH0 PUSH2 0x1F3 DUP3 PUSH2 0x1CA JUMP JUMPDEST SWAP1 POP SWAP2 SWAP1 POP JUMP JUMPDEST PUSH2 0x203 DUP2 PUSH2 0x1E9 JUMP JUMPDEST DUP2 EQ PUSH2 0x20D JUMPI PUSH0 DUP1 REVERT JUMPDEST POP JUMP JUMPDEST PUSH0 DUP2 MLOAD SWAP1 POP PUSH2 0x21E DUP2 PUSH2 0x1FA JUMP JUMPDEST SWAP3 SWAP2 POP POP JUMP JUMPDEST PUSH0 DUP1 PUSH1 0x40 DUP4 DUP6 SUB SLT ISZERO PUSH2 0x23A JUMPI PUSH2 0x239 PUSH2 0x1C6 JUMP JUMPDEST JUMPDEST PUSH0 PUSH2 0x247 DUP6 DUP3 DUP7 ADD PUSH2 0x210 JUMP JUMPDEST SWAP3 POP POP PUSH1 0x20 PUSH2 0x258 DUP6 DUP3 DUP7 ADD PUSH2 0x210 JUMP JUMPDEST SWAP2 POP POP SWAP3 POP SWAP3 SWAP1 POP JUMP JUMPDEST PUSH2 0x26B DUP2 PUSH2 0x1E9 JUMP JUMPDEST DUP3 MSTORE POP POP JUMP JUMPDEST PUSH0 PUSH1 0x20 DUP3 ADD SWAP1 POP PUSH2 0x284 PUSH0 DUP4 ADD DUP5 PUSH2 0x262 JUMP JUMPDEST SWAP3 SWAP2 POP POP JUMP JUMPDEST PUSH2 0x224F DUP1 PUSH2 0x297 PUSH0 CODECOPY PUSH0 RETURN INVALID PUSH1 0x80 PUSH1 0x40 MSTORE CALLVALUE DUP1 ISZERO PUSH2 0xF JUMPI PUSH0 DUP1 REVERT JUMPDEST POP PUSH1 0x4 CALLDATASIZE LT PUSH2 0x114 JUMPI PUSH0 CALLDATALOAD PUSH1 0xE0 SHR DUP1 PUSH4 0x8DA5CB5B GT PUSH2 0xA0 JUMPI DUP1 PUSH4 0xD5563B3C GT PUSH2 0x6F JUMPI DUP1 PUSH4 0xD5563B3C EQ PUSH2 0x284 JUMPI DUP1 PUSH4 0xE6BE59E7 EQ PUSH2 0x2B4 JUMPI DUP1 PUSH4 0xE95F0328 EQ PUSH2 0x2D2 JUMPI DUP1 PUSH4 0xF2FDE38B EQ PUSH2 0x2EE JUMPI DUP1 PUSH4 0xF77C4791 EQ PUSH2 0x30A JUMPI PUSH2 0x114 JUMP JUMPDEST DUP1 PUSH4 0x8DA5CB5B EQ PUSH2 0x1FA JUMPI DUP1 PUSH4 0xA2FB1175 EQ PUSH2 0x218 JUMPI DUP1 PUSH4 0xB844007C EQ PUSH2 0x248 JUMPI DUP1 PUSH4 0xC3B69EBB EQ PUSH2 0x266 JUMPI PUSH2 0x114 JUMP JUMPDEST DUP1 PUSH4 0x35C1D349 GT PUSH2 0xE7 JUMPI DUP1 PUSH4 0x35C1D349 EQ PUSH2 0x168 JUMPI DUP1 PUSH4 0x3E413BEE EQ PUSH2 0x198 JUMPI DUP1 PUSH4 0x619D36EF EQ PUSH2 0x1B6 JUMPI DUP1 PUSH4 0x6DCBF2A3 EQ PUSH2 0x1C0 JUMPI DUP1 PUSH4 0x715018A6 EQ PUSH2 0x1F0 JUMPI PUSH2 0x114 JUMP JUMPDEST DUP1 PUSH4 0x8601768 EQ PUSH2 0x118 JUMPI DUP1 PUSH4 0x1209B1F6 EQ PUSH2 0x122 JUMPI DUP1 PUSH4 0x16BA7197 EQ PUSH2 0x140 JUMPI DUP1 PUSH4 0x24B570A9 EQ PUSH2 0x14A JUMPI JUMPDEST PUSH0 DUP1 REVERT JUMPDEST PUSH2 0x120 PUSH2 0x328 JUMP JUMPDEST STOP JUMPDEST PUSH2 0x12A PUSH2 0x455 JUMP JUMPDEST PUSH1 0x40 MLOAD PUSH2 0x137 SWAP2 SWAP1 PUSH2 0x15FA JUMP JUMPDEST PUSH1 0x40 MLOAD DUP1 SWAP2 SUB SWAP1 RETURN JUMPDEST PUSH2 0x148 PUSH2 0x45B JUMP JUMPDEST STOP JUMPDEST PUSH2 0x152 PUSH2 0x6BB JUMP JUMPDEST PUSH1 0x40 MLOAD PUSH2 0x15F SWAP2 SWAP1 PUSH2 0x15FA JUMP JUMPDEST PUSH1 0x40 MLOAD DUP1 SWAP2 SUB SWAP1 RETURN JUMPDEST PUSH2 0x182 PUSH1 0x4 DUP1 CALLDATASIZE SUB DUP2 ADD SWAP1 PUSH2 0x17D SWAP2 SWAP1 PUSH2 0x1641 JUMP JUMPDEST PUSH2 0x6C1 JUMP JUMPDEST PUSH1 0x40 MLOAD PUSH2 0x18F SWAP2 SWAP1 PUSH2 0x16AB JUMP JUMPDEST PUSH1 0x40 MLOAD DUP1 SWAP2 SUB SWAP1 RETURN JUMPDEST PUSH2 0x1A0 PUSH2 0x6FC JUMP JUMPDEST PUSH1 0x40 MLOAD PUSH2 0x1AD SWAP2 SWAP1 PUSH2 0x171F JUMP JUMPDEST PUSH1 0x40 MLOAD DUP1 SWAP2 SUB SWAP1 RETURN JUMPDEST PUSH2 0x1BE PUSH2 0x721 JUMP JUMPDEST STOP JUMPDEST PUSH2 0x1DA PUSH1 0x4 DUP1 CALLDATASIZE SUB DUP2 ADD SWAP1 PUSH2 0x1D5 SWAP2 SWAP1 PUSH2 0x1762 JUMP JUMPDEST PUSH2 0xBF9 JUMP JUMPDEST PUSH1 0x40 MLOAD PUSH2 0x1E7 SWAP2 SWAP1 PUSH2 0x15FA JUMP JUMPDEST PUSH1 0x40 MLOAD DUP1 SWAP2 SUB SWAP1 RETURN JUMPDEST PUSH2 0x1F8 PUSH2 0xC0E JUMP JUMPDEST STOP JUMPDEST PUSH2 0x202 PUSH2 0xC21 JUMP JUMPDEST PUSH1 0x40 MLOAD PUSH2 0x20F SWAP2 SWAP1 PUSH2 0x16AB JUMP JUMPDEST PUSH1 0x40 MLOAD DUP1 SWAP2 SUB SWAP1 RETURN JUMPDEST PUSH2 0x232 PUSH1 0x4 DUP1 CALLDATASIZE SUB DUP2 ADD SWAP1 PUSH2 0x22D SWAP2 SWAP1 PUSH2 0x1641 JUMP JUMPDEST PUSH2 0xC48 JUMP JUMPDEST PUSH1 0x40 MLOAD PUSH2 0x23F SWAP2 SWAP1 PUSH2 0x16AB JUMP JUMPDEST PUSH1 0x40 MLOAD DUP1 SWAP2 SUB SWAP1 RETURN JUMPDEST PUSH2 0x250 PUSH2 0xC7C JUMP JUMPDEST PUSH1 0x40 MLOAD PUSH2 0x25D SWAP2 SWAP1 PUSH2 0x17A7 JUMP JUMPDEST PUSH1 0x40 MLOAD DUP1 SWAP2 SUB SWAP1 RETURN JUMPDEST PUSH2 0x26E PUSH2 0xD11 JUMP JUMPDEST PUSH1 0x40 MLOAD PUSH2 0x27B SWAP2 SWAP1 PUSH2 0x17A7 JUMP JUMPDEST PUSH1 0x40 MLOAD DUP1 SWAP2 SUB SWAP1 RETURN JUMPDEST PUSH2 0x29E PUSH1 0x4 DUP1 CALLDATASIZE SUB DUP2 ADD SWAP1 PUSH2 0x299 SWAP2 SWAP1 PUSH2 0x1762 JUMP JUMPDEST PUSH2 0xD23 JUMP JUMPDEST PUSH1 0x40 MLOAD PUSH2 0x2AB SWAP2 SWAP1 PUSH2 0x1830 JUMP JUMPDEST PUSH1 0x40 MLOAD DUP1 SWAP2 SUB SWAP1 RETURN JUMPDEST PUSH2 0x2BC PUSH2 0xE0D JUMP JUMPDEST PUSH1 0x40 MLOAD PUSH2 0x2C9 SWAP2 SWAP1 PUSH2 0x15FA JUMP JUMPDEST PUSH1 0x40 MLOAD DUP1 SWAP2 SUB SWAP1 RETURN JUMPDEST PUSH2 0x2EC PUSH1 0x4 DUP1 CALLDATASIZE SUB DUP2 ADD SWAP1 PUSH2 0x2E7 SWAP2 SWAP1 PUSH2 0x1641 JUMP JUMPDEST PUSH2 0xE13 JUMP JUMPDEST STOP JUMPDEST PUSH2 0x308 PUSH1 0x4 DUP1 CALLDATASIZE SUB DUP2 ADD SWAP1 PUSH2 0x303 SWAP2 SWAP1 PUSH2 0x1762 JUMP JUMPDEST PUSH2 0x1240 JUMP JUMPDEST STOP JUMPDEST PUSH2 0x312 PUSH2 0x12C4 JUMP JUMPDEST PUSH1 0x40 MLOAD PUSH2 0x31F SWAP2 SWAP1 PUSH2 0x16AB JUMP JUMPDEST PUSH1 0x40 MLOAD DUP1 SWAP2 SUB SWAP1 RETURN JUMPDEST PUSH20 0x34045C937742C8AD6222A10EB21C7CFFF8BF870E PUSH20 0xFFFFFFFFFFFFFFFFFFFFFFFFFFFFFFFFFFFFFFFF AND CALLER PUSH20 0xFFFFFFFFFFFFFFFFFFFFFFFFFFFFFFFFFFFFFFFF AND EQ PUSH2 0x3AA JUMPI PUSH1 0x40 MLOAD PUSH32 0x8C379A000000000000000000000000000000000000000000000000000000000 DUP2 MSTORE PUSH1 0x4 ADD PUSH2 0x3A1 SWAP1 PUSH2 0x189A JUMP JUMPDEST PUSH1 0x40 MLOAD DUP1 SWAP2 SUB SWAP1 REVERT JUMPDEST PUSH1 0x6 PUSH0 SWAP1 SLOAD SWAP1 PUSH2 0x100 EXP SWAP1 DIV PUSH1 0xFF AND ISZERO PUSH2 0x3F9 JUMPI PUSH1 0x40 MLOAD PUSH32 0x8C379A000000000000000000000000000000000000000000000000000000000 DUP2 MSTORE PUSH1 0x4 ADD PUSH2 0x3F0 SWAP1 PUSH2 0x1902 JUMP JUMPDEST PUSH1 0x40 MLOAD DUP1 SWAP2 SUB SWAP1 REVERT JUMPDEST PUSH1 0x1 PUSH1 0x6 PUSH0 PUSH2 0x100 EXP DUP2 SLOAD DUP2 PUSH1 0xFF MUL NOT AND SWAP1 DUP4 ISZERO ISZERO MUL OR SWAP1 SSTORE POP PUSH1 0x4 PUSH0 PUSH2 0x420 SWAP2 SWAP1 PUSH2 0x15A9 JUMP JUMPDEST PUSH0 PUSH1 0xA DUP2 SWAP1 SSTORE POP PUSH32 0xD029C7C68D943F92286A7825FA6AA2DEEFA1EEE46CEE6C91B7E483FD06D27BAF PUSH1 0x40 MLOAD PUSH1 0x40 MLOAD DUP1 SWAP2 SUB SWAP1 LOG1 JUMP JUMPDEST PUSH1 0x2 SLOAD DUP2 JUMP JUMPDEST PUSH20 0x34045C937742C8AD6222A10EB21C7CFFF8BF870E PUSH20 0xFFFFFFFFFFFFFFFFFFFFFFFFFFFFFFFFFFFFFFFF AND CALLER PUSH20 0xFFFFFFFFFFFFFFFFFFFFFFFFFFFFFFFFFFFFFFFF AND EQ PUSH2 0x4DD JUMPI PUSH1 0x40 MLOAD PUSH32 0x8C379A000000000000000000000000000000000000000000000000000000000 DUP2 MSTORE PUSH1 0x4 ADD PUSH2 0x4D4 SWAP1 PUSH2 0x189A JUMP JUMPDEST PUSH1 0x40 MLOAD DUP1 SWAP2 SUB SWAP1 REVERT JUMPDEST PUSH0 PUSH1 0x1 PUSH0 SWAP1 SLOAD SWAP1 PUSH2 0x100 EXP SWAP1 DIV PUSH20 0xFFFFFFFFFFFFFFFFFFFFFFFFFFFFFFFFFFFFFFFF AND PUSH20 0xFFFFFFFFFFFFFFFFFFFFFFFFFFFFFFFFFFFFFFFF AND PUSH4 0x70A08231 ADDRESS PUSH1 0x40 MLOAD DUP3 PUSH4 0xFFFFFFFF AND PUSH1 0xE0 SHL DUP2 MSTORE PUSH1 0x4 ADD PUSH2 0x538 SWAP2 SWAP1 PUSH2 0x16AB JUMP JUMPDEST PUSH1 0x20 PUSH1 0x40 MLOAD DUP1 DUP4 SUB DUP2 DUP7 GAS STATICCALL ISZERO DUP1 ISZERO PUSH2 0x553 JUMPI RETURNDATASIZE PUSH0 DUP1 RETURNDATACOPY RETURNDATASIZE PUSH0 REVERT JUMPDEST POP POP POP POP PUSH1 0x40 MLOAD RETURNDATASIZE PUSH1 0x1F NOT PUSH1 0x1F DUP3 ADD AND DUP3 ADD DUP1 PUSH1 0x40 MSTORE POP DUP2 ADD SWAP1 PUSH2 0x577 SWAP2 SWAP1 PUSH2 0x1934 JUMP JUMPDEST SWAP1 POP PUSH0 PUSH2 0x2710 PUSH1 0x3 SLOAD PUSH1 0xA SLOAD PUSH2 0x58D SWAP2 SWAP1 PUSH2 0x198C JUMP JUMPDEST PUSH2 0x597 SWAP2 SWAP1 PUSH2 0x19FA JUMP JUMPDEST DUP3 PUSH2 0x5A2 SWAP2 SWAP1 PUSH2 0x1A2A JUMP JUMPDEST SWAP1 POP PUSH1 0x1 PUSH0 SWAP1 SLOAD SWAP1 PUSH2 0x100 EXP SWAP1 DIV PUSH20 0xFFFFFFFFFFFFFFFFFFFFFFFFFFFFFFFFFFFFFFFF AND PUSH20 0xFFFFFFFFFFFFFFFFFFFFFFFFFFFFFFFFFFFFFFFF AND PUSH4 0xA9059CBB PUSH20 0x34045C937742C8AD6222A10EB21C7CFFF8BF870E DUP4 PUSH1 0x40 MLOAD DUP4 PUSH4 0xFFFFFFFF AND PUSH1 0xE0 SHL DUP2 MSTORE PUSH1 0x4 ADD PUSH2 0x614 SWAP3 SWAP2 SWAP1 PUSH2 0x1A5D JUMP JUMPDEST PUSH1 0x20 PUSH1 0x40 MLOAD DUP1 DUP4 SUB DUP2 PUSH0 DUP8 GAS CALL ISZERO DUP1 ISZERO PUSH2 0x630 JUMPI RETURNDATASIZE PUSH0 DUP1 RETURNDATACOPY RETURNDATASIZE PUSH0 REVERT JUMPDEST POP POP POP POP PUSH1 0x40 MLOAD RETURNDATASIZE PUSH1 0x1F NOT PUSH1 0x1F DUP3 ADD AND DUP3 ADD DUP1 PUSH1 0x40 MSTORE POP DUP2 ADD SWAP1 PUSH2 0x654 SWAP2 SWAP1 PUSH2 0x1AAE JUMP JUMPDEST POP PUSH20 0x34045C937742C8AD6222A10EB21C7CFFF8BF870E PUSH20 0xFFFFFFFFFFFFFFFFFFFFFFFFFFFFFFFFFFFFFFFF AND PUSH32 0x7FCF532C15F0A6DB0BD6D0E038BEA71D30D808C7D98CB3BF7268A95BF5081B65 DUP3 PUSH1 0x40 MLOAD PUSH2 0x6AF SWAP2 SWAP1 PUSH2 0x15FA JUMP JUMPDEST PUSH1 0x40 MLOAD DUP1 SWAP2 SUB SWAP1 LOG2 POP POP JUMP JUMPDEST PUSH1 0xA SLOAD DUP2 JUMP JUMPDEST PUSH1 0x4 DUP2 DUP2 SLOAD DUP2 LT PUSH2 0x6D0 JUMPI PUSH0 DUP1 REVERT JUMPDEST SWAP1 PUSH0 MSTORE PUSH1 0x20 PUSH0 KECCAK256 ADD PUSH0 SWAP2 POP SLOAD SWAP1 PUSH2 0x100 EXP SWAP1 DIV PUSH20 0xFFFFFFFFFFFFFFFFFFFFFFFFFFFFFFFFFFFFFFFF AND DUP2 JUMP JUMPDEST PUSH1 0x1 PUSH0 SWAP1 SLOAD SWAP1 PUSH2 0x100 EXP SWAP1 DIV PUSH20 0xFFFFFFFFFFFFFFFFFFFFFFFFFFFFFFFFFFFFFFFF AND DUP2 JUMP JUMPDEST PUSH20 0x34045C937742C8AD6222A10EB21C7CFFF8BF870E PUSH20 0xFFFFFFFFFFFFFFFFFFFFFFFFFFFFFFFFFFFFFFFF AND CALLER PUSH20 0xFFFFFFFFFFFFFFFFFFFFFFFFFFFFFFFFFFFFFFFF AND EQ PUSH2 0x7A3 JUMPI PUSH1 0x40 MLOAD PUSH32 0x8C379A000000000000000000000000000000000000000000000000000000000 DUP2 MSTORE PUSH1 0x4 ADD PUSH2 0x79A SWAP1 PUSH2 0x189A JUMP JUMPDEST PUSH1 0x40 MLOAD DUP1 SWAP2 SUB SWAP1 REVERT JUMPDEST PUSH1 0x6 PUSH0 SWAP1 SLOAD SWAP1 PUSH2 0x100 EXP SWAP1 DIV PUSH1 0xFF AND PUSH2 0x7F1 JUMPI PUSH1 0x40 MLOAD PUSH32 0x8C379A000000000000000000000000000000000000000000000000000000000 DUP2 MSTORE PUSH1 0x4 ADD PUSH2 0x7E8 SWAP1 PUSH2 0x1B23 JUMP JUMPDEST PUSH1 0x40 MLOAD DUP1 SWAP2 SUB SWAP1 REVERT JUMPDEST PUSH1 0x3 PUSH1 0x4 DUP1 SLOAD SWAP1 POP LT ISZERO PUSH2 0x83A JUMPI PUSH1 0x40 MLOAD PUSH32 0x8C379A000000000000000000000000000000000000000000000000000000000 DUP2 MSTORE PUSH1 0x4 ADD PUSH2 0x831 SWAP1 PUSH2 0x1B8B JUMP JUMPDEST PUSH1 0x40 MLOAD DUP1 SWAP2 SUB SWAP1 REVERT JUMPDEST PUSH0 PUSH2 0x2710 PUSH1 0x3 SLOAD PUSH2 0x2710 PUSH2 0x84E SWAP2 SWAP1 PUSH2 0x1A2A JUMP JUMPDEST PUSH1 0xA SLOAD PUSH2 0x85B SWAP2 SWAP1 PUSH2 0x198C JUMP JUMPDEST PUSH2 0x865 SWAP2 SWAP1 PUSH2 0x19FA JUMP JUMPDEST SWAP1 POP PUSH0 PUSH1 0x40 MLOAD DUP1 PUSH1 0x60 ADD PUSH1 0x40 MSTORE DUP1 PUSH2 0x2710 PUSH2 0x1E5A DUP6 PUSH2 0x884 SWAP2 SWAP1 PUSH2 0x198C JUMP JUMPDEST PUSH2 0x88E SWAP2 SWAP1 PUSH2 0x19FA JUMP JUMPDEST DUP2 MSTORE PUSH1 0x20 ADD PUSH2 0x2710 PUSH2 0x532 DUP6 PUSH2 0x8A4 SWAP2 SWAP1 PUSH2 0x198C JUMP JUMPDEST PUSH2 0x8AE SWAP2 SWAP1 PUSH2 0x19FA JUMP JUMPDEST DUP2 MSTORE PUSH1 0x20 ADD PUSH2 0x2710 PUSH2 0x320 DUP6 PUSH2 0x8C4 SWAP2 SWAP1 PUSH2 0x198C JUMP JUMPDEST PUSH2 0x8CE SWAP2 SWAP1 PUSH2 0x19FA JUMP JUMPDEST DUP2 MSTORE POP SWAP1 POP PUSH0 JUMPDEST PUSH1 0x3 DUP2 LT ISZERO PUSH2 0xB8D JUMPI PUSH0 PUSH1 0x4 DUP1 SLOAD SWAP1 POP TIMESTAMP PREVRANDAO PUSH1 0x4 PUSH1 0x40 MLOAD PUSH1 0x20 ADD PUSH2 0x8FB SWAP4 SWAP3 SWAP2 SWAP1 PUSH2 0x1CD9 JUMP JUMPDEST PUSH1 0x40 MLOAD PUSH1 0x20 DUP2 DUP4 SUB SUB DUP2 MSTORE SWAP1 PUSH1 0x40 MSTORE DUP1 MLOAD SWAP1 PUSH1 0x20 ADD KECCAK256 PUSH0 SHR PUSH2 0x91D SWAP2 SWAP1 PUSH2 0x1D11 JUMP JUMPDEST SWAP1 POP PUSH1 0x4 DUP2 DUP2 SLOAD DUP2 LT PUSH2 0x933 JUMPI PUSH2 0x932 PUSH2 0x1D41 JUMP JUMPDEST JUMPDEST SWAP1 PUSH0 MSTORE PUSH1 0x20 PUSH0 KECCAK256 ADD PUSH0 SWAP1 SLOAD SWAP1 PUSH2 0x100 EXP SWAP1 DIV PUSH20 0xFFFFFFFFFFFFFFFFFFFFFFFFFFFFFFFFFFFFFFFF AND PUSH1 0x7 DUP4 PUSH1 0x3 DUP2 LT PUSH2 0x96F JUMPI PUSH2 0x96E PUSH2 0x1D41 JUMP JUMPDEST JUMPDEST ADD PUSH0 PUSH2 0x100 EXP DUP2 SLOAD DUP2 PUSH20 0xFFFFFFFFFFFFFFFFFFFFFFFFFFFFFFFFFFFFFFFF MUL NOT AND SWAP1 DUP4 PUSH20 0xFFFFFFFFFFFFFFFFFFFFFFFFFFFFFFFFFFFFFFFF AND MUL OR SWAP1 SSTORE POP PUSH1 0x1 PUSH0 SWAP1 SLOAD SWAP1 PUSH2 0x100 EXP SWAP1 DIV PUSH20 0xFFFFFFFFFFFFFFFFFFFFFFFFFFFFFFFFFFFFFFFF AND PUSH20 0xFFFFFFFFFFFFFFFFFFFFFFFFFFFFFFFFFFFFFFFF AND PUSH4 0xA9059CBB PUSH1 0x7 DUP5 PUSH1 0x3 DUP2 LT PUSH2 0x9FE JUMPI PUSH2 0x9FD PUSH2 0x1D41 JUMP JUMPDEST JUMPDEST ADD PUSH0 SWAP1 SLOAD SWAP1 PUSH2 0x100 EXP SWAP1 DIV PUSH20 0xFFFFFFFFFFFFFFFFFFFFFFFFFFFFFFFFFFFFFFFF AND DUP6 DUP6 PUSH1 0x3 DUP2 LT PUSH2 0xA32 JUMPI PUSH2 0xA31 PUSH2 0x1D41 JUMP JUMPDEST JUMPDEST PUSH1 0x20 MUL ADD MLOAD PUSH1 0x40 MLOAD DUP4 PUSH4 0xFFFFFFFF AND PUSH1 0xE0 SHL DUP2 MSTORE PUSH1 0x4 ADD PUSH2 0xA54 SWAP3 SWAP2 SWAP1 PUSH2 0x1A5D JUMP JUMPDEST PUSH1 0x20 PUSH1 0x40 MLOAD DUP1 DUP4 SUB DUP2 PUSH0 DUP8 GAS CALL ISZERO DUP1 ISZERO PUSH2 0xA70 JUMPI RETURNDATASIZE PUSH0 DUP1 RETURNDATACOPY RETURNDATASIZE PUSH0 REVERT JUMPDEST POP POP POP POP PUSH1 0x40 MLOAD RETURNDATASIZE PUSH1 0x1F NOT PUSH1 0x1F DUP3 ADD AND DUP3 ADD DUP1 PUSH1 0x40 MSTORE POP DUP2 ADD SWAP1 PUSH2 0xA94 SWAP2 SWAP1 PUSH2 0x1AAE JUMP JUMPDEST POP PUSH1 0x4 PUSH1 0x1 PUSH1 0x4 DUP1 SLOAD SWAP1 POP PUSH2 0xAA9 SWAP2 SWAP1 PUSH2 0x1A2A JUMP JUMPDEST DUP2 SLOAD DUP2 LT PUSH2 0xABA JUMPI PUSH2 0xAB9 PUSH2 0x1D41 JUMP JUMPDEST JUMPDEST SWAP1 PUSH0 MSTORE PUSH1 0x20 PUSH0 KECCAK256 ADD PUSH0 SWAP1 SLOAD SWAP1 PUSH2 0x100 EXP SWAP1 DIV PUSH20 0xFFFFFFFFFFFFFFFFFFFFFFFFFFFFFFFFFFFFFFFF AND PUSH1 0x4 DUP3 DUP2 SLOAD DUP2 LT PUSH2 0xAF6 JUMPI PUSH2 0xAF5 PUSH2 0x1D41 JUMP JUMPDEST JUMPDEST SWAP1 PUSH0 MSTORE PUSH1 0x20 PUSH0 KECCAK256 ADD PUSH0 PUSH2 0x100 EXP DUP2 SLOAD DUP2 PUSH20 0xFFFFFFFFFFFFFFFFFFFFFFFFFFFFFFFFFFFFFFFF MUL NOT AND SWAP1 DUP4 PUSH20 0xFFFFFFFFFFFFFFFFFFFFFFFFFFFFFFFFFFFFFFFF AND MUL OR SWAP1 SSTORE POP PUSH1 0x4 DUP1 SLOAD DUP1 PUSH2 0xB4D JUMPI PUSH2 0xB4C PUSH2 0x1D6E JUMP JUMPDEST JUMPDEST PUSH1 0x1 SWAP1 SUB DUP2 DUP2 SWAP1 PUSH0 MSTORE PUSH1 0x20 PUSH0 KECCAK256 ADD PUSH0 PUSH2 0x100 EXP DUP2 SLOAD SWAP1 PUSH20 0xFFFFFFFFFFFFFFFFFFFFFFFFFFFFFFFFFFFFFFFF MUL NOT AND SWAP1 SSTORE SWAP1 SSTORE POP DUP1 DUP1 PUSH1 0x1 ADD SWAP2 POP POP PUSH2 0x8D5 JUMP JUMPDEST POP PUSH0 PUSH1 0x6 PUSH0 PUSH2 0x100 EXP DUP2 SLOAD DUP2 PUSH1 0xFF MUL NOT AND SWAP1 DUP4 ISZERO ISZERO MUL OR SWAP1 SSTORE POP PUSH1 0x7 PUSH1 0x40 MLOAD PUSH2 0xBB6 SWAP2 SWAP1 PUSH2 0x1E21 JUMP JUMPDEST PUSH1 0x40 MLOAD DUP1 SWAP2 SUB SWAP1 KECCAK256 PUSH32 0x88437EB7FD2A13D073B9C914E5AC1FA25B373BE0B3A9BB17684DDA58C53B3745 DUP3 PUSH1 0x40 MLOAD PUSH2 0xBED SWAP2 SWAP1 PUSH2 0x1EE0 JUMP JUMPDEST PUSH1 0x40 MLOAD DUP1 SWAP2 SUB SWAP1 LOG2 POP POP JUMP JUMPDEST PUSH1 0x5 PUSH1 0x20 MSTORE DUP1 PUSH0 MSTORE PUSH1 0x40 PUSH0 KECCAK256 PUSH0 SWAP2 POP SWAP1 POP SLOAD DUP2 JUMP JUMPDEST PUSH2 0xC16 PUSH2 0x12DC JUMP JUMPDEST PUSH2 0xC1F PUSH0 PUSH2 0x1363 JUMP JUMPDEST JUMP JUMPDEST PUSH0 DUP1 PUSH0 SWAP1 SLOAD SWAP1 PUSH2 0x100 EXP SWAP1 DIV PUSH20 0xFFFFFFFFFFFFFFFFFFFFFFFFFFFFFFFFFFFFFFFF AND SWAP1 POP SWAP1 JUMP JUMPDEST PUSH1 0x7 DUP2 PUSH1 0x3 DUP2 LT PUSH2 0xC57 JUMPI PUSH0 DUP1 REVERT JUMPDEST ADD PUSH0 SWAP2 POP SLOAD SWAP1 PUSH2 0x100 EXP SWAP1 DIV PUSH20 0xFFFFFFFFFFFFFFFFFFFFFFFFFFFFFFFFFFFFFFFF AND DUP2 JUMP JUMPDEST PUSH0 DUP1 PUSH0 SWAP1 POP JUMPDEST PUSH1 0x3 DUP2 LT ISZERO PUSH2 0xD09 JUMPI PUSH1 0x7 DUP2 PUSH1 0x3 DUP2 LT PUSH2 0xC9F JUMPI PUSH2 0xC9E PUSH2 0x1D41 JUMP JUMPDEST JUMPDEST ADD PUSH0 SWAP1 SLOAD SWAP1 PUSH2 0x100 EXP SWAP1 DIV PUSH20 0xFFFFFFFFFFFFFFFFFFFFFFFFFFFFFFFFFFFFFFFF AND PUSH20 0xFFFFFFFFFFFFFFFFFFFFFFFFFFFFFFFFFFFFFFFF AND CALLER PUSH20 0xFFFFFFFFFFFFFFFFFFFFFFFFFFFFFFFFFFFFFFFF AND SUB PUSH2 0xCFC JUMPI PUSH1 0x1 SWAP2 POP POP PUSH2 0xD0E JUMP JUMPDEST DUP1 DUP1 PUSH1 0x1 ADD SWAP2 POP POP PUSH2 0xC82 JUMP JUMPDEST POP PUSH0 SWAP1 POP JUMPDEST SWAP1 JUMP JUMPDEST PUSH1 0x6 PUSH0 SWAP1 SLOAD SWAP1 PUSH2 0x100 EXP SWAP1 DIV PUSH1 0xFF AND DUP2 JUMP JUMPDEST PUSH1 0x60 PUSH0 PUSH1 0x5 PUSH0 DUP5 PUSH20 0xFFFFFFFFFFFFFFFFFFFFFFFFFFFFFFFFFFFFFFFF AND PUSH20 0xFFFFFFFFFFFFFFFFFFFFFFFFFFFFFFFFFFFFFFFF AND DUP2 MSTORE PUSH1 0x20 ADD SWAP1 DUP2 MSTORE PUSH1 0x20 ADD PUSH0 KECCAK256 SLOAD SWAP1 POP PUSH0 PUSH1 0x4 DUP1 SLOAD SWAP1 POP SUB PUSH2 0xDB0 JUMPI PUSH1 0x40 MLOAD DUP1 PUSH1 0x40 ADD PUSH1 0x40 MSTORE DUP1 PUSH1 0x10 DUP2 MSTORE PUSH1 0x20 ADD PUSH32 0x4E6F207469636B65747320736F6C642E00000000000000000000000000000000 DUP2 MSTORE POP SWAP2 POP POP PUSH2 0xE08 JUMP JUMPDEST PUSH0 PUSH2 0x2710 DUP3 PUSH2 0xDBF SWAP2 SWAP1 PUSH2 0x198C JUMP JUMPDEST SWAP1 POP PUSH0 PUSH1 0x4 DUP1 SLOAD SWAP1 POP SWAP1 POP PUSH0 DUP2 DUP4 PUSH2 0xDD7 SWAP2 SWAP1 PUSH2 0x19FA JUMP JUMPDEST SWAP1 POP PUSH2 0xDE2 DUP2 PUSH2 0x1424 JUMP JUMPDEST PUSH1 0x40 MLOAD PUSH1 0x20 ADD PUSH2 0xDF2 SWAP2 SWAP1 PUSH2 0x1F7D JUMP JUMPDEST PUSH1 0x40 MLOAD PUSH1 0x20 DUP2 DUP4 SUB SUB DUP2 MSTORE SWAP1 PUSH1 0x40 MSTORE SWAP5 POP POP POP POP POP JUMPDEST SWAP2 SWAP1 POP JUMP JUMPDEST PUSH1 0x3 SLOAD DUP2 JUMP JUMPDEST PUSH1 0x6 PUSH0 SWAP1 SLOAD SWAP1 PUSH2 0x100 EXP SWAP1 DIV PUSH1 0xFF AND PUSH2 0xE61 JUMPI PUSH1 0x40 MLOAD PUSH32 0x8C379A000000000000000000000000000000000000000000000000000000000 DUP2 MSTORE PUSH1 0x4 ADD PUSH2 0xE58 SWAP1 PUSH2 0x1B23 JUMP JUMPDEST PUSH1 0x40 MLOAD DUP1 SWAP2 SUB SWAP1 REVERT JUMPDEST PUSH0 DUP2 GT PUSH2 0xEA3 JUMPI PUSH1 0x40 MLOAD PUSH32 0x8C379A000000000000000000000000000000000000000000000000000000000 DUP2 MSTORE PUSH1 0x4 ADD PUSH2 0xE9A SWAP1 PUSH2 0x1FE8 JUMP JUMPDEST PUSH1 0x40 MLOAD DUP1 SWAP2 SUB SWAP1 REVERT JUMPDEST PUSH0 PUSH1 0x2 SLOAD DUP3 PUSH2 0xEB2 SWAP2 SWAP1 PUSH2 0x198C JUMP JUMPDEST SWAP1 POP DUP1 PUSH1 0x1 PUSH0 SWAP1 SLOAD SWAP1 PUSH2 0x100 EXP SWAP1 DIV PUSH20 0xFFFFFFFFFFFFFFFFFFFFFFFFFFFFFFFFFFFFFFFF AND PUSH20 0xFFFFFFFFFFFFFFFFFFFFFFFFFFFFFFFFFFFFFFFF AND PUSH4 0x70A08231 CALLER PUSH1 0x40 MLOAD DUP3 PUSH4 0xFFFFFFFF AND PUSH1 0xE0 SHL DUP2 MSTORE PUSH1 0x4 ADD PUSH2 0xF0F SWAP2 SWAP1 PUSH2 0x16AB JUMP JUMPDEST PUSH1 0x20 PUSH1 0x40 MLOAD DUP1 DUP4 SUB DUP2 DUP7 GAS STATICCALL ISZERO DUP1 ISZERO PUSH2 0xF2A JUMPI RETURNDATASIZE PUSH0 DUP1 RETURNDATACOPY RETURNDATASIZE PUSH0 REVERT JUMPDEST POP POP POP POP PUSH1 0x40 MLOAD RETURNDATASIZE PUSH1 0x1F NOT PUSH1 0x1F DUP3 ADD AND DUP3 ADD DUP1 PUSH1 0x40 MSTORE POP DUP2 ADD SWAP1 PUSH2 0xF4E SWAP2 SWAP1 PUSH2 0x1934 JUMP JUMPDEST LT ISZERO PUSH2 0xF8F JUMPI PUSH1 0x40 MLOAD PUSH32 0x8C379A000000000000000000000000000000000000000000000000000000000 DUP2 MSTORE PUSH1 0x4 ADD PUSH2 0xF86 SWAP1 PUSH2 0x2050 JUMP JUMPDEST PUSH1 0x40 MLOAD DUP1 SWAP2 SUB SWAP1 REVERT JUMPDEST DUP1 PUSH1 0x1 PUSH0 SWAP1 SLOAD SWAP1 PUSH2 0x100 EXP SWAP1 DIV PUSH20 0xFFFFFFFFFFFFFFFFFFFFFFFFFFFFFFFFFFFFFFFF AND PUSH20 0xFFFFFFFFFFFFFFFFFFFFFFFFFFFFFFFFFFFFFFFF AND PUSH4 0xDD62ED3E CALLER ADDRESS PUSH1 0x40 MLOAD DUP4 PUSH4 0xFFFFFFFF AND PUSH1 0xE0 SHL DUP2 MSTORE PUSH1 0x4 ADD PUSH2 0xFEC SWAP3 SWAP2 SWAP1 PUSH2 0x206E JUMP JUMPDEST PUSH1 0x20 PUSH1 0x40 MLOAD DUP1 DUP4 SUB DUP2 DUP7 GAS STATICCALL ISZERO DUP1 ISZERO PUSH2 0x1007 JUMPI RETURNDATASIZE PUSH0 DUP1 RETURNDATACOPY RETURNDATASIZE PUSH0 REVERT JUMPDEST POP POP POP POP PUSH1 0x40 MLOAD RETURNDATASIZE PUSH1 0x1F NOT PUSH1 0x1F DUP3 ADD AND DUP3 ADD DUP1 PUSH1 0x40 MSTORE POP DUP2 ADD SWAP1 PUSH2 0x102B SWAP2 SWAP1 PUSH2 0x1934 JUMP JUMPDEST LT ISZERO PUSH2 0x106C JUMPI PUSH1 0x40 MLOAD PUSH32 0x8C379A000000000000000000000000000000000000000000000000000000000 DUP2 MSTORE PUSH1 0x4 ADD PUSH2 0x1063 SWAP1 PUSH2 0x20DF JUMP JUMPDEST PUSH1 0x40 MLOAD DUP1 SWAP2 SUB SWAP1 REVERT JUMPDEST PUSH1 0x1 PUSH0 SWAP1 SLOAD SWAP1 PUSH2 0x100 EXP SWAP1 DIV PUSH20 0xFFFFFFFFFFFFFFFFFFFFFFFFFFFFFFFFFFFFFFFF AND PUSH20 0xFFFFFFFFFFFFFFFFFFFFFFFFFFFFFFFFFFFFFFFF AND PUSH4 0x23B872DD CALLER ADDRESS DUP5 PUSH1 0x40 MLOAD DUP5 PUSH4 0xFFFFFFFF AND PUSH1 0xE0 SHL DUP2 MSTORE PUSH1 0x4 ADD PUSH2 0x10CA SWAP4 SWAP3 SWAP2 SWAP1 PUSH2 0x20FD JUMP JUMPDEST PUSH1 0x20 PUSH1 0x40 MLOAD DUP1 DUP4 SUB DUP2 PUSH0 DUP8 GAS CALL ISZERO DUP1 ISZERO PUSH2 0x10E6 JUMPI RETURNDATASIZE PUSH0 DUP1 RETURNDATACOPY RETURNDATASIZE PUSH0 REVERT JUMPDEST POP POP POP POP PUSH1 0x40 MLOAD RETURNDATASIZE PUSH1 0x1F NOT PUSH1 0x1F DUP3 ADD AND DUP3 ADD DUP1 PUSH1 0x40 MSTORE POP DUP2 ADD SWAP1 PUSH2 0x110A SWAP2 SWAP1 PUSH2 0x1AAE JUMP JUMPDEST POP PUSH0 JUMPDEST DUP3 DUP2 LT ISZERO PUSH2 0x1182 JUMPI PUSH1 0x4 CALLER SWAP1 DUP1 PUSH1 0x1 DUP2 SLOAD ADD DUP1 DUP3 SSTORE DUP1 SWAP2 POP POP PUSH1 0x1 SWAP1 SUB SWAP1 PUSH0 MSTORE PUSH1 0x20 PUSH0 KECCAK256 ADD PUSH0 SWAP1 SWAP2 SWAP1 SWAP2 SWAP1 SWAP2 PUSH2 0x100 EXP DUP2 SLOAD DUP2 PUSH20 0xFFFFFFFFFFFFFFFFFFFFFFFFFFFFFFFFFFFFFFFF MUL NOT AND SWAP1 DUP4 PUSH20 0xFFFFFFFFFFFFFFFFFFFFFFFFFFFFFFFFFFFFFFFF AND MUL OR SWAP1 SSTORE POP DUP1 DUP1 PUSH1 0x1 ADD SWAP2 POP POP PUSH2 0x110D JUMP JUMPDEST POP DUP2 PUSH1 0x5 PUSH0 CALLER PUSH20 0xFFFFFFFFFFFFFFFFFFFFFFFFFFFFFFFFFFFFFFFF AND PUSH20 0xFFFFFFFFFFFFFFFFFFFFFFFFFFFFFFFFFFFFFFFF AND DUP2 MSTORE PUSH1 0x20 ADD SWAP1 DUP2 MSTORE PUSH1 0x20 ADD PUSH0 KECCAK256 PUSH0 DUP3 DUP3 SLOAD PUSH2 0x11CF SWAP2 SWAP1 PUSH2 0x2132 JUMP JUMPDEST SWAP3 POP POP DUP2 SWAP1 SSTORE POP DUP1 PUSH1 0xA PUSH0 DUP3 DUP3 SLOAD PUSH2 0x11E7 SWAP2 SWAP1 PUSH2 0x2132 JUMP JUMPDEST SWAP3 POP POP DUP2 SWAP1 SSTORE POP CALLER PUSH20 0xFFFFFFFFFFFFFFFFFFFFFFFFFFFFFFFFFFFFFFFF AND PUSH32 0xE1FFFCC4923D04B559F4D29A8BFC6CDA04EB5B0D3C460751C2402C5C5CC9109C DUP3 PUSH1 0x40 MLOAD PUSH2 0x1234 SWAP2 SWAP1 PUSH2 0x15FA JUMP JUMPDEST PUSH1 0x40 MLOAD DUP1 SWAP2 SUB SWAP1 LOG2 POP POP JUMP JUMPDEST PUSH2 0x1248 PUSH2 0x12DC JUMP JUMPDEST PUSH0 PUSH20 0xFFFFFFFFFFFFFFFFFFFFFFFFFFFFFFFFFFFFFFFF AND DUP2 PUSH20 0xFFFFFFFFFFFFFFFFFFFFFFFFFFFFFFFFFFFFFFFF AND SUB PUSH2 0x12B8 JUMPI PUSH0 PUSH1 0x40 MLOAD PUSH32 0x1E4FBDF700000000000000000000000000000000000000000000000000000000 DUP2 MSTORE PUSH1 0x4 ADD PUSH2 0x12AF SWAP2 SWAP1 PUSH2 0x16AB JUMP JUMPDEST PUSH1 0x40 MLOAD DUP1 SWAP2 SUB SWAP1 REVERT JUMPDEST PUSH2 0x12C1 DUP2 PUSH2 0x1363 JUMP JUMPDEST POP JUMP JUMPDEST PUSH20 0x34045C937742C8AD6222A10EB21C7CFFF8BF870E DUP2 JUMP JUMPDEST PUSH2 0x12E4 PUSH2 0x15A2 JUMP JUMPDEST PUSH20 0xFFFFFFFFFFFFFFFFFFFFFFFFFFFFFFFFFFFFFFFF AND PUSH2 0x1302 PUSH2 0xC21 JUMP JUMPDEST PUSH20 0xFFFFFFFFFFFFFFFFFFFFFFFFFFFFFFFFFFFFFFFF AND EQ PUSH2 0x1361 JUMPI PUSH2 0x1325 PUSH2 0x15A2 JUMP JUMPDEST PUSH1 0x40 MLOAD PUSH32 0x118CDAA700000000000000000000000000000000000000000000000000000000 DUP2 MSTORE PUSH1 0x4 ADD PUSH2 0x1358 SWAP2 SWAP1 PUSH2 0x16AB JUMP JUMPDEST PUSH1 0x40 MLOAD DUP1 SWAP2 SUB SWAP1 REVERT JUMPDEST JUMP JUMPDEST PUSH0 DUP1 PUSH0 SWAP1 SLOAD SWAP1 PUSH2 0x100 EXP SWAP1 DIV PUSH20 0xFFFFFFFFFFFFFFFFFFFFFFFFFFFFFFFFFFFFFFFF AND SWAP1 POP DUP2 PUSH0 DUP1 PUSH2 0x100 EXP DUP2 SLOAD DUP2 PUSH20 0xFFFFFFFFFFFFFFFFFFFFFFFFFFFFFFFFFFFFFFFF MUL NOT AND SWAP1 DUP4 PUSH20 0xFFFFFFFFFFFFFFFFFFFFFFFFFFFFFFFFFFFFFFFF AND MUL OR SWAP1 SSTORE POP DUP2 PUSH20 0xFFFFFFFFFFFFFFFFFFFFFFFFFFFFFFFFFFFFFFFF AND DUP2 PUSH20 0xFFFFFFFFFFFFFFFFFFFFFFFFFFFFFFFFFFFFFFFF AND PUSH32 0x8BE0079C531659141344CD1FD0A4F28419497F9722A3DAAFE3B4186F6B6457E0 PUSH1 0x40 MLOAD PUSH1 0x40 MLOAD DUP1 SWAP2 SUB SWAP1 LOG3 POP POP JUMP JUMPDEST PUSH1 0x60 PUSH0 DUP3 SUB PUSH2 0x146A JUMPI PUSH1 0x40 MLOAD DUP1 PUSH1 0x40 ADD PUSH1 0x40 MSTORE DUP1 PUSH1 0x1 DUP2 MSTORE PUSH1 0x20 ADD PUSH32 0x3000000000000000000000000000000000000000000000000000000000000000 DUP2 MSTORE POP SWAP1 POP PUSH2 0x159D JUMP JUMPDEST PUSH0 DUP3 SWAP1 POP PUSH0 JUMPDEST PUSH0 DUP3 EQ PUSH2 0x1499 JUMPI DUP1 DUP1 PUSH2 0x1482 SWAP1 PUSH2 0x2165 JUMP JUMPDEST SWAP2 POP POP PUSH1 0xA DUP3 PUSH2 0x1492 SWAP2 SWAP1 PUSH2 0x19FA JUMP JUMPDEST SWAP2 POP PUSH2 0x1470 JUMP JUMPDEST PUSH0 DUP2 PUSH8 0xFFFFFFFFFFFFFFFF DUP2 GT ISZERO PUSH2 0x14B4 JUMPI PUSH2 0x14B3 PUSH2 0x21AC JUMP JUMPDEST JUMPDEST PUSH1 0x40 MLOAD SWAP1 DUP1 DUP3 MSTORE DUP1 PUSH1 0x1F ADD PUSH1 0x1F NOT AND PUSH1 0x20 ADD DUP3 ADD PUSH1 0x40 MSTORE DUP1 ISZERO PUSH2 0x14E6 JUMPI DUP2 PUSH1 0x20 ADD PUSH1 0x1 DUP3 MUL DUP1 CALLDATASIZE DUP4 CALLDATACOPY DUP1 DUP3 ADD SWAP2 POP POP SWAP1 POP JUMPDEST POP SWAP1 POP PUSH0 DUP3 SWAP1 POP JUMPDEST PUSH0 DUP7 EQ PUSH2 0x1595 JUMPI PUSH1 0x1 DUP2 PUSH2 0x1502 SWAP2 SWAP1 PUSH2 0x1A2A JUMP JUMPDEST SWAP1 POP PUSH0 PUSH1 0xA DUP1 DUP9 PUSH2 0x1513 SWAP2 SWAP1 PUSH2 0x19FA JUMP JUMPDEST PUSH2 0x151D SWAP2 SWAP1 PUSH2 0x198C JUMP JUMPDEST DUP8 PUSH2 0x1528 SWAP2 SWAP1 PUSH2 0x1A2A JUMP JUMPDEST PUSH1 0x30 PUSH2 0x1534 SWAP2 SWAP1 PUSH2 0x21E5 JUMP JUMPDEST SWAP1 POP PUSH0 DUP2 PUSH1 0xF8 SHL SWAP1 POP DUP1 DUP5 DUP5 DUP2 MLOAD DUP2 LT PUSH2 0x1551 JUMPI PUSH2 0x1550 PUSH2 0x1D41 JUMP JUMPDEST JUMPDEST PUSH1 0x20 ADD ADD SWAP1 PUSH31 0xFFFFFFFFFFFFFFFFFFFFFFFFFFFFFFFFFFFFFFFFFFFFFFFFFFFFFFFFFFFFFF NOT AND SWAP1 DUP2 PUSH0 BYTE SWAP1 MSTORE8 POP PUSH1 0xA DUP9 PUSH2 0x158C SWAP2 SWAP1 PUSH2 0x19FA JUMP JUMPDEST SWAP8 POP POP POP PUSH2 0x14EE JUMP JUMPDEST DUP2 SWAP5 POP POP POP POP POP JUMPDEST SWAP2 SWAP1 POP JUMP JUMPDEST PUSH0 CALLER SWAP1 POP SWAP1 JUMP JUMPDEST POP DUP1 SLOAD PUSH0 DUP3 SSTORE SWAP1 PUSH0 MSTORE PUSH1 0x20 PUSH0 KECCAK256 SWAP1 DUP2 ADD SWAP1 PUSH2 0x15C4 SWAP2 SWAP1 PUSH2 0x15C7 JUMP JUMPDEST POP JUMP JUMPDEST JUMPDEST DUP1 DUP3 GT ISZERO PUSH2 0x15DE JUMPI PUSH0 DUP2 PUSH0 SWAP1 SSTORE POP PUSH1 0x1 ADD PUSH2 0x15C8 JUMP JUMPDEST POP SWAP1 JUMP JUMPDEST PUSH0 DUP2 SWAP1 POP SWAP2 SWAP1 POP JUMP JUMPDEST PUSH2 0x15F4 DUP2 PUSH2 0x15E2 JUMP JUMPDEST DUP3 MSTORE POP POP JUMP JUMPDEST PUSH0 PUSH1 0x20 DUP3 ADD SWAP1 POP PUSH2 0x160D PUSH0 DUP4 ADD DUP5 PUSH2 0x15EB JUMP JUMPDEST SWAP3 SWAP2 POP POP JUMP JUMPDEST PUSH0 DUP1 REVERT JUMPDEST PUSH2 0x1620 DUP2 PUSH2 0x15E2 JUMP JUMPDEST DUP2 EQ PUSH2 0x162A JUMPI PUSH0 DUP1 REVERT JUMPDEST POP JUMP JUMPDEST PUSH0 DUP2 CALLDATALOAD SWAP1 POP PUSH2 0x163B DUP2 PUSH2 0x1617 JUMP JUMPDEST SWAP3 SWAP2 POP POP JUMP JUMPDEST PUSH0 PUSH1 0x20 DUP3 DUP5 SUB SLT ISZERO PUSH2 0x1656 JUMPI PUSH2 0x1655 PUSH2 0x1613 JUMP JUMPDEST JUMPDEST PUSH0 PUSH2 0x1663 DUP5 DUP3 DUP6 ADD PUSH2 0x162D JUMP JUMPDEST SWAP2 POP POP SWAP3 SWAP2 POP POP JUMP JUMPDEST PUSH0 PUSH20 0xFFFFFFFFFFFFFFFFFFFFFFFFFFFFFFFFFFFFFFFF DUP3 AND SWAP1 POP SWAP2 SWAP1 POP JUMP JUMPDEST PUSH0 PUSH2 0x1695 DUP3 PUSH2 0x166C JUMP JUMPDEST SWAP1 POP SWAP2 SWAP1 POP JUMP JUMPDEST PUSH2 0x16A5 DUP2 PUSH2 0x168B JUMP JUMPDEST DUP3 MSTORE POP POP JUMP JUMPDEST PUSH0 PUSH1 0x20 DUP3 ADD SWAP1 POP PUSH2 0x16BE PUSH0 DUP4 ADD DUP5 PUSH2 0x169C JUMP JUMPDEST SWAP3 SWAP2 POP POP JUMP JUMPDEST PUSH0 DUP2 SWAP1 POP SWAP2 SWAP1 POP JUMP JUMPDEST PUSH0 PUSH2 0x16E7 PUSH2 0x16E2 PUSH2 0x16DD DUP5 PUSH2 0x166C JUMP JUMPDEST PUSH2 0x16C4 JUMP JUMPDEST PUSH2 0x166C JUMP JUMPDEST SWAP1 POP SWAP2 SWAP1 POP JUMP JUMPDEST PUSH0 PUSH2 0x16F8 DUP3 PUSH2 0x16CD JUMP JUMPDEST SWAP1 POP SWAP2 SWAP1 POP JUMP JUMPDEST PUSH0 PUSH2 0x1709 DUP3 PUSH2 0x16EE JUMP JUMPDEST SWAP1 POP SWAP2 SWAP1 POP JUMP JUMPDEST PUSH2 0x1719 DUP2 PUSH2 0x16FF JUMP JUMPDEST DUP3 MSTORE POP POP JUMP JUMPDEST PUSH0 PUSH1 0x20 DUP3 ADD SWAP1 POP PUSH2 0x1732 PUSH0 DUP4 ADD DUP5 PUSH2 0x1710 JUMP JUMPDEST SWAP3 SWAP2 POP POP JUMP JUMPDEST PUSH2 0x1741 DUP2 PUSH2 0x168B JUMP JUMPDEST DUP2 EQ PUSH2 0x174B JUMPI PUSH0 DUP1 REVERT JUMPDEST POP JUMP JUMPDEST PUSH0 DUP2 CALLDATALOAD SWAP1 POP PUSH2 0x175C DUP2 PUSH2 0x1738 JUMP JUMPDEST SWAP3 SWAP2 POP POP JUMP JUMPDEST PUSH0 PUSH1 0x20 DUP3 DUP5 SUB SLT ISZERO PUSH2 0x1777 JUMPI PUSH2 0x1776 PUSH2 0x1613 JUMP JUMPDEST JUMPDEST PUSH0 PUSH2 0x1784 DUP5 DUP3 DUP6 ADD PUSH2 0x174E JUMP JUMPDEST SWAP2 POP POP SWAP3 SWAP2 POP POP JUMP JUMPDEST PUSH0 DUP2 ISZERO ISZERO SWAP1 POP SWAP2 SWAP1 POP JUMP JUMPDEST PUSH2 0x17A1 DUP2 PUSH2 0x178D JUMP JUMPDEST DUP3 MSTORE POP POP JUMP JUMPDEST PUSH0 PUSH1 0x20 DUP3 ADD SWAP1 POP PUSH2 0x17BA PUSH0 DUP4 ADD DUP5 PUSH2 0x1798 JUMP JUMPDEST SWAP3 SWAP2 POP POP JUMP JUMPDEST PUSH0 DUP2 MLOAD SWAP1 POP SWAP2 SWAP1 POP JUMP JUMPDEST PUSH0 DUP3 DUP3 MSTORE PUSH1 0x20 DUP3 ADD SWAP1 POP SWAP3 SWAP2 POP POP JUMP JUMPDEST DUP3 DUP2 DUP4 MCOPY PUSH0 DUP4 DUP4 ADD MSTORE POP POP POP JUMP JUMPDEST PUSH0 PUSH1 0x1F NOT PUSH1 0x1F DUP4 ADD AND SWAP1 POP SWAP2 SWAP1 POP JUMP JUMPDEST PUSH0 PUSH2 0x1802 DUP3 PUSH2 0x17C0 JUMP JUMPDEST PUSH2 0x180C DUP2 DUP6 PUSH2 0x17CA JUMP JUMPDEST SWAP4 POP PUSH2 0x181C DUP2 DUP6 PUSH1 0x20 DUP7 ADD PUSH2 0x17DA JUMP JUMPDEST PUSH2 0x1825 DUP2 PUSH2 0x17E8 JUMP JUMPDEST DUP5 ADD SWAP2 POP POP SWAP3 SWAP2 POP POP JUMP JUMPDEST PUSH0 PUSH1 0x20 DUP3 ADD SWAP1 POP DUP2 DUP2 SUB PUSH0 DUP4 ADD MSTORE PUSH2 0x1848 DUP2 DUP5 PUSH2 0x17F8 JUMP JUMPDEST SWAP1 POP SWAP3 SWAP2 POP POP JUMP JUMPDEST PUSH32 0x4E6F7420617574686F72697A6564000000000000000000000000000000000000 PUSH0 DUP3 ADD MSTORE POP JUMP JUMPDEST PUSH0 PUSH2 0x1884 PUSH1 0xE DUP4 PUSH2 0x17CA JUMP JUMPDEST SWAP2 POP PUSH2 0x188F DUP3 PUSH2 0x1850 JUMP JUMPDEST PUSH1 0x20 DUP3 ADD SWAP1 POP SWAP2 SWAP1 POP JUMP JUMPDEST PUSH0 PUSH1 0x20 DUP3 ADD SWAP1 POP DUP2 DUP2 SUB PUSH0 DUP4 ADD MSTORE PUSH2 0x18B1 DUP2 PUSH2 0x1878 JUMP JUMPDEST SWAP1 POP SWAP2 SWAP1 POP JUMP JUMPDEST PUSH32 0x526166666C6520616C7265616479206163746976650000000000000000000000 PUSH0 DUP3 ADD MSTORE POP JUMP JUMPDEST PUSH0 PUSH2 0x18EC PUSH1 0x15 DUP4 PUSH2 0x17CA JUMP JUMPDEST SWAP2 POP PUSH2 0x18F7 DUP3 PUSH2 0x18B8 JUMP JUMPDEST PUSH1 0x20 DUP3 ADD SWAP1 POP SWAP2 SWAP1 POP JUMP JUMPDEST PUSH0 PUSH1 0x20 DUP3 ADD SWAP1 POP DUP2 DUP2 SUB PUSH0 DUP4 ADD MSTORE PUSH2 0x1919 DUP2 PUSH2 0x18E0 JUMP JUMPDEST SWAP1 POP SWAP2 SWAP1 POP JUMP JUMPDEST PUSH0 DUP2 MLOAD SWAP1 POP PUSH2 0x192E DUP2 PUSH2 0x1617 JUMP JUMPDEST SWAP3 SWAP2 POP POP JUMP JUMPDEST PUSH0 PUSH1 0x20 DUP3 DUP5 SUB SLT ISZERO PUSH2 0x1949 JUMPI PUSH2 0x1948 PUSH2 0x1613 JUMP JUMPDEST JUMPDEST PUSH0 PUSH2 0x1956 DUP5 DUP3 DUP6 ADD PUSH2 0x1920 JUMP JUMPDEST SWAP2 POP POP SWAP3 SWAP2 POP POP JUMP JUMPDEST PUSH32 0x4E487B7100000000000000000000000000000000000000000000000000000000 PUSH0 MSTORE PUSH1 0x11 PUSH1 0x4 MSTORE PUSH1 0x24 PUSH0 REVERT JUMPDEST PUSH0 PUSH2 0x1996 DUP3 PUSH2 0x15E2 JUMP JUMPDEST SWAP2 POP PUSH2 0x19A1 DUP4 PUSH2 0x15E2 JUMP JUMPDEST SWAP3 POP DUP3 DUP3 MUL PUSH2 0x19AF DUP2 PUSH2 0x15E2 JUMP JUMPDEST SWAP2 POP DUP3 DUP3 DIV DUP5 EQ DUP4 ISZERO OR PUSH2 0x19C6 JUMPI PUSH2 0x19C5 PUSH2 0x195F JUMP JUMPDEST JUMPDEST POP SWAP3 SWAP2 POP POP JUMP JUMPDEST PUSH32 0x4E487B7100000000000000000000000000000000000000000000000000000000 PUSH0 MSTORE PUSH1 0x12 PUSH1 0x4 MSTORE PUSH1 0x24 PUSH0 REVERT JUMPDEST PUSH0 PUSH2 0x1A04 DUP3 PUSH2 0x15E2 JUMP JUMPDEST SWAP2 POP PUSH2 0x1A0F DUP4 PUSH2 0x15E2 JUMP JUMPDEST SWAP3 POP DUP3 PUSH2 0x1A1F JUMPI PUSH2 0x1A1E PUSH2 0x19CD JUMP JUMPDEST JUMPDEST DUP3 DUP3 DIV SWAP1 POP SWAP3 SWAP2 POP POP JUMP JUMPDEST PUSH0 PUSH2 0x1A34 DUP3 PUSH2 0x15E2 JUMP JUMPDEST SWAP2 POP PUSH2 0x1A3F DUP4 PUSH2 0x15E2 JUMP JUMPDEST SWAP3 POP DUP3 DUP3 SUB SWAP1 POP DUP2 DUP2 GT ISZERO PUSH2 0x1A57 JUMPI PUSH2 0x1A56 PUSH2 0x195F JUMP JUMPDEST JUMPDEST SWAP3 SWAP2 POP POP JUMP JUMPDEST PUSH0 PUSH1 0x40 DUP3 ADD SWAP1 POP PUSH2 0x1A70 PUSH0 DUP4 ADD DUP6 PUSH2 0x169C JUMP JUMPDEST PUSH2 0x1A7D PUSH1 0x20 DUP4 ADD DUP5 PUSH2 0x15EB JUMP JUMPDEST SWAP4 SWAP3 POP POP POP JUMP JUMPDEST PUSH2 0x1A8D DUP2 PUSH2 0x178D JUMP JUMPDEST DUP2 EQ PUSH2 0x1A97 JUMPI PUSH0 DUP1 REVERT JUMPDEST POP JUMP JUMPDEST PUSH0 DUP2 MLOAD SWAP1 POP PUSH2 0x1AA8 DUP2 PUSH2 0x1A84 JUMP JUMPDEST SWAP3 SWAP2 POP POP JUMP JUMPDEST PUSH0 PUSH1 0x20 DUP3 DUP5 SUB SLT ISZERO PUSH2 0x1AC3 JUMPI PUSH2 0x1AC2 PUSH2 0x1613 JUMP JUMPDEST JUMPDEST PUSH0 PUSH2 0x1AD0 DUP5 DUP3 DUP6 ADD PUSH2 0x1A9A JUMP JUMPDEST SWAP2 POP POP SWAP3 SWAP2 POP POP JUMP JUMPDEST PUSH32 0x526166666C65206E6F7420616374697665000000000000000000000000000000 PUSH0 DUP3 ADD MSTORE POP JUMP JUMPDEST PUSH0 PUSH2 0x1B0D PUSH1 0x11 DUP4 PUSH2 0x17CA JUMP JUMPDEST SWAP2 POP PUSH2 0x1B18 DUP3 PUSH2 0x1AD9 JUMP JUMPDEST PUSH1 0x20 DUP3 ADD SWAP1 POP SWAP2 SWAP1 POP JUMP JUMPDEST PUSH0 PUSH1 0x20 DUP3 ADD SWAP1 POP DUP2 DUP2 SUB PUSH0 DUP4 ADD MSTORE PUSH2 0x1B3A DUP2 PUSH2 0x1B01 JUMP JUMPDEST SWAP1 POP SWAP2 SWAP1 POP JUMP JUMPDEST PUSH32 0x4E6F7420656E6F756768207061727469636970616E7473000000000000000000 PUSH0 DUP3 ADD MSTORE POP JUMP JUMPDEST PUSH0 PUSH2 0x1B75 PUSH1 0x17 DUP4 PUSH2 0x17CA JUMP JUMPDEST SWAP2 POP PUSH2 0x1B80 DUP3 PUSH2 0x1B41 JUMP JUMPDEST PUSH1 0x20 DUP3 ADD SWAP1 POP SWAP2 SWAP1 POP JUMP JUMPDEST PUSH0 PUSH1 0x20 DUP3 ADD SWAP1 POP DUP2 DUP2 SUB PUSH0 DUP4 ADD MSTORE PUSH2 0x1BA2 DUP2 PUSH2 0x1B69 JUMP JUMPDEST SWAP1 POP SWAP2 SWAP1 POP JUMP JUMPDEST PUSH0 DUP2 SWAP1 POP SWAP2 SWAP1 POP JUMP JUMPDEST PUSH2 0x1BC3 PUSH2 0x1BBE DUP3 PUSH2 0x15E2 JUMP JUMPDEST PUSH2 0x1BA9 JUMP JUMPDEST DUP3 MSTORE POP POP JUMP JUMPDEST PUSH0 DUP2 SLOAD SWAP1 POP SWAP2 SWAP1 POP JUMP JUMPDEST PUSH0 DUP2 SWAP1 POP SWAP3 SWAP2 POP POP JUMP JUMPDEST PUSH0 DUP2 SWAP1 POP DUP2 PUSH0 MSTORE PUSH1 0x20 PUSH0 KECCAK256 SWAP1 POP SWAP2 SWAP1 POP JUMP JUMPDEST PUSH2 0x1BF8 DUP2 PUSH2 0x168B JUMP JUMPDEST DUP3 MSTORE POP POP JUMP JUMPDEST PUSH0 PUSH2 0x1C09 DUP4 DUP4 PUSH2 0x1BEF JUMP JUMPDEST PUSH1 0x20 DUP4 ADD SWAP1 POP SWAP3 SWAP2 POP POP JUMP JUMPDEST PUSH0 DUP2 PUSH0 SHR SWAP1 POP SWAP2 SWAP1 POP JUMP JUMPDEST PUSH0 PUSH20 0xFFFFFFFFFFFFFFFFFFFFFFFFFFFFFFFFFFFFFFFF DUP3 AND SWAP1 POP SWAP2 SWAP1 POP JUMP JUMPDEST PUSH0 PUSH2 0x1C51 PUSH2 0x1C4C DUP4 PUSH2 0x1C15 JUMP JUMPDEST PUSH2 0x1C20 JUMP JUMPDEST SWAP1 POP SWAP2 SWAP1 POP JUMP JUMPDEST PUSH0 PUSH2 0x1C63 DUP3 SLOAD PUSH2 0x1C3F JUMP JUMPDEST SWAP1 POP SWAP2 SWAP1 POP JUMP JUMPDEST PUSH0 PUSH1 0x1 DUP3 ADD SWAP1 POP SWAP2 SWAP1 POP JUMP JUMPDEST PUSH0 PUSH2 0x1C80 DUP3 PUSH2 0x1BC9 JUMP JUMPDEST PUSH2 0x1C8A DUP2 DUP6 PUSH2 0x1BD3 JUMP JUMPDEST SWAP4 POP PUSH2 0x1C95 DUP4 PUSH2 0x1BDD JUMP JUMPDEST DUP1 PUSH0 JUMPDEST DUP4 DUP2 LT ISZERO PUSH2 0x1CCC JUMPI PUSH2 0x1CA9 DUP3 PUSH2 0x1C58 JUMP JUMPDEST PUSH2 0x1CB3 DUP9 DUP3 PUSH2 0x1BFE JUMP JUMPDEST SWAP8 POP PUSH2 0x1CBE DUP4 PUSH2 0x1C6A JUMP JUMPDEST SWAP3 POP POP PUSH1 0x1 DUP2 ADD SWAP1 POP PUSH2 0x1C98 JUMP JUMPDEST POP DUP6 SWAP4 POP POP POP POP SWAP3 SWAP2 POP POP JUMP JUMPDEST PUSH0 PUSH2 0x1CE4 DUP3 DUP7 PUSH2 0x1BB2 JUMP JUMPDEST PUSH1 0x20 DUP3 ADD SWAP2 POP PUSH2 0x1CF4 DUP3 DUP6 PUSH2 0x1BB2 JUMP JUMPDEST PUSH1 0x20 DUP3 ADD SWAP2 POP PUSH2 0x1D04 DUP3 DUP5 PUSH2 0x1C76 JUMP JUMPDEST SWAP2 POP DUP2 SWAP1 POP SWAP5 SWAP4 POP POP POP POP JUMP JUMPDEST PUSH0 PUSH2 0x1D1B DUP3 PUSH2 0x15E2 JUMP JUMPDEST SWAP2 POP PUSH2 0x1D26 DUP4 PUSH2 0x15E2 JUMP JUMPDEST SWAP3 POP DUP3 PUSH2 0x1D36 JUMPI PUSH2 0x1D35 PUSH2 0x19CD JUMP JUMPDEST JUMPDEST DUP3 DUP3 MOD SWAP1 POP SWAP3 SWAP2 POP POP JUMP JUMPDEST PUSH32 0x4E487B7100000000000000000000000000000000000000000000000000000000 PUSH0 MSTORE PUSH1 0x32 PUSH1 0x4 MSTORE PUSH1 0x24 PUSH0 REVERT JUMPDEST PUSH32 0x4E487B7100000000000000000000000000000000000000000000000000000000 PUSH0 MSTORE PUSH1 0x31 PUSH1 0x4 MSTORE PUSH1 0x24 PUSH0 REVERT JUMPDEST PUSH0 PUSH1 0x3 SWAP1 POP SWAP2 SWAP1 POP JUMP JUMPDEST PUSH0 DUP2 SWAP1 POP SWAP3 SWAP2 POP POP JUMP JUMPDEST PUSH0 DUP2 SWAP1 POP SWAP2 SWAP1 POP JUMP JUMPDEST PUSH0 PUSH1 0x1 DUP3 ADD SWAP1 POP SWAP2 SWAP1 POP JUMP JUMPDEST PUSH2 0x1DCD DUP2 PUSH2 0x1D9B JUMP JUMPDEST PUSH2 0x1DD7 DUP2 DUP5 PUSH2 0x1DA5 JUMP JUMPDEST SWAP3 POP PUSH2 0x1DE2 DUP3 PUSH2 0x1DAF JUMP JUMPDEST DUP1 PUSH0 JUMPDEST DUP4 DUP2 LT ISZERO PUSH2 0x1E19 JUMPI PUSH2 0x1DF6 DUP3 PUSH2 0x1C58 JUMP JUMPDEST PUSH2 0x1E00 DUP8 DUP3 PUSH2 0x1BFE JUMP JUMPDEST SWAP7 POP PUSH2 0x1E0B DUP4 PUSH2 0x1DB8 JUMP JUMPDEST SWAP3 POP POP PUSH1 0x1 DUP2 ADD SWAP1 POP PUSH2 0x1DE5 JUMP JUMPDEST POP POP POP POP POP POP JUMP JUMPDEST PUSH0 PUSH2 0x1E2C DUP3 DUP5 PUSH2 0x1DC4 JUMP JUMPDEST PUSH1 0x60 DUP3 ADD SWAP2 POP DUP2 SWAP1 POP SWAP3 SWAP2 POP POP JUMP JUMPDEST PUSH0 PUSH1 0x3 SWAP1 POP SWAP2 SWAP1 POP JUMP JUMPDEST PUSH0 DUP2 SWAP1 POP SWAP3 SWAP2 POP POP JUMP JUMPDEST PUSH0 DUP2 SWAP1 POP SWAP2 SWAP1 POP JUMP JUMPDEST PUSH2 0x1E61 DUP2 PUSH2 0x15E2 JUMP JUMPDEST DUP3 MSTORE POP POP JUMP JUMPDEST PUSH0 PUSH2 0x1E72 DUP4 DUP4 PUSH2 0x1E58 JUMP JUMPDEST PUSH1 0x20 DUP4 ADD SWAP1 POP SWAP3 SWAP2 POP POP JUMP JUMPDEST PUSH0 PUSH1 0x20 DUP3 ADD SWAP1 POP SWAP2 SWAP1 POP JUMP JUMPDEST PUSH2 0x1E93 DUP2 PUSH2 0x1E3B JUMP JUMPDEST PUSH2 0x1E9D DUP2 DUP5 PUSH2 0x1E45 JUMP JUMPDEST SWAP3 POP PUSH2 0x1EA8 DUP3 PUSH2 0x1E4F JUMP JUMPDEST DUP1 PUSH0 JUMPDEST DUP4 DUP2 LT ISZERO PUSH2 0x1ED8 JUMPI DUP2 MLOAD PUSH2 0x1EBF DUP8 DUP3 PUSH2 0x1E67 JUMP JUMPDEST SWAP7 POP PUSH2 0x1ECA DUP4 PUSH2 0x1E7E JUMP JUMPDEST SWAP3 POP POP PUSH1 0x1 DUP2 ADD SWAP1 POP PUSH2 0x1EAB JUMP JUMPDEST POP POP POP POP POP POP JUMP JUMPDEST PUSH0 PUSH1 0x60 DUP3 ADD SWAP1 POP PUSH2 0x1EF3 PUSH0 DUP4 ADD DUP5 PUSH2 0x1E8A JUMP JUMPDEST SWAP3 SWAP2 POP POP JUMP JUMPDEST PUSH0 DUP2 SWAP1 POP SWAP3 SWAP2 POP POP JUMP JUMPDEST PUSH32 0x596F7572206F646473206F662077696E6E696E6720617265203120696E200000 PUSH0 DUP3 ADD MSTORE POP JUMP JUMPDEST PUSH0 PUSH2 0x1F37 PUSH1 0x1E DUP4 PUSH2 0x1EF9 JUMP JUMPDEST SWAP2 POP PUSH2 0x1F42 DUP3 PUSH2 0x1F03 JUMP JUMPDEST PUSH1 0x1E DUP3 ADD SWAP1 POP SWAP2 SWAP1 POP JUMP JUMPDEST PUSH0 PUSH2 0x1F57 DUP3 PUSH2 0x17C0 JUMP JUMPDEST PUSH2 0x1F61 DUP2 DUP6 PUSH2 0x1EF9 JUMP JUMPDEST SWAP4 POP PUSH2 0x1F71 DUP2 DUP6 PUSH1 0x20 DUP7 ADD PUSH2 0x17DA JUMP JUMPDEST DUP1 DUP5 ADD SWAP2 POP POP SWAP3 SWAP2 POP POP JUMP JUMPDEST PUSH0 PUSH2 0x1F87 DUP3 PUSH2 0x1F2B JUMP JUMPDEST SWAP2 POP PUSH2 0x1F93 DUP3 DUP5 PUSH2 0x1F4D JUMP JUMPDEST SWAP2 POP DUP2 SWAP1 POP SWAP3 SWAP2 POP POP JUMP JUMPDEST PUSH32 0x4D75737420627579206174206C65617374206F6E65207469636B657400000000 PUSH0 DUP3 ADD MSTORE POP JUMP JUMPDEST PUSH0 PUSH2 0x1FD2 PUSH1 0x1C DUP4 PUSH2 0x17CA JUMP JUMPDEST SWAP2 POP PUSH2 0x1FDD DUP3 PUSH2 0x1F9E JUMP JUMPDEST PUSH1 0x20 DUP3 ADD SWAP1 POP SWAP2 SWAP1 POP JUMP JUMPDEST PUSH0 PUSH1 0x20 DUP3 ADD SWAP1 POP DUP2 DUP2 SUB PUSH0 DUP4 ADD MSTORE PUSH2 0x1FFF DUP2 PUSH2 0x1FC6 JUMP JUMPDEST SWAP1 POP SWAP2 SWAP1 POP JUMP JUMPDEST PUSH32 0x496E73756666696369656E7420555344432062616C616E636500000000000000 PUSH0 DUP3 ADD MSTORE POP JUMP JUMPDEST PUSH0 PUSH2 0x203A PUSH1 0x19 DUP4 PUSH2 0x17CA JUMP JUMPDEST SWAP2 POP PUSH2 0x2045 DUP3 PUSH2 0x2006 JUMP JUMPDEST PUSH1 0x20 DUP3 ADD SWAP1 POP SWAP2 SWAP1 POP JUMP JUMPDEST PUSH0 PUSH1 0x20 DUP3 ADD SWAP1 POP DUP2 DUP2 SUB PUSH0 DUP4 ADD MSTORE PUSH2 0x2067 DUP2 PUSH2 0x202E JUMP JUMPDEST SWAP1 POP SWAP2 SWAP1 POP JUMP JUMPDEST PUSH0 PUSH1 0x40 DUP3 ADD SWAP1 POP PUSH2 0x2081 PUSH0 DUP4 ADD DUP6 PUSH2 0x169C JUMP JUMPDEST PUSH2 0x208E PUSH1 0x20 DUP4 ADD DUP5 PUSH2 0x169C JUMP JUMPDEST SWAP4 SWAP3 POP POP POP JUMP JUMPDEST PUSH32 0x416C6C6F77616E6365206E6F7420736574000000000000000000000000000000 PUSH0 DUP3 ADD MSTORE POP JUMP JUMPDEST PUSH0 PUSH2 0x20C9 PUSH1 0x11 DUP4 PUSH2 0x17CA JUMP JUMPDEST SWAP2 POP PUSH2 0x20D4 DUP3 PUSH2 0x2095 JUMP JUMPDEST PUSH1 0x20 DUP3 ADD SWAP1 POP SWAP2 SWAP1 POP JUMP JUMPDEST PUSH0 PUSH1 0x20 DUP3 ADD SWAP1 POP DUP2 DUP2 SUB PUSH0 DUP4 ADD MSTORE PUSH2 0x20F6 DUP2 PUSH2 0x20BD JUMP JUMPDEST SWAP1 POP SWAP2 SWAP1 POP JUMP JUMPDEST PUSH0 PUSH1 0x60 DUP3 ADD SWAP1 POP PUSH2 0x2110 PUSH0 DUP4 ADD DUP7 PUSH2 0x169C JUMP JUMPDEST PUSH2 0x211D PUSH1 0x20 DUP4 ADD DUP6 PUSH2 0x169C JUMP JUMPDEST PUSH2 0x212A PUSH1 0x40 DUP4 ADD DUP5 PUSH2 0x15EB JUMP JUMPDEST SWAP5 SWAP4 POP POP POP POP JUMP JUMPDEST PUSH0 PUSH2 0x213C DUP3 PUSH2 0x15E2 JUMP JUMPDEST SWAP2 POP PUSH2 0x2147 DUP4 PUSH2 0x15E2 JUMP JUMPDEST SWAP3 POP DUP3 DUP3 ADD SWAP1 POP DUP1 DUP3 GT ISZERO PUSH2 0x215F JUMPI PUSH2 0x215E PUSH2 0x195F JUMP JUMPDEST JUMPDEST SWAP3 SWAP2 POP POP JUMP JUMPDEST PUSH0 PUSH2 0x216F DUP3 PUSH2 0x15E2 JUMP JUMPDEST SWAP2 POP PUSH32 0xFFFFFFFFFFFFFFFFFFFFFFFFFFFFFFFFFFFFFFFFFFFFFFFFFFFFFFFFFFFFFFFF DUP3 SUB PUSH2 0x21A1 JUMPI PUSH2 0x21A0 PUSH2 0x195F JUMP JUMPDEST JUMPDEST PUSH1 0x1 DUP3 ADD SWAP1 POP SWAP2 SWAP1 POP JUMP JUMPDEST PUSH32 0x4E487B7100000000000000000000000000000000000000000000000000000000 PUSH0 MSTORE PUSH1 0x41 PUSH1 0x4 MSTORE PUSH1 0x24 PUSH0 REVERT JUMPDEST PUSH0 PUSH1 0xFF DUP3 AND SWAP1 POP SWAP2 SWAP1 POP JUMP JUMPDEST PUSH0 PUSH2 0x21EF DUP3 PUSH2 0x21D9 JUMP JUMPDEST SWAP2 POP PUSH2 0x21FA DUP4 PUSH2 0x21D9 JUMP JUMPDEST SWAP3 POP DUP3 DUP3 ADD SWAP1 POP PUSH1 0xFF DUP2 GT ISZERO PUSH2 0x2213 JUMPI PUSH2 0x2212 PUSH2 0x195F JUMP JUMPDEST JUMPDEST SWAP3 SWAP2 POP POP JUMP INVALID LOG2 PUSH5 0x6970667358 0x22 SLT KECCAK256 0x29 0xEB 0xE6 0x2A SWAP4 GASPRICE PUSH15 0xC4F20BF2FAA401286C2620AE02C5D6 KECCAK256 DUP8 DUP16 PUSH17 0xD8EA3DB4F32964736F6C634300081A0033 "
				},
				"gasEstimates": {
					"creation": {
						"codeDepositCost": "1756600",
						"executionCost": "infinite",
						"totalCost": "infinite"
					},
					"external": {
						"DEPOSIT(uint256)": "infinite",
						"DRAW()": "infinite",
						"NEW()": "infinite",
						"WITHDRAW()": "infinite",
						"checkIfWinner()": "infinite",
						"controller()": "483",
						"getOdds(address)": "infinite",
						"isLotteryActive()": "2555",
						"owner()": "2538",
						"participants(uint256)": "4967",
						"renounceOwnership()": "infinite",
						"retainer()": "2469",
						"ticketPrice()": "2471",
						"tickets(address)": "2891",
						"totalPot()": "2515",
						"transferOwnership(address)": "infinite",
						"usdc()": "infinite",
						"winners(uint256)": "2840"
					},
					"internal": {
						"uint2str(uint256)": "infinite"
					}
				},
				"methodIdentifiers": {
					"DEPOSIT(uint256)": "e95f0328",
					"DRAW()": "619d36ef",
					"NEW()": "08601768",
					"WITHDRAW()": "16ba7197",
					"checkIfWinner()": "b844007c",
					"controller()": "f77c4791",
					"getOdds(address)": "d5563b3c",
					"isLotteryActive()": "c3b69ebb",
					"owner()": "8da5cb5b",
					"participants(uint256)": "35c1d349",
					"renounceOwnership()": "715018a6",
					"retainer()": "e6be59e7",
					"ticketPrice()": "1209b1f6",
					"tickets(address)": "6dcbf2a3",
					"totalPot()": "24b570a9",
					"transferOwnership(address)": "f2fde38b",
					"usdc()": "3e413bee",
					"winners(uint256)": "a2fb1175"
				}
			},
			"storageLayout": {
				"storage": [
					{
						"astId": 8,
						"contract": "RaffleBase.sol:RaffleBase",
						"label": "_owner",
						"offset": 0,
						"slot": "0",
						"type": "t_address"
					},
					{
						"astId": 264,
						"contract": "RaffleBase.sol:RaffleBase",
						"label": "usdc",
						"offset": 0,
						"slot": "1",
						"type": "t_contract(IERC20)225"
					},
					{
						"astId": 274,
						"contract": "RaffleBase.sol:RaffleBase",
						"label": "ticketPrice",
						"offset": 0,
						"slot": "2",
						"type": "t_uint256"
					},
					{
						"astId": 277,
						"contract": "RaffleBase.sol:RaffleBase",
						"label": "retainer",
						"offset": 0,
						"slot": "3",
						"type": "t_uint256"
					},
					{
						"astId": 280,
						"contract": "RaffleBase.sol:RaffleBase",
						"label": "participants",
						"offset": 0,
						"slot": "4",
						"type": "t_array(t_address)dyn_storage"
					},
					{
						"astId": 284,
						"contract": "RaffleBase.sol:RaffleBase",
						"label": "tickets",
						"offset": 0,
						"slot": "5",
						"type": "t_mapping(t_address,t_uint256)"
					},
					{
						"astId": 286,
						"contract": "RaffleBase.sol:RaffleBase",
						"label": "isLotteryActive",
						"offset": 0,
						"slot": "6",
						"type": "t_bool"
					},
					{
						"astId": 290,
						"contract": "RaffleBase.sol:RaffleBase",
						"label": "winners",
						"offset": 0,
						"slot": "7",
						"type": "t_array(t_address)3_storage"
					},
					{
						"astId": 292,
						"contract": "RaffleBase.sol:RaffleBase",
						"label": "totalPot",
						"offset": 0,
						"slot": "10",
						"type": "t_uint256"
					}
				],
				"types": {
					"t_address": {
						"encoding": "inplace",
						"label": "address",
						"numberOfBytes": "20"
					},
					"t_array(t_address)3_storage": {
						"base": "t_address",
						"encoding": "inplace",
						"label": "address[3]",
						"numberOfBytes": "96"
					},
					"t_array(t_address)dyn_storage": {
						"base": "t_address",
						"encoding": "dynamic_array",
						"label": "address[]",
						"numberOfBytes": "32"
					},
					"t_bool": {
						"encoding": "inplace",
						"label": "bool",
						"numberOfBytes": "1"
					},
					"t_contract(IERC20)225": {
						"encoding": "inplace",
						"label": "contract IERC20",
						"numberOfBytes": "20"
					},
					"t_mapping(t_address,t_uint256)": {
						"encoding": "mapping",
						"key": "t_address",
						"label": "mapping(address => uint256)",
						"numberOfBytes": "32",
						"value": "t_uint256"
					},
					"t_uint256": {
						"encoding": "inplace",
						"label": "uint256",
						"numberOfBytes": "32"
					}
				}
			},
			"userdoc": {
				"kind": "user",
				"methods": {},
				"version": 1
			}
		}
	}
}